:020000040000FA
:10400000905F00205D4200007B420000CD40000038
:104010007F42000081420000834200000000000057
:10402000000000000000000000000000E940000067
:1040300087420000000000002D4100009D4D00005F
:10404000E1C6010015C70100B1C801008D420000A2
:10405000BDC80100C9C80100D5C801008D420000DB
:104060008D420000E1C801008D4200008D42000039
:104070008D4200008D420000EDC80100F9C801002A
:1040800005C9010011C901001DC9010029C90100AC
:104090008D4200008D4200008D4200008D420000E4
:1040A0008D4200008D4200003DC901008D4200009C
:1040B0008D42000000400200DFF80CD000F062FBEF
:1040C0000048004759BB0100905F00201EF0040F1C
:1040D0000CBFEFF30880EFF3098081694DF22112E4
:1040E000C0F2010210470000224B19680868B0E8CE
:1040F000F00F80F30988BFF36F8F4FF0000080F35B
:1041000011884EF00D0E7047000000000648006850
:10411000006880F3088862B661B6BFF34F8FBFF3C3
:104120006F8F00DF00BF00BF08ED00E0EFF30980F4
:10413000BFF36F8F0F4B1A6820E9F00F106008B5BE
:104140004FF0200080F31188BFF34F8FBFF36F8FC4
:104150001CF0E0FE4FF0000080F31188BDE808403D
:1041600019680868B0E8F00F80F30988BFF36F8F13
:10417000704700BF24000020EFF305807047000067
:104180002DE9FF5FEFF31080EFF31181EFF312825F
:10419000EFF313830FB445F66C10C2F200001A4916
:1041A0000160EFF30881EFF30982EFF31483EFF37B
:1041B000038441608260C36004611448016841F077
:1041C00001010160BFF34F8F30BFBFF36F8F104805
:1041D00041688268C368046981F3088882F30988AA
:1041E00083F3148884F30388BFF34F8FBFF36F8F7B
:1041F0000FBC80F3108881F3118882F3128883F357
:104200001388BDE8FF5F7047CB41000004030940FD
:104210006C59002040BA704740BA704740BA7047A6
:1042200040BA704740BA704740BA704740BA7047CA
:1042300040BA704740BA7047C0BA7047C0BA7047BA
:10424000C0BA7047C0BA7047C0BA7047C0BA7047AA
:10425000C0BA7047C0BA7047C0BA70470C4801680E
:1042600011F0010F07D04FF0010221EA02010160B5
:1042700008480068004708480047FEE7FEE7FEE7F9
:10428000FEE7FEE7FEE7FEE7FEE7FEE7FEE70000EB
:10429000640104406C590020B94000002DE9F05F32
:1042A0000546002092469B468846064681464024A5
:1042B0001BE0284641464746224600F09EF85346FA
:1042C0005A46C01A914110D311461846224600F0B2
:1042D00085F82D1A67EB01084F4622460120002180
:1042E00000F07CF817EB00094E41201EA4F10104F8
:1042F000DFDC484631462A464346BDE8F09F0000D1
:104300000649074A0868504343F2390210440860DE
:10431000400870470149086070470000B003002062
:104320006D4EC64110B5431A934209D283188818BE
:1043300003E010F8011D03F8011D521EF9D210BD53
:1043400040EA01039B0703D009E008C9121F08C017
:10435000042AFAD203E011F8013B00F8013B521E97
:10436000F9D210BDD2B201E000F8012B491EFBD2F8
:1043700070470022F6E710B513460A460446194670
:10438000FFF7F0FF204610BD421C10F8011B00296A
:10439000FBD1801A704730B504460020034600E088
:1043A0005B1C934203D2E05CCD5C401BF8D030BD77
:1043B00030B50B46014600202022012409E021FAF5
:1043C00002F59D4205D303FA02F5491B04FA02F5F2
:1043D0002844151EA2F10102F1DC30BD202A04DBC5
:1043E000203A00FA02F1002070479140C2F1200308
:1043F00020FA03F3194390407047202A04DB203A47
:1044000021FA02F00021704721FA02F3D040C2F1F4
:10441000200291400843194670472DE9FE4F80461F
:1044200081EA0300C00F0C46009021F0004123F008
:104430000045B8EB0200A94105D24046214690460E
:104440001C460B46024623F00040104304D1404670
:10445000214603B0BDE8F08F270DC7F30A00C3F370
:104460000A510290401A0190402866DAC3F3130003
:1044700040F4801B0098924620B10023D2EB030A3F
:1044800063EB0B0B01985946C0F140025046FFF711
:10449000A5FF06460D4650465946019A00F084F99C
:1044A00010EB08006141002487EA115284EAE773A7
:1044B0001A433BD0009A3AB3019A012A4FEA0752B5
:1044C00010DC001B61EB02014FF0004202EA0752D0
:1044D000CDE90042001C41F5801132462B4600F028
:1044E00082F9B6E7001B61EB0201001C41F5801365
:1044F00000185B412018A2F5001747EB030140EAC2
:10450000D570B6196D4111E06D084FEA360645EADF
:10451000C0754FEA0752001B61EB0201001C41F518
:10452000801149084FEA30000019514132462B46AC
:1045300003B0BDE8F04F00F049B9009801224000F7
:104540000023D0EB020263EBE073009821464FEAB0
:10455000E074B8EB000061EB0401E9E783F000438D
:104560005BE781F0004158E72DE9FE4F81EA030443
:1045700004F0004421F0004100944FF0000B23F0C0
:10458000004350EA010402D052EA030404D100209F
:10459000014603B0BDE8F08FC3F30A54C1F30A55D6
:1045A0002C44A4F2F3340194A0FB0254C1F3130190
:1045B00041F48011C3F3130343F4801301FB02445D
:1045C00000FB034E840A970A44EA815447EA835762
:1045D000A4FB076802958D0A05FB07854FEA932C1B
:1045E00004FB0C542705029D4FEA065847EA16378C
:1045F000B5EB08056EEB070C870E920E47EA8117A4
:1046000042EA8312A7FB0201B6EB0B0164EB000444
:104610002B0D43EA0C335E1844EB1C50DA4651462E
:10462000E7FB0201C5F313044FEA0B3343EA1453CB
:104630004FEA0432019C43EA0603A4F10C040294FD
:10464000009CCDE900B400F0CEF8A2E72DE9F04DD2
:1046500081EA030404F0004B21F0004514464FF0BA
:10466000000A23F0004150EA050220D054EA01027A
:104670001DD0C5F30A570246C5F31303C1F3130057
:10468000C1F30A5640F4801543F48013A7EB0608E3
:10469000101BD64608F2FD3873EB050002D308F173
:1046A000010801E092185B41B8F1000F03DA002025
:1046B0000146BDE8F08D00204FF480110646844687
:1046C0000EE0171B73EB050705D3121B63EB050305
:1046D00006434CEA010C49084FEA300092185B414E
:1046E00050EA0107EDD152EA030012D082EA040039
:1046F00083EA0501084303D100224FF0004308E09C
:10470000101BAB4102D20122002302E06FF0010234
:1047100053101AEB06004CEB085110EB0A0041EB6A
:104720000B01BDE8F04D00F051B8C1F30A52C1F3DE
:10473000130140F2FF3341F480119A4202DA002063
:104740000146704740F233439A42A2F2334202DC00
:104750005242FFF752BEFFF741BE000030B50029BC
:1047600004DB4FF00044404264EB0101002B04DB0A
:104770004FF00044524264EB0303994208BF904259
:1047800030BD0000064C074D06E0E06840F0010334
:1047900094E8070098471034AC42F6D3FFF790FC3A
:1047A000E838020008390200202A06DBCB17203A3D
:1047B00041FA02F043EAE07306E041FA02F3D04026
:1047C000C2F12002914008431946704710B5002BF2
:1047D00008DA401C41F1000192185B411A4301D1F3
:1047E00020F0010010BD2DE9F04D92469B4611B11D
:1047F000B1FA81F202E0B0FA80F220329046FFF77F
:10480000EDFD04460F4640EA0A0041EA0B0153461B
:104810005A46084303D120463946BDE8F08D11467B
:1048200053EA010015D0C8F140025046FFF7E5FDFC
:1048300005460E46504659464246FFF7CFFD08430F
:1048400001D0012000E00020054346EAE0762C4339
:1048500037430A984FEA4453A0EB08004FEAD424A8
:104860000A304FF0000244EA47544FEAD72502D5F8
:1048700000200146D1E7010510196941DDE908452D
:1048800000196941BDE8F04DA0E770B501EB0204E5
:1048900010F8015B15F0070301D110F8013B2A1154
:1048A00006D110F8012B03E010F8016B01F8016B41
:1048B0005B1EF9D12B0705D40023521E0FD401F83B
:1048C000013BFAE710F8013B02F10202A1EB0303FE
:1048D00003E013F8015B01F8015B521EF9D5A14218
:1048E000D6D3002070BD000070B50B49D1E900019E
:1048F00005F06EFC002001F087FE4FF0FF34074DFD
:1049000002E000BF01F09EFE214628681DF03EF83F
:104910000028F7D170BD00006021020004000020D3
:104920000348006810F0FF0F01D11CF075B8704704
:1049300004ED00E00348006810F0FF0F01D11CF007
:104940008BB8704704ED00E010B50C46091D8AB223
:10495000FB2A00D9FB22014644F29023024805F0CD
:1049600037FFE0B210BD00002027020010B5C36879
:10497000D9B280290FD98468E06800B101204F22A4
:1049800013A100F09FFFE16819B12069BDE8104054
:10499000084772B6FEE70446008A616982B2D8B25F
:1049A000124B1B68984706F029F800280FD1E068E1
:1049B000022806D004280AD1A069BDE8104006F0FC
:1049C00017B8A08BA169BDE8104006F00FB810BD64
:1049D0004863695F696E7465726E616C5F74726161
:1049E0006E73706F72742E6300000000F00100207F
:1049F0001FB5416899B1052911D00A290ED10A4C79
:104A00001ECC8DE81E00C168019141690291008AA7
:104A1000ADF80C001021684605F036FE1FBD04B04D
:104A2000BDE81040FFF7A2BFE02702002DE9FE4FCE
:104A3000044606F00DF808B1002000E00220494EBF
:104A400000278346B8464FF00109A6F1EC0A7CBB6B
:104A50005920BDE8FE8FE38F03B351B3431AA08EF4
:104A6000834200DC184685B202EBC20000EB021262
:104A70000AEB82000144208E7080B4F84A0040B3F3
:104A8000358004208DE82300284482B25946608D89
:104A9000334606F0D3F947B2D7BB25E032496FF071
:104AA000050081F8018081F8009081F80380D0E74B
:104AB00024E0FFE7A18E8B1E984201DD891E00E0F5
:104AC00001468DB202EBC20000EB02110AEB81013C
:104AD000D1E7A81C308094F8430004EB4000B0F804
:104AE0004600B0800620CDE7B4F84A0001222844F1
:104AF000A4F84A001146204600F054F894F84320E8
:104B0000B4F84A1004EB4200B0F846008142A2D348
:104B100094F84300B4F84A1004EB4000B0F8462083
:104B200091421CD14334A4F80780A0F84680207835
:104B300000EBC00101EB00110AEB81006421FFF7DB
:104B400018FC21786078433C814204D1FF20433433
:104B50006070207003E029EA010084F843003846C1
:104B600077E70000345000201001002010B590F8C5
:104B700020200B2A11D090F84510012901D00020E7
:104B800010BD0749002301244B700C70CB700A2A1A
:104B900003D1C08D002106F03FFE012010BD0000B2
:104BA0001001002000290ED022B1C28F8A420BD3FF
:104BB000511A0AE0B0F840208A4201D3511A00E0AD
:104BC0000021A0F8401070470021C187704730B520
:104BD00000290FD000234FF6FF7462B1C28F114439
:104BE000B1FBF4F504FB1514944213D8C3870121DB
:104BF00080F8451030BDB0F840201144B1FBF4F509
:104C000004FB1514944202D8A0F8403030BDA0F83F
:104C1000401030BDC18730BD2DE9F0411E4613461E
:104C20000D4602284AD1B5F84000254C4FF0010846
:104C3000002730B322462178224892F90120012929
:104C400010442DD032461946FFF76CFB6078304493
:104C50006070B5F84000401EA5F8400094F90100CE
:104C6000E178884227D183B26E68E98D154A0B201E
:104C7000B047677084F80080E7702846FFF776FF3A
:104C80000BE0677084F80080E77095F820000A2830
:104C900003D1E88D002106F0BFFD0120BDE8F081C1
:104CA0001978E1702770B21E991CFFF73BFB607802
:104CB0003044801ECCE72846FFF758FF0020EDE780
:104CC000100100202F51002000F01F02012191400F
:104CD00040094FF0E02202EB8000C0F880127047DC
:104CE00000F01F020121914040094FF0E02202EB49
:104CF0008000C0F88011704700F01F020121914030
:104D000040094FF0E02202EB8000C0F8001170472C
:104D100000F01F020121914040094FF0E02202EB18
:104D20008000C0F8001170474907090E002803DA17
:104D300000F00F00024A00E0024A81547047000070
:104D400014ED00E000E400E0024A11400143024893
:104D50000160704780FFFF1F08ED00E000B589B0DB
:104D600018F0B2FD816803910021CDE901100448DB
:104D70000B464A1E694600681CF08CFA09B000BD5B
:104D800008000020014800687047000068010440E6
:104D900001490872704700007401002010B52020FE
:104DA00080F31188BFF34F8FBFF36F8F1CF086FF26
:104DB00018B104494FF080500860002080F311883A
:104DC00010BD000004ED00E00FB4054B10B503A9C1
:104DD000044A029800F0EAF810BC5DF814FB0000E9
:104DE000B9740000B40300200FB4084B10B504A937
:104DF00002AA039800F0DAF8044602A9002000F0A5
:104E000078FC204610BC5DF814FB0000F35600004F
:104E1000014B024A00F0CAB8B9740000B403002084
:104E200070477047704770477047704770477047CA
:104E300002E008C8121F08C1002AFAD17047704763
:104E4000002001E001C1121F002AFBD170470000C1
:104E50002DE9FF5FDDE90220010DDDF838B00243E6
:104E600010D10F9801244CA2012808D000210098ED
:104E70000F9BC0E90021C0E90243BDE8FF9F6FEA34
:104E80000B01F4E7A1F2FF3144F6105041430D1439
:104E90000F9801280ED0A5EB0B00401C4FF000042A
:104EA0003E4EDFF8FC90B0F1000AA04605DACAF1E8
:104EB000000717E0CBF10000F0E7074612E0F80723
:104EC00007D02246334640464946FFF74DFB804611
:104ED00089462246334610461946FFF745FB0446ED
:104EE0000E467F10002FEAD1DDE90201BAF1000F72
:104EF00042464B4602DAFFF737FB01E0FFF7A6FB1D
:104F000004460E460022274BFFF728FC03D84FF03B
:104F1000FF30014607E00022234B20463146FFF7D1
:104F20007CFAFFF702FC102409E0002C0ADB0A22BD
:104F30000023FFF7B3F9019B30321A55641E50EA83
:104F40000102F2D1641C019AC4F1110314440F9AB6
:104F5000012A09D00122084301D15B450FDD4FF042
:104F6000000205F101050DE0084303D1A3EB0B0599
:104F70006D1E09E000204FF0110B0F9088E701DA59
:104F800000226D1E002A83D000980F99C0E90231DB
:104F9000C0E9004571E70000300000000000244037
:104FA0000000F03F0000F0430000E03F2DE9FF4F1C
:104FB00095B09B4689460646002512E2252878D101
:104FC0000024761CF94A2746012105943378203BBA
:104FD00001FA03F0104202D00443761CF6E7307861
:104FE0002A2811D06FF02F033078A0F13002092A5F
:104FF00016D8059A44F0020402EB820203EB420247
:105000001044761C0590EFE759F8042B0592002A0E
:1050100003DA504244F40054059044F00204761C34
:1050200030782E2816D116F8010F44F004042A28EF
:105030000DD06FF02F023078A0F13003092B09D882
:1050400007EB870302EB4303C718761CF3E759F815
:10505000047B761C30786C280FD006DC4C2817D0E7
:1050600068280DD06A2814D104E0742810D07A285A
:105070000FD10DE044F400140AE044F4801401E080
:1050800044F440147278824202D1761C04F58014F4
:10509000761C307866280BD013DC582877D009DCD2
:1050A000002875D04528F6D04628F4D047281AD1D4
:1050B0009FE118E0632835D0642879D0652812D1A3
:1050C00097E1702873D008DC6728F1D069286FD089
:1050D0006E280DD06F2806D1B5E073282CD0752826
:1050E00075D0782874D05A46179990476D1C76E190
:1050F000C4F30250022809D003280DD0D9F80010BB
:1051000004280DD00D6009F1040968E1D9F80010F8
:10511000EA17C1E90052F6E7D9F800100D80F2E76E
:105120000D70F0E719F8041B8DF8001000208DF8C1
:105130000100EA46012003E059F804AB4FF0FF30CC
:1051400061074FF0000102D40DE008F1010188462B
:10515000B9420FDA8045F8DB1AF808100029F4D1BB
:1051600008E008F1010188468142FADB1AF80810CC
:105170000029F6D105985B46A0EB08072146384682
:10518000179A00F09EFA284400EB080507E04DE06E
:105190002BE10DE01AF8010B5A4617999047B8F128
:1051A0000108F7D25B4621463846179A14E142E0DF
:1051B0000A220092C4F302524FF0000A022A08D0D9
:1051C00059F804CB032A4FEAEC710AD00DE029E02C
:1051D0002AE009F1070121F00702F2E802C1914635
:1051E00009E00FFA8CFC4FEAEC71042A03D14FFA64
:1051F0008CFC4FEAEC71002907DA0A460021DCF149
:10520000000C61EB02012D2202E0220504D52B22C5
:105210008DF80420012203E0E20701D02022F7E705
:10522000904653E00A2102E010220DE010214FF0D9
:10523000000A00910BE010224FF0000A44F0040431
:105240000827009203E008224FF0000A0092C4F3FE
:105250000252022A05D059F804CB0021032A08D0B3
:1052600009E009F1070121F00702F2E802C19146C5
:1052700005E01FFA8CFC042A01D10CF0FF0C4FF062
:105280000008220722D5702827D0009B83F0100346
:1052900053EA0A0309D15CEA010206D030228DF8F4
:1052A00004208DF8050002229046009B83F008033D
:1052B00053EA0A030AD15CEA010201D1620705D56B
:1052C00030228DF804204FF001087F1E582809D0A5
:1052D00037A003900EA8029013E040228DF804201E
:1052E0000122E1E737A0F4E753466046009AFEF753
:1052F000D5FF84460398825C0298A0F101000290D9
:1053000002705CEA0100EFD1029806A9A1EB00004F
:1053100000F1200A600702D524F4803400E0012760
:10532000574502DDA7EB0A0000E0002000EB0A0170
:10533000009005984144A0EB01000590E00306D4DD
:105340005B462146179A059800F0BBF905440027F3
:1053500006E001A85A46C05D179990476D1C7F1C56
:105360004745F6DBE0030CD55B462146179A0598C6
:1053700000F0A7F9054404E030205A4617999047F9
:105380006D1C0099481E00900029F5DC08E0029889
:1053900002995A460078491C0291179990476D1C52
:1053A000BAF10001AAF1010AF1DC6BE10928010060
:1053B000303132333435363738396162636465668B
:1053C000000000003031323334353637383941424D
:1053D000434445460000000000F060F9054406F132
:1053E0000106307800287FF4E9AD19B02846BDE801
:1053F000F08F620700D4062709F1070222F0070C9C
:10540000FCE80223E14603F000485FEA080C02D002
:105410000FF27C2C0DE05FEA045C02D50FF2742CD5
:1054200007E05FEAC47C02D00FF26C2C01E0AFF21F
:10543000700C4FF0FF3823F00043CDF850C06528C2
:105440000CD006DC452809D046281DD047283ED17F
:105450003EE0662818D0672839D139E00021112FA5
:1054600001DB112000E0781CCDE9000106A90EA89F
:10547000FFF7EEFCDDE90F010E9A03910021009287
:1054800007F1010A04914EE04FF000400097CDE98A
:10549000011006A90EA8FFF7DBFCDDE90F0203925D
:1054A0000E9B11990022DDF80CA00093049219B90B
:1054B00007F1010100EB010AB7EB0A0004D4C0F1C7
:1054C000FF3007F1010A0490AAEB0700019046E0C3
:1054D000012F00DA01270021112F01DD112000E04A
:1054E0003846CDE9000106A90EA8FFF7B1FCDDE9B9
:1054F0000F010E9A0391002104910092BA462107F0
:105500000CD40399514500DA8A46BAF1010F05DD42
:10551000009AAAF10101515C302908D0B84202DAA0
:1055200010F1040F06DA0121CDE9011017E0AAF10C
:105530000101E9E7002805DC049901440491AAEB84
:10554000000102E0411C514500DD8A460499A0EBB0
:10555000010000F1010001904FF00040029020078F
:1055600004D40198504501DBCDF8048000208DF86B
:105570004F0002980DF14F07B0F1004F25D02B20BE
:105580000E9002984FF0020800280CDA4042029078
:105590002D200E9007E00A210298FEF709FF303116
:1055A000029007F8011DB8F10001A8F10108F2DC32
:1055B00002980028EFD1791E0E980870307800F01C
:1055C000200040F0450007F8020D12A8A0EB0700EC
:1055D00000F107081498007800B1012000EB0A01DF
:1055E000019801EBE07105984144A0EB0100A0F1A6
:1055F00001000590E00306D45B462146179A059802
:1056000000F05FF805441498007820B15A461799C5
:10561000904705F10105E00323D55B462146179A23
:10562000059800F04EF805441BE00498002807DBBD
:10563000DDE90301884203DD0098405C179901E031
:10564000179930205A46904704986D1C401C0490CE
:105650000198401E019004D12E205A461799904778
:105660006D1CBAF10001AAF1010ADEDC05E017F8B1
:10567000010B5A46179990476D1CB8F10001A8F12B
:105680000108F4DC5B462146179A0598A4E6000061
:105690002D0000002B000000200000002DE9F0414B
:1056A000044600251E461746880405D406E0394600
:1056B0002020B04705F10105641EF8D52846BDE855
:1056C000F0812DE9F041044600251E469046C803AE
:1056D00001D5302700E02027880405D506E04146A3
:1056E0003846B04705F10105641EF8D52846BDE8E7
:1056F000F0810A68531C0B60107070472DE9F05F51
:10570000064600880B46C0F30B00834604F00EFFEC
:105710000400707875884FEA10170AD005F1040864
:10572000984509D02A1DBDE8F05F19463548FFF7B6
:105730007BBB594634A01EE001F036F907F00301A7
:10574000002740F2031A6063012903D002292CD0FC
:105750003CA010E0A08F60B14119B1F5827F0ED35B
:1057600028485B4652465C30FFF75EFBA787BDE8E2
:10577000F09F594643A0BDE8F05FFFF755BBA16B12
:105780002A4608440E30311DFEF7CCFDA08F284478
:1057900081B2A187E08F083081422FD3A06B0E30F9
:1057A00004F04CFFE787A78728E0A08F28B11548B1
:1057B0005946B030FFF738FBA787B788381D8146B8
:1057C000854205D31FFA88F1304604F037FF15E013
:1057D000FF2D07D95B465246291DBDE8F05F3848CA
:1057E000FFF722BBA06B2A1D0E303146FEF79AFD53
:1057F000A4F83C80E787A16BA1F81090BDE8F05FAA
:1058000005F04ABA402402006863692E633A2061B9
:10581000636C5F68616E646C65722063616C6C655B
:10582000642077697468206E6F6E2D726567697386
:1058300074657265642068616E646C6520257521ED
:10584000000000006863692E633A2061636C5F6842
:10585000616E646C65722063616C6C65642077694D
:10586000746820696E76616C6964207061636B6531
:105870007420626F756E6461727920666C61677303
:105880002025750041434C20436F6E7420467261A1
:10589000676D656E7420627574206E6F2066697224
:1058A000737420667261676D656E7420666F722016
:1058B00068616E646C6520307825303278000000B5
:1058C0004425020010B50B46002803D111461846A6
:1058D00007F07CFA10BD70471CB506498C68002C97
:1058E00007D0002100910191B0F806010B46032278
:1058F000A0471CBDA400002070B50D46002824D18F
:10590000042D22D2114C4FF4947654F8250020B97E
:10591000304600F04BFF44F82500040015D0314616
:105920002046FEF726FDA4F806511720A4F8000132
:1059300006F05AFCA4F80201FB2802D9FB20A4F8C7
:1059400002014FF0FF30A4F8080170BDC8470020E5
:10595000F8B51646028A069FA2EB010294B2C288ED
:10596000D2050AD50A4A55683DB1009300890A4616
:10597000014633463846A847F8BD9C4200D91C462C
:105980004069224601443046FEF7CCFC2046F8BD73
:10599000A4000020042105F0C5BD042106F004BDCB
:1059A000024908600421024806F076BCB0000020DD
:1059B000015F0000024948600421024806F06CBC07
:1059C000B0000020015F0000042105F0ABBD042100
:1059D00006F0EABC00B58BB0D0F82401009023E0BB
:1059E000684600F029FABDF8081000291ED0BDF85D
:1059F00006200FA0FFF714FABDF8060080050398F3
:105A000008D506A918F04AF806A81AF023FF01469F
:105A100011A001E0018811A0FFF702FABDF81010F3
:105A200010A0FFF7FDF900980028D9D10BB000BDF8
:105A300048616E646C653A203078253034782C20CB
:105A4000666C6167733A203078253034782C207585
:105A50007569643A20000000257300002530347811
:105A6000000000002C2076616C75655F6C656E3AF5
:105A70002025752C2076616C75653A2000000000A9
:105A8000064A30B41468002C06D00B46A4460246E1
:105A9000002130BC0420604730BC7047B8000020B3
:105AA0007CB51446042819D120783E283FD016DC56
:105AB000052846D0082801D030280FD1B2F803506D
:105AC000284600F0BDF8040008D0284618F048FC2D
:105AD00004F8FD0F284618F09CF960707CBDD728AB
:105AE0004CD0D8283BD0DA28F8D1608800F0A8F84C
:105AF0000500F3D0B5F8060104F018FD0600EDD05E
:105B00002079317A8842E9D16946601D17F0D5FFC6
:105B1000062231466846FEF73EFC0028DED1E07AD8
:105B200085F8FF00B5F80601FFF751FF7CBDA078AE
:105B3000012801D00A28F9D19188D078FFF7DCFE3E
:105B40007CBDB2F80340204600F07AF80028F7D078
:105B500000F02EFE0F49002041F824007CBD608833
:105B600000F06EF80500F9D0B4F80B0001B2A5F80A
:105B7000081109A0FFF755F9284608E0508800F001
:105B80005FF80028EAD04FF0FF31A0F8081100F0CC
:105B900097FA7CBDC8470020534D5F4556454E548B
:105BA0005F4944454E544954595F5245534F4C56F2
:105BB000494E475F53554343454544454420696436
:105BC000202575003EB50C468DF8080000208DF8A4
:105BD000092000900190022302AA0421204606F029
:105BE00039FE3EBD7FB50DF1200C1446BCE86400C3
:105BF0008DF80800ADF80930ADF80B20ADF80D10A8
:105C0000CDE90056072302AA0421204606F022FE11
:105C10007FBD70B515000C4603D0D0F8240120607C
:105C200008E0002070BD204600F006F92089A84257
:105C300003D020680028F6D170BD012070BD00009F
:105C4000042803D2024951F8200070470020704711
:105C5000C84700202DE9FF41164691F800C00024F6
:105C6000B0F800214F1D1D46BCF10E0F77D00CDCA3
:105C7000ACF1020EBEF10B0F1BD2DFE80EF0221AC0
:105C8000391A411A511A611A6700BCF1180F6FD006
:105C900009DCBCF1100F6ED0BCF1120F7CD0BCF14E
:105CA000160F06D17DE0BCF1520F74D0BCF1D20FBB
:105CB00071D0614642A0FFF7B3F804B02046BDE8BA
:105CC000F081B1F80110B0F802218A4202D9A0F89F
:105CD000001101E0A0F80021032400F580702C7071
:105CE0000188A5F801100188C088FEF72DFEE4E7C1
:105CF000491C4B8800930B88294603F0B1F90DE04D
:105D0000CB1D491CF61FB4B28F884E88CDE90243E3
:105D1000CDE900670B88294603F00EF90446CCE76D
:105D20000C462946072E01D8022300E01023641CEC
:105D30006588CDE900530297238803F069FBEDE7FE
:105D4000B1F80130294603F071FCE7E7491C4B88A4
:105D500000930B88294603F059FADFE7FFE7491C57
:105D6000761E0091C6F34F03294603F0F5FBD5E7F5
:105D70001CE000E010E00C461946072E01D8022373
:105D800000E01023641C6588CDE900530297238846
:105D900003F0A4FAC2E70EE00092324603F0CCFC16
:105DA000BCE70092324603F0D3F9B7E700923246DF
:105DB00003F090F8B2E70092324603F08DFC7CE7E6
:105DC000556E68616E646C65642041545420436F65
:105DD0006D6D616E643A20253032582C2044415458
:105DE000413A20001CB50B4B1C68002C10D0B62388
:105DF0008DF8003005238DF801308DF80200ADF8E4
:105E00000310ADF80520072300216A460420A047AF
:105E10001CBD0000B800002010B580B2FFF710FFD5
:105E2000002808D0B0F80A21B0F80611BDE81040EB
:105E30009120FFF7D7BF10BD10B501680A88828096
:105E400072B14B88C3808C88048101F10604C46060
:105E50009B050CD5A2F11603038201F116030BE09A
:105E60000021C1800181C1600182416106E0A2F18F
:105E70000803038201F1080311444361016010BD6E
:105E800070B5044600890D4600281BD0022A08D0B0
:105E9000E08880050BD51022E068FEF77CFA80B11F
:105EA00011E009882046BDE8704000F00EB80846B1
:105EB00005F0B8F9002805D0E168A889098888426A
:105EC00001D1012070BD002070BD70B5044600896D
:105ED0000D46002810D0E0888005E06808D505F060
:105EE000A1F9002808D0E0688089A84203D004E026
:105EF0000088884201D1012070BD002070BD0000E3
:105F00002DE9F041194C06461F46154688460428DF
:105F100009D0082E28D12878C00720D0D4F800C096
:105F20001FE03046E047287878281DD1D4F804C017
:105F3000BCF1000F08D03B462A4641463046E047B8
:105F400004F0ECF900280FD02468002C0CD03B465C
:105F50002A4641463046A446BDE8F0416047D4F8A1
:105F600004C0BCF1000FDCD1BDE8F081B00000201E
:105F70002DE9F0410F461546044601461E461278AB
:105F800028A0FEF74EFF042C0CD0082C48D1384630
:105F9000FFF756FE040043D029781E2909D0522964
:105FA00018D01EE0287878283AD1BDE8F04100F0FA
:105FB00001B9B4F80A01A0B104F5867000F0F6FC4E
:105FC00004F583740020A288A0802188BDE8F041F8
:105FD000FFF708BF32462946BDE8F0410023FFF72E
:105FE00039BEFB2E06D93246BDE8F041FB231A48E4
:105FF000FEF717BF22782AB1BDE8F04116485030AD
:10600000FEF70FBF01202070A4F804613246294634
:10601000A01CFEF787F92046BDE8F04100F050B81B
:10602000BDE8F0816174745F7061636B65745F6873
:10603000616E646C65723A207479706520307825E1
:106040003032782C207061636B65745B305D20307A
:106050007825303278000000F422020010B5B0F844
:106060000001029CC01E80B21970A3F80120844276
:1060700000D8204610BD1FB514468DF80800069ABA
:10608000ADF80930ADF80B20ADF80D1000200090F0
:106090000190072302AA0421204606F0DBFB1FBD66
:1060A0003EB50C468DF80800ADF8092000200090A0
:1060B0000190032302AA0421204606F0CBFB3EBD3B
:1060C0002DE9FF410446017824A0FEF7AAFE2078BE
:1060D00001282DD1A078D22808D003202070B4F850
:1060E000060104B0BDE8F041FFF771BC18F05AF8A2
:1060F0000027E0B1B4F804010F2818D3B4F8060162
:1061000018F0FCFC002813D1B4F9080106F046FD94
:1061100005000CD0B4F80411A4F10A000E58696C03
:10612000324611A0FEF77DFE686CB04202D927709E
:10613000BDE8FF8102202070B4F803201749601DDC
:10614000CDE90006CDE90214B4F80401A1780F38B6
:1061500083B205F1340018F02FF8E9E76174745F39
:1061600072756E3A20256400415454205369676E5D
:1061700065642057726974652C20444220636F75F2
:106180006E7465722025752C207061636B657420B8
:10619000636F756E746572202575000015640000CC
:1061A000FFF712BC00B5FFF74BFD002801D0B0F897
:1061B000000100BD2DE9F8430025144F144EA846F8
:1061C00057F82540E4B1207803280BD1204600F091
:1061D000A7F838B1607898B1B4F80601BDE8F84383
:1061E000FFF7F5BB607858B10AA084F80180006819
:1061F0000090346824B1022300216A460420A0479D
:106200006D1C042DDCD3BDE8F8830000C8470020D6
:10621000B8000020B70000002DE9FE431F461646D7
:106220000D468046FFF70CFD040005D0B4F80A01C6
:1062300020B19020BDE8FE835920FBE74046FFF7E0
:10624000C3FB88B102AB2A461D2120460097FFF709
:1062500005FFCDE90060032302AA0421404606F0B1
:10626000F9FA060002D014E05720E3E7A4F80A5137
:1062700004F5867042460849044600F0CDFB47F21B
:10628000305240F28241204600F0AEFB204600F042
:106290007DFB3046CEE70000195E000070B5054674
:1062A0000B480A4C0E46446004F01CF808480830BD
:1062B000446017F0ABFC0748FFF77CFB284600F072
:1062C0009DF83046BDE8704000F09EB8A15A00002D
:1062D000BC000020715F00002DE9FE431E461546FC
:1062E0000F468046FFF7ACFC040014D04046FFF791
:1062F0006BFB90B102AB3A461B2120460096FFF79C
:10630000ADFECDE90050032302AA0421404606F069
:10631000A1FABDE8FE835920FBE75720F9E700000A
:106320002DE9FC41244D002707700446B0F80421F4
:106330002B46811CFFF78EFC064604280FD32878D5
:1063400001280CD12879082809D194F8FE0030B131
:10635000B4F8060117F084FD78B1012811D086B198
:1063600000970197B4F8060133462A46042106F047
:1063700071FA2878032807D01CE0B4F8060118F059
:1063800051FF0020BDE8FC810C4AB4F80601B4F8C6
:106390000011146874B1B5228DF8002004228DF824
:1063A0000120ADF80410ADF80200062300216A4672
:1063B0000420A0470120E5E734500020B800002069
:1063C0000149086070470000B800002010B502467F
:1063D000FFF736FC002806D001214170BDE81040CF
:1063E0001046FFF7F4BA10BD10B50C46FFF728FCB5
:1063F000002801D0C0F8244110BD000001494860C8
:1064000070470000A4000020014988607047000028
:10641000A40000207CB5044600780A4602280ED16C
:106420006946104617F046FBB4F80411A01F01445A
:1064300008226846FDF7AFFF10B1002020707CBD38
:10644000B4F80411A4F10A000E58B4F9080106F0DA
:10645000A5FB050001D0012000E00020E62207A1F5
:10646000FFF730FA45B1761C6E6403202070B4F853
:106470000601FFF7ACFA7CBD72B6FEE76174745F8B
:106480007365727665722E63000000000A6882658B
:106490004968C1653521017002F0CEB9F8B50446EE
:1064A000C0880E46C0050BD506484568002D07D0AC
:1064B000002000900346024621893046A8472082EA
:1064C000F8BD0000A40000207CB50E46C988044633
:1064D0000D0B00D06D1C14F8FD2F6078CDE9000283
:1064E000A378FD3C2A461048FEF79AFCF088410547
:1064F00002D594F8FE1079B1000502D594F8FF009A
:1065000060B1002D02DD94F8FD0048B194F8FD0063
:10651000A84207DA0C207CBD05207CBD08207CBD8C
:106520000F207CBD00207CBDF02102003EB50C4652
:106530008DF808000699ADF80920CDE90013032372
:1065400002AA0421204606F085F93EBD0622FDF789
:1065500022BF0A68026089888180704710B50C49A3
:10656000002203463A24985C000900F025FB0870DD
:10657000985C00F00F0000F01FFB48708C70C91C85
:10658000521C062AEFDB002001F8010C004810BD68
:106590003D4A00200844008840BA70474218405CD9
:1065A0005378528852BA63F31F4242EA0060704740
:1065B000130A4354491C89B242547047130E435482
:1065C000491C89B2C2F307434354491C89B2C2F340
:1065D00007234354491C89B24254704710B50446FE
:1065E000FEF79EF903480188A1430180BDE81040F1
:1065F000FEF7A0B94C03002010B503F026FABDE861
:106600001040012000F010B810B506490A68C2F326
:106610000312022AFAD1012100F0D6FBBDE8104096
:1066200004F076BD0400044010B50446FEF778F986
:106630000348018821430180BDE81040FEF77AB984
:106640004C03002003480078C00701D115F096BD27
:10665000704700004C03002008B500200090084857
:106660000068C1050748006803D069461AF028FF92
:1066700008BD00231A4619461AF00CFE08BD00009A
:1066800004ED00E00400002010B518B103F0DFF9BC
:106690000EF09CFC0FF03CFC0120FFF79FFFBDE8D3
:1066A0001040032015F07EBE70B50D480088A0B9DB
:1066B0000FF05EFB40F2E2450446A8420DD30948C4
:1066C000406D50B915F042FF38B115F047FFA842B0
:1066D00003D3A04200D3204670BD002070BD00004F
:1066E0004C030020000009400268134602E08A4281
:1066F00004D01268002AFAD10B600160704702E0F2
:106700008A4205D010460268002AF9D10A60016069
:106710007047006808B1002070470120704704E00E
:10672000884201D10120704700680028F8D17047E5
:106730000268816832B140680068884200D1086808
:1067400008B9704709B10120704700207047002246
:10675000C0E90021096881607047016851B1416852
:106760000A6881688A4203D141600968816003E058
:10677000826001E0012101608068704781680968DA
:106780008160426811600021016070474FF0FF3363
:1067900051B107E002688A4203D109680160002014
:1067A000704710460028F5D11846704717F00CB80E
:1067B0001AF068B91AF066B9782017F005B8000029
:1067C00010B50446806B06F01EFA2146BDE8104065
:1067D000014800F071B80000D800002070B50C48E6
:1067E00000F09AF804000CD040F2111006F02EFAD6
:1067F000050008D090212046FDF7BBFD2046A5638B
:1068000070BD002070BD2146014800F055F8F8E742
:10681000D800002010B5902304220F490F4800F043
:1068200037F80E4914230C39002201F1100000F052
:106830002FF80A494C230839002201F1100000F01A
:1068400027F806490C230022091FBDE8104001F17A
:10685000100000F01DB80000D8470020D80000202C
:106860000146014800F028B8E0000020014800F08F
:1068700053B80000E00000200146014800F01CB8B9
:10688000DC000020014800F047B80000DC000020D8
:106890002DE9F04106460020984617460C4605466D
:1068A000306005E02146304600F006F844446D1C97
:1068B000BD42F7DBBDE8F08130B40268134607E063
:1068C0008B4204D1024630BC04A0FEF7ABBA1B6871
:1068D000002BF5D10A60016030BC7047627473749C
:1068E00061636B5F6D656D6F72795F706F6F6C5F09
:1068F000667265653A20626C6F636B202570206656
:106900007265656420747769636520666F722070B4
:106910006F6F6C2025700000016819B10A68026071
:10692000084670470020704701460148FFF7C4BF82
:10693000E40000200148FFF7EFBF0000E400002062
:1069400000B589B00A2301930E4B1B680293059191
:10695000CDE903020C480068C00518464FF000035B
:1069600004D0002269461AF04BFD04E04FF0FF32DC
:1069700069461AF08FFC012802D0012009B000BD41
:106980000020FBE70800002004ED00E038B50446D5
:106990001BF086F902464FF0FF30009000230121E2
:1069A00060691BF095FB38BD0020704738B5044680
:1069B000406948B14FF0FF31002300911A4605218C
:1069C0001BF086FB00206061002038BD38B504460E
:1069D0001BF066F902464FF0FF30009000230221C1
:1069E00060691BF075FB38BD38B5044681604FF413
:1069F0007A704243B2FBF0F1044800902346002233
:106A000003A01BF0F9FA606138BD00005D4D000085
:106A10006800000001617047C0E90312704708B5C3
:106A20004FF0FF310091002340691A4603211BF00B
:106A30004FFB08BD70B50C00054601D0012000E0F9
:106A400000206A2206A1FEF73DFF284600F034F838
:106A500010B100206C602060286820602C6070BD40
:106A60006C6973745F62617369632E630000000078
:106A700070B50C00054601D0012000E00020532233
:106A800007A1FEF71FFF284600F016F808B12C609A
:106A900001E06868046000206C60206070BD000048
:106AA0006C6973745F62617369632E630000000038
:106AB0000021016041607047006808B10020704704
:106AC00001207047006808B100207047012070471E
:106AD000016819B10A68026012B103E00022FAE706
:106AE000002242600846704770B5054600680C46B3
:106AF00000B10120C32209A1FEF7E4FE206800B125
:106B00000120C42205A1FEF7DDFE69682068086047
:106B10006068686000202060606070BD6C6973749C
:106B20005F62617369632E630000000070B5034605
:106B300000200246012513F80240002105FA01F663
:106B4000344201D0401C80B2491CC9B20829F5D397
:106B5000521CD2B2052AEED370BD70B5044600892E
:106B600042F6554290472521B0FBF1F201FB12019C
:106B7000CA0801F00705A25C0123AB401A4201D00C
:106B8000084670BDE18841432046BDE87040C1F32E
:106B9000074102F067B930B50446106820601079EB
:106BA0000D4600F01F0020712046FFF7BFFFE08078
:106BB00085EA1540208130BD0A2801DA303003E033
:106BC0000A38062802DA4130C0B270473F207047C9
:106BD00070B50446C08E88B0002822D0258F94F866
:106BE0003430A2268DF800601A268DF80160A6893F
:106BF0000A46ADF80400ADF8082004F11C01ADF818
:106C00000260ADF80650ADF80A30102203A8FDF777
:106C100089FBA1891C236A46A06800F02DF9002099
:106C2000E08608B070BD000004481144814203D9D9
:106C30000120186003207047002070472F4F00206C
:106C40000249CA6D82430243CA6570470000094089
:106C500043688B4204D18068904201D10120704783
:106C6000002070471CB50022202140201AF072FA43
:106C7000104C03220021A06001201AF06BFA606022
:106C800004F10C010E20CDE900014FF480640023D3
:106C9000224609A109481AF089FF0649022010314D
:106CA000CDE900010023224605A106481AF07EFF27
:106CB0001CBD00000000002063000000E948000047
:106CC0007000000071CD010010B504F084FA0022BC
:106CD000BDE810401146022004F044BA70B50646E3
:106CE000401E1D460C46042809D220782968884297
:106CF00005D10622211D6868FDF74DFB08B1002073
:106D000070BDC5E90264032070BD00000248017A2D
:106D1000491C0172704700007401002010B5044640
:106D200002F06CFF00200EF03DF90EF057FF0DF061
:106D300095FF07F073FE0BF031F810F0D7FB14F05D
:106D400007FA002C03D0BDE810400FF09CBC10BD2A
:106D500070B50446B0F1A53F19D0B4F1C33F16D0C9
:106D600001239A020521192015F06AF90546B4F1AC
:106D7000F23F09D0922206A10020FEF7A3FD28468B
:106D8000BDE8704015F0BCBA07202870F7E770BD69
:106D90006474626C652E630070B50A4C4FF4202059
:106DA000074DE06419F02EF9800602D54FF48030CB
:106DB00001E04FF400402844C0F31300A06470BD0C
:106DC00000000A4000000940F8B505461B480E4681
:106DD000002101800EF0C6F919F022F915F0D8F85B
:106DE00068460EF0F9F90446009841F29F3140F6EA
:106DF0000C17884201D3012000E00020852210A159
:106E0000FEF760FD3A462146002015F02DF9009866
:106E100004F60C11A0F60C1082B2012015F024F932
:106E200019F094F83046FFF779FF002D04D028467A
:106E3000BDE8F840FFF78CBFF8BD00004C03002010
:106E4000647469702E63000009490120096809B162
:106E5000002070470749CA69002AF9D1044A28323C
:106E600012688968491E8A42F3D1022070470000E7
:106E7000A00A00202400002030B4040003D0A4465F
:106E800030BC0420604730BC7047FEB51E46174634
:106E90000C46054602F00EF8002816D0011D684683
:106EA000FFF755FC0CE06846FFF757FC0189A1424B
:106EB00006D1D0F804C033463A4629460420E047BC
:106EC0006846FFF735FC0028EDD1FEBD1CB5A022B9
:106ED0008DF8002003228DF801208289ADF8022070
:106EE0008DF804108189806805236A46FFF7C4FF86
:106EF0001CBD30B587B00446A3250A988DF8005014
:106F000018258DF80150A589ADF80410ADF80620BC
:106F10000146ADF80250ADF8083010220DF10A001C
:106F2000FDF700FAA1891A236A46A068FFF7A4FFBB
:106F300007B030BD10B586B00446A1208DF8000022
:106F400016208DF80100A089ADF80410ADF80200FC
:106F5000ADF806201022194602A8FDF7E3F9A18931
:106F600018236A46A068FFF787FF06B010BD00002F
:106F70002DE9F04742780446901C86B00E468142C7
:106F800006D006B0921CBDE8F047FD48FDF74CBFA7
:106F90002178FCA0FDF748FF20780122DFF8F48378
:106FA0004FF000094FF0070A10287DD00BDCA0F14C
:106FB00005000B2835D2DFE800F0BA97348334346B
:106FC0005A3434112B003E286FD004DC12286DD0C7
:106FD000132826D12CE0572823D196E1D8F80000B9
:106FE000A278454690F84210EBA0FDF71DFF6179AD
:106FF000F2A0FDF719FF2968A07881F84200F44952
:10700000B4F803000988884207D0F249098804E0EF
:10701000D8F80000E17880F84210D8F80010A1F804
:107020007690D8F8000090F85800012877D076E1E3
:107030000325002717E0635BAD1C625BAD1C18469F
:1070400003F074FA38B190F84010914208D3891ACD
:1070500080F8401006E01946DFA0FDF7E5FE01E0EC
:1070600080F840907F1CA078B842E4DCD9E7B4F8FF
:10707000030003F05BFA0500D3D0A07860B9E17A91
:1070800004F10500090703D5698A41F0040169820A
:10709000C078000600D5EA75688A40F00201B84859
:1070A0006982EA7D603002E04AE05AE04DE0FDF797
:1070B000BBFE688A0106B4D540F020006882B0E7C4
:1070C000B4F80350284603F031FA0028A9D0A1787B
:1070D00031BB61790029816902D041F4004101E0AE
:1070E00021F4004181611BE0B4F80350284603F00D
:1070F0001DFA002895D0418A0A0607D521F08001A3
:1071000041F010014182A17801758AE7A2783AB96D
:10711000427D022A04D841F04001418281E7FAE031
:1071200000F044FC0146284603F000FB79E7B4F880
:10713000030003F0FBF9002898D080F811A070E755
:1071400003F026FD03F038FD6BE7A07800288DD111
:10715000B4F8030003F0EAF9002887D0617A0174DB
:107160005FE7A078062878D010DC01281CD004281E
:10717000A5D1E078002871D1A08803F0D7F90028C4
:107180006CD08030A179417002704AE70A280BD098
:10719000122894D12079082891D2E178002970D062
:1071A0009BA0FDF741FE3CE7E078002887D1A78847
:1071B000042F27D2D8F8000000EB8705686910B9C2
:1071C000FFF70CFB686105001CD0EF800220C5F8BA
:1071D000189068752A46974905F11C00FFF71CFCBA
:1071E000FFF7E2FB6863E0792872294604F10800A2
:1071F00016F063FC05206874A0792874A0780A282A
:1072000004D012E0A08800F0B5F90AE7D4F80E1017
:10721000C5F88210618AA5F886106169C5F88810E2
:10722000218B05F18000A5F88C10E089A5F85200AB
:10723000287C60B9D8F8001091F84010E973D8F8AC
:10724000000005F1090190F8400000F06BFA2846B3
:10725000FFF784F90246E98801E013E028E076A010
:10726000FDF7E2FD03F038FAD8F8000090F84E0080
:10727000C0068AD5E98840F6B832774803F0A8FA04
:10728000CFE618E034F8035F284603F04FF9628830
:10729000A388E188248900280AD0543046880088D1
:1072A000CDE90014CDE9020629466C4803F090FAB6
:1072B00006B0BDE8F087B4F80520104603F036F9B3
:1072C0000546217966A0FDF7AFFD2079D8F80020AA
:1072D000C0EBC001114491F88310E97369B12179C1
:1072E000D8F80000C1EBC101014401F18000D1F8E0
:1072F000841045F8091F008905E0D8F80000416BAB
:1073000045F8091F008FA8808BE6608803F00EF90E
:107310000028B5D1CCE7B1B2204603F0F3FAB1B200
:10732000204603F0B1F92078052823D1B4F80300F2
:1073300003F0FCF8F0B1D0E90012047D458ACDE9F4
:10734000031203F017FEE80514D503AD214650A043
:10735000FDF76AFDE1208DF800008DF801A08DF8A1
:1073600002400DF10301284616F0A7FB09216846EB
:1073700003F08AF906B0BDE8F04703F08DBC0000C9
:10738000B02502004843493A4556454E543A253007
:107390003278000034240200434D445F434F4D5087
:1073A0004C45544520636D6473206F6C64202575D3
:1073B000202D206E6577202575000000636D645FC9
:1073C000636F6D7020737461747573202575000090
:1073D00068270200702702006863695F6E756D623E
:1073E00065725F636F6D706C657465645F70616317
:1073F0006B6574206C6973747320756E7573656446
:1074000020636F6E2068616E646C652025750000D6
:1074100061647620736574207465726D696E617441
:107420002064756520746F20636175736520307802
:1074300025780A0045A500004E657720636F6E6EC3
:10744000656374696F6E3A2068616E646C652025AF
:10745000752C2025730000009026020018270200DA
:107460006164762068616E646C657220307825787E
:1074700020636F6E6E656374656420746F20636F44
:107480006E2068616E646C6520307825780A000093
:107490006863695F656D69745F646564696361747D
:1074A00065645F626F6E64696E675F726573756C49
:1074B000742025752000000010B5044603F084FEFA
:1074C000204610BD13460A4610B50146024803F097
:1074D0007FF9C0B210BD0000C027020010B50246FF
:1074E000024803F075F9C0B210BD0000C0260200CA
:1074F00010B588B00C46694616F0D0FA04A92046AB
:1075000016F0CCFA04AA6946024803F061F908B003
:10751000C0B210BDF026020010B5024803F058F9C1
:10752000C0B210BDB826020010B5024803F050F9F1
:10753000C0B210BD7027020010B5024803F048F930
:10754000C0B210BDD027020000B1012004490A6872
:1075500092F87920824202D0096881F87900704758
:107560003424020010B5024803F032F9C0B210BD55
:10757000B026020010B5034602F0D8FF40B1062144
:10758000417413221946054803F022F9002010BD6A
:107590000021184603F064F8F8E7000060260200B6
:1075A00038B54FF0FF30ADF80200ADF80000062509
:1075B0000DE0684603F00AF80446407C062806D031
:1075C000E1881322054803F003F900B965746846A1
:1075D00002F0DCFF0028ECD138BD0000602602007C
:1075E00038B500B101200D490A6892F8784084420C
:1075F00010D121460AA0FDF717FC66208DF8000087
:1076000001208DF801008DF802400321684603F047
:107610003BF838BD82F8780038BD00003424020001
:107620004254535441434B5F4556454E545F444981
:1076300053434F56455241424C455F454E41424CA3
:1076400045442025750000002DE9FF4FDFF8A8A074
:1076500085B00024DAF80020DDE912691268DFF84D
:1076600094808B460A2000EB061153692746B8F830
:10767000000003AA9847050001D001210FE0562021
:1076800009B0BDE8F08F00BF04EBC40219F8122066
:10769000521E01FA02F03843641CC7B2E4B2B4428D
:1076A000F2D3DDE907018DE883005B46D8F80410CA
:1076B0002846059A02F030FFC7B200240DE000BF53
:1076C00004EBC40109EB4101891CE8191022FCF705
:1076D00029FE1037641CFFB2E4B2B442F0D3DAF8EA
:1076E0000010404681F840B02946039A03F00AFC96
:1076F0000020C5E7A02702003424020002480068E9
:1077000090F87A00704700003424020004490968A8
:1077100051F8BC2F02604A684260896881607047F6
:1077200034240200064A0028106804D0D0F83A2019
:107730000A60C08F02E0426B0A60008F8880704749
:107740003424020010B50146024803F041F8C0B2EB
:1077500010BD0000E0260200034909684A6B026080
:10776000098F8180704700003424020010B5044660
:10777000014604A0FDF758FB022C01D9012010BDE1
:10778000002010BD6761705F6D69746D5F70726F0E
:1077900074656374696F6E5F726571756972656433
:1077A0005F666F725F73656375726974795F6C652C
:1077B00076656C20257500007FB50DF1200CBCE8C6
:1077C00070008DE8780013460A460146024802F030
:1077D000FFFF04B0C0B270BDA827020010B5024878
:1077E00002F0F6FFC0B210BDB027020010B501468E
:1077F000024802F0EDFFC0B210BD0000B827020041
:107800000448417A012903D10221417217F052BD87
:107810007047000074010020074810B5426D40F227
:1078200082210648FFF7E0F80448FFF7AFF8BDE80B
:107830001040FFF7E5BF000074010020A0540020B5
:1078400010B5002207490848FFF7E6F8074840F25C
:107850008221426D0448FFF7C7F8BDE81040024896
:10786000FFF794B819780000A0540020740100209C
:1078700010B5024802F0ACFFC0B210BDA82602004D
:1078800010B5024802F0A4FFC0B210BDD827020014
:1078900010B50146024802F09BFFC0B210BD0000C7
:1078A0002827020010B50146024802F091FFC0B23D
:1078B00010BD00008026020010B50146024802F00B
:1078C00087FFC0B210BD0000E826020010B50146D7
:1078D000024802F07DFFC0B210BD000098260200F1
:1078E00010B50246024802F073FFC0B210BD00009E
:1078F000C82602002DE9F0410E46074602F016FEAA
:10790000040010D0384600F047F8054602463146DC
:107910000AA0FDF789FAB54207D329463846BDE8E3
:10792000F04102F003BF0121F8E76675608A40F07C
:1079300020006082BDE8F04103F0AEB96761705F7E
:10794000726571756573745F736563757269747957
:107950005F6C6576656C2025752C20637572726589
:107960006E74206C6576656C2025750010B5014637
:10797000024802F02DFFC0B210BD000068270200CF
:1079800013460A4610B50146024802F021FFC0B274
:1079900010BD0000C827020010B502F0C7FD18B1E5
:1079A000BDE8104000F002B8012010BD10B1008BFE
:1079B000000401D401207047022070470220704764
:1079C000084B10B51B68C0EBC0021A440B6842F8A4
:1079D000843F8B8893800A460146034802F0F8FEF4
:1079E000C0B210BD342402004027020000B10120C3
:1079F0000249096881F87A007047000034240200C7
:107A00000149096808637047342402000449026888
:107A1000096841F8BC2F42684A60806888607047F6
:107A20003424020013460A4610B50146024802F00B
:107A3000CFFEC0B210BD00003027020008B50B46D3
:107A4000009202460021024800F074F808BD0000D0
:107A5000502702002DE9FC4791461B4A194F8846E2
:107A6000126804460221126801EB880138885369C4
:107A700001AA9847060007D043462246796802F0DB
:107A80004BFDC5B2002414E05620BDE8FC8700BFC2
:107A900004EB440009EB40010A7900924B8819F885
:107AA0001020701909A102F037FD2D1D641CEDB2E4
:107AB000E4B24445ECD331463846019A03F022FA49
:107AC0000020E2E760270200342402003132310056
:107AD0002DE9F04F8DB0DFF854C0DDE91F89DDE9F5
:107AE0001BBADCF800C0DDE91D56C0EBC0076744D7
:107AF000DDF868E0179C87F8834008AFA7E86003CB
:107B0000DDF864C0CDE906BACDE904CE169E189D15
:107B1000CDE9003613460A4601460548CDE902453F
:107B200002F056FE0DB0C0B2BDE8F08F3424020062
:107B3000482702002DE9FC471C460A9D1746884647
:107B40008146F72B28D9F720CDE900050B46012205
:107B50003946484602F03CFE10F0FF0025D1F73CC4
:107B6000A4B2F73516E0F72C01D3F72600E026463D
:107B7000A01BCDE900650404240C01D0002200E024
:107B8000022243463946484602F022FE10F0FF002A
:107B90000BD13544002CE6D14346032239464846F2
:107BA000CDE9004502F014FEC0B2BDE8FC8700003C
:107BB00008B5009313460A460146024802F008FE43
:107BC000C0B208BD982702002DE9FC4716460F46B3
:107BD00002EB8601244ADFF88C80994612688246BF
:107BE00000241268C91CB8F80000536901AA98471C
:107BF000050002D0002001220DE05620BDE8FC87E0
:107C000000EB400319F813305B1E02FA03F1214325
:107C1000401CCCB2C0B2B042F2D300943B465246B4
:107C20002846D8F8041002F077FCC7B200240FE011
:107C300004EB440109EB41008188009143884278BC
:107C4000E8190AA102F068FC7F1D641CFFB2E4B2CF
:107C5000B442EDD329464046019A03F053F900207F
:107C6000CCE70000902702003424020031323200B9
:107C700008B50B460092024600210248FFF75AFF62
:107C800008BD0000582702000A4610B50146024808
:107C900002F09EFDC0B210BDD82602002DE9F843C7
:107CA0001A4F15460C468046F82925D90146F82377
:107CB00001223846009502F08BFD10F0FF0023D121
:107CC000F83CA4B2F83515E0F82C01D3F82600E012
:107CD0002646A01B0404240C009501D0002200E0DD
:107CE000022233464146384602F072FD10F0FF0092
:107CF0000AD13544002CE7D12346032241463846B9
:107D0000009502F065FDC0B2BDE8F883802702004F
:107D10000A4610B50146024802F05AFDC0B210BD35
:107D20008827020008B5009313460A460146024818
:107D300002F04EFDC0B208BD782702001CB5049CBD
:107D4000CDE9003413460A460146024802F040FDE0
:107D5000C0B21CBD38270200054902680968C1F895
:107D60003A208288CA870146024802F031BD0000ED
:107D700034240200A02602000249096881F841006B
:107D800070470000342402000B4900B50A6892F8DD
:107D90004C20C2F3C00262B1096891F8411041B1B0
:107DA00002F0C4FB28B1807CC0F3800008B1012040
:107DB00000BD002000BD000034240200F0B587B0F3
:107DC000DDE90C45DDE90E67DDE910CE8DE81840F0
:107DD000CDE9057C13460A46CDE903560146034822
:107DE00002F0F6FC07B0C0B2F0BD0000382402007B
:107DF0007FB50DF1200CBCE870008DE878001346CB
:107E00000A460146024802F0E3FC04B070BD0000DF
:107E1000D02602002DE9F0478AB01E461546884656
:107E200004280AD0082875D128781B280FD01D28CF
:107E300008461FD001F03EF81EE02978782969D164
:107E4000FA494C68002C50D04146A0474DE0B5F8A7
:107E500001700C46EA1CDE1E3946A72015F0BEFE56
:107E60000246F61C0AB0B3B239462046BDE8F047D8
:107E7000FFF70BB814F0A0FF04004BD02978771E51
:107E80004FF001090D297CD009DC0C2915D2DFE85F
:107E900001F014FA143114F914F8146414CE1729EB
:107EA00070D006DC0F296ED0112934D0132904D1EB
:107EB00047E1192968D01D293CD0DDA0FCF7B3FFAC
:107EC00028788DF808908DF80900002006218DF89B
:107ED0000A008DF80C108DF80B0000900190A0891D
:107EE000052302AA042104F0B5FC0AB0BDE8F0475E
:107EF00000F0A2BCB5F8015004F076F9854200D23A
:107F00002846E08284F81890A28901461046FCF7C2
:107F10001BFDEAE7DDE120780228E6D1324629465A
:107F2000204615F07DFD69782046711A294401220A
:107F30004988A3E04746B5F80180EA1CF61E414691
:107F4000A82015F04BFE0246F61CB3B24146384657
:107F5000FEF79BFF84F85190C7E720780C2820D0CB
:107F600016DC062801D00828BFD132462946204613
:107F700015F009FD3146284600F0A6FF01462046CF
:107F800003E0E6E013E16DE145E118F0ABFBACE79F
:107F9000142832D02428A8D16888A4F84C002520C1
:107FA00037E195F80180B8F1070F07D26888A085FE
:107FB000A8882086E88860860D202AE1022715E03F
:107FC000E91935F807904A8822868A886286C98826
:107FD00001A818F06BFC01A80090638E228E494620
:107FE0002046FEF786FF07EB080087B2B742E7D3CB
:107FF00069782046711A695A3FE095F8018000219E
:108000000227A8F1020A0DE035F80790EA191FFAD5
:108010008AF3921C4946204615F0A6FC07EB08009F
:10802000494687B2B742EFD32046132226E0207894
:108030000E2814D0102827D028288DD1204600F0F3
:108040007DFA218F6A1CA92015F0C8FD0246083769
:10805000BBB2A189A068FEF70FFF002135E101A99D
:10806000681C15F01BFDA18D01AA00922046638EAD
:10807000228EFEF73EFFA18D20460B2218F052FB08
:1080800033E70BE022E0F7E0204600F057FABBB2FE
:10809000218F6A1C204615F067FCDEE74FF00409CB
:1080A0004FF6FF78012704F11C0A09E0E819E95BA3
:1080B00040885346804602462046FEF73BFF4F4429
:1080C000B742F3DB204641460322D7E7687804270E
:1080D000022800D11227F01B35F800A0AD1CB61EF7
:1080E0001FFA86F8002621E035F80690042F05EBEC
:1080F000060021D0801C06A915F0D0FCA4228DF822
:10810000002014228DF80120A289ADF8022006A9D2
:10811000ADF8049010220DF10600FCF703F9A189D7
:1081200016236A46A068FEF7A7FE3E444645DBDB01
:10813000204651460922A1E7418806A818F0B6FB5F
:10814000DCE72078182803D0262801D02C2897D1E6
:10815000AAE0761E2078B6B2761DBFB2122815D0DE
:108160002A288DD1218F628F6B1CAA20009715F0D1
:1081700043FD020004D0B3B2A189A068FEF77CFEE3
:108180003A462921204618F095FAAEE6218F628FF3
:108190006B1CA620009715F02FFD020004D0B3B28F
:1081A000A189A068FEF768FE3A461121EAE7207827
:1081B0001A2812D01C281CD02E2814D03228E4D122
:1081C000204600F0BBF932462946204603F04AF823
:1081D00000287FF462AF7E2177E0B5F803001D220E
:1081E0006087192110E0B5F803002F2260872D2148
:1081F0000AE032462946204603F034F840B1B5F88B
:1082000003001D2260871B21204618F07AFA6CE6D5
:108210002120207069E620781E2845D0202843D0F0
:1082200022281BD03028B0D13EE00000E80000201A
:108230004154542048616E646C65722C20756E68E0
:10824000616E646C656420726573706F6E73652017
:10825000747970652030782530327800204600F03F
:108260006DF9B8E7207816288FD1BBB26A1C0021BF
:10827000204615F079FB17E029790A2910D12078DA
:10828000082815D006DC02280ED004280CD00628B9
:1082900006D10DE00A2807D00C2805D014280CD0F0
:1082A000204600F0B8FA20E6204600F047F9D4E670
:1082B000E18D2046FEF78CFCF6E7204600F03EF903
:1082C000A08D218E8842F2D10A212046FEF7FEFDC4
:1082D0000BE60AB0BDE8F08710B50446084614F076
:1082E0009FFD18B1017819B1952010BD562010BD21
:1082F0001F218460017000F09FFA002010BD70B54E
:1083000005461446084614F08BFD18B1017819B1E2
:10831000952070BD562070BD6188A288914203D11E
:108320000021FEF7D3FD09E085606188491C818545
:10833000A188C1850921017000F07EFA002070BD7E
:108340002DE9F04107461D4616460846DDF818801F
:1083500014F066FD040004D0207820B19520BDE81B
:10836000F0815620FBE7A760A685E585012084F80B
:108370005000002565831022414604F11C00FBF7E4
:10838000D1FFE5860720207000F056FA0020E6E7CE
:108390002DE9F04107461D4616460846DDF81880CF
:1083A00014F03EFD040004D0207820B19520BDE8F3
:1083B000F0815620FBE7A760A685E585012084F8BB
:1083C0005000A4F81A80414604F11C0018F06EFA1F
:1083D0000020E0860720207000F02EFA0020E6E75B
:1083E00070B506461C461546084614F019FD18B12E
:1083F000017819B1952070BD562070BD86608585C5
:10840000C485002180F85010C1860521017000F05C
:1084100013FA002070BD10B50446084614F000FDA4
:1084200018B1017819B1952010BD562010BD012159
:10843000846081854FF6FF72C285017000214183FF
:1084400000F0FAF9002010BD70B505461646084642
:1084500014F0E6FC040003D0207818B1952070BD1C
:10846000562070BD0120A560A0854FF6FF70E08505
:10847000002060831022314604F11C00FBF752FFFC
:108480000320207000F0D8F9002070BD70B50546BB
:108490001446084614F0C4FC18B1017819B19520AF
:1084A00070BD562070BD0121856081854FF6FF713A
:1084B000C18503210170448321461C3018F0F6F970
:1084C00000F0BAF9002070BD10B50446084614F05B
:1084D000A7FC18B1017819B1952010BD562010BD28
:1084E0001D218460017000F0A7F9002010BD70B557
:1084F00006461C461546084614F092FC18B1017851
:1085000019B1952070BD562070BD86608585C485E3
:108510000B21017000F090F9002070BD10B50C46E1
:1085200014F04AFC10B1017E012903D017202080ED
:10853000952010BDC08A2080002010BD10B50021FC
:108540000170044681890448FCF76DFC04F1600069
:10855000BDE81040FEF72ABA0C24020070B50428CA
:1085600017D11078052810D1B2F80350284600F032
:10857000A1FC040009D01F2100F04DF9054900209D
:1085800041F825002046FEF715F9BDE8704000F0DF
:1085900053B970BD504A0020074910B5002008703B
:1085A000083106484860084601F09CFEBDE81040CE
:1085B0000348FDF7F5B90000E80000205D850000E4
:1085C000157E000010B514F0F7FB002802D00078EB
:1085D00008B1002010BD012010BD70B504461D4635
:1085E0000E46104600F066FC002807D06660258124
:1085F0002146BDE87040001DFEF776B870BD2DE93C
:10860000F0410646DDE906781C461546084614F09A
:1086100007FC20B1017821B19520BDE8F0815620FA
:10862000FBE786600587878744873121C0F8408053
:10863000017000F001F90020EFE70000014901207E
:1086400008707047E800002070B5054614460846DB
:1086500014F0E6FB18B1017819B1952070BD5620D1
:1086600070BD856004872721017000F0E5F80020C7
:1086700070BD0023AFF3008070B506461C4615465A
:10868000084614F0CDFB18B1017819B1952070BDE2
:10869000562070BD8660058744872921017000F04F
:1086A000CBF8002070BD0023AFF3008070B5064604
:1086B0001C461546084614F0B3FB18B1017819B1F1
:1086C000952070BD562070BD8660058744871121B6
:1086D000017000F0B1F8002070BD70B506461D466F
:1086E0001446084614F09CFB18B1017819B1952086
:1086F00070BD562070BD8660A0F844401521856489
:10870000017000F099F8002070BD70B50546144660
:10871000084614F085FB18B1017819B1952070BD99
:10872000562070BD85600487002141870F210170AC
:1087300000F082F8002070BD2DE9F04107461D468B
:1087400016460846DDF8188014F06AFB040004D0D1
:10875000207820B19520BDE8F0815620FBE7A76086
:10876000A685E58526866586002060831022414621
:1087700004F11C00FBF7D6FD1320207000F05CF81C
:108780000020E8E72DE9F04107461D461646084659
:10879000DDF8188014F044FB040004D0207820B1E8
:1087A0009520BDE8F0815620FBE7A760A685E5850A
:1087B00026866586A4F81A80414604F11C0018F04C
:1087C00075F81320207000F037F80020E9E700006A
:1087D0000149486070470000E80000202DE9F041A1
:1087E00006461C4615460846069F14F019FB20B1A4
:1087F000017821B19520BDE8F0815620FBE7866025
:1088000005878487002141871B210764017000F0E0
:1088100013F80020EFE770B5044600780D460028F5
:1088200008D02046FFF78AFE29462046BDE8704062
:10883000FEF74CBB70BD00002DE9F04F002689B05B
:108840004FF01E094FF0040A4FF0020B37464FF06D
:108850000808CC4850F82640002C79D0A089FDF7B4
:1088600099F890B12278217EC7A0FCF7DCFA94F841
:10887000510080B184F85170A08901238DF80890CF
:10888000009702AA0421019792E0A08909B0BDE8EF
:10889000F04FFDF782B82078172801D02B2818D187
:1088A000204614F09FF8A18FC01E884211DA20469E
:1088B00014F098F80246A18FC1A0FCF7B4FA204644
:1088C000FFF73CFE09B02046BDE8F04F0D21FEF752
:1088D000FDBA606D04F062F905462178C3A0FCF78B
:1088E000A2FA2078362833D2DFE800F09E1B9E25BE
:1088F0009E469E499E519E659E719E759E779E796D
:108900009EA39EB69EB89EBC9EBE9EC19EC39ECB9D
:108910009EED9ED39EDD9EE59EFE9EFC9EBA9EFB36
:108920009EFA84F800B0E08D0090A38DA2894FF4E8
:108930002051102048E084F800A0608B4FF42055AF
:1089400038B1ADF81C00E18D07AA8DE806080AE0F1
:108950006AE003A904F11C0015F0A0F8E08D1022D4
:1089600003A98DE80700A38DA28929460620FDF7FB
:1089700039F909B0BDE8F08F0620207001E084F8D5
:10898000008009B02046BDE8F04F15F0AAB884F881
:108990000080A589A18DE08D8DF808A0ADF80910A3
:1089A000ADF80B000097052302AA04212846019781
:1089B00003F050FFDDE70C202070E08D0090A38DC8
:1089C000A28942F602010820FDF755FBD1E70E20EF
:1089D0002070228E60E010205CE0122064E0142001
:1089E0002070618B204639B1C28D0092838DA2899F
:1089F0000820FDF740FB17E000F11C028489818DFF
:108A0000C08D8DF80880ADF80910ADF80B000DF1A0
:108A10000D01104615F042F80097152302AA042113
:108A20002046019703F016FF761C042EFFF411AFC9
:108A30009FE716202070A089B4F844200E23A16C73
:108A40008DF808304FF6FF7303EA4202CDE90012B9
:108A5000012302AA0421E5E718202DE01A2044E0B2
:108A6000322042E01C2040E084F8009046E02020C4
:108A700000E02220207009B02046BDE8F04F15F03C
:108A80002BB82420207009B02046BDE8F04F15F027
:108A900068B828202070228FA18909B00A20BDE87B
:108AA000F04FFDF7FDBA2A20207009B02046BDE83E
:108AB000F04F15F041B82C20207009B02046BDE8D9
:108AC000F04F15F059B82620207004F14E000090A8
:108AD000B4F84C20A18902231220FDF727FD48E7B6
:108AE00026E011E008E0FFE72E20207009B02046C4
:108AF000BDE8F04F15F005B83020207009B02046D1
:108B0000BDE8F04F14F0F8BF15F04CFB00288FD0F3
:108B100034202070A86D216C01AB0091394A15C337
:108B2000A38F228FD22105F1480015F045FB20E7E5
:108B300036202070A96DB4F80C90228FB4F83C80D8
:108B4000D223266C8DF81030ADF81120059104F178
:108B500058000DF1140A06A914F0ACFF0C20CDE961
:108B600002A0CDE90068032304AA0421484603F0CB
:108B7000B9FE27702046FFF7E1FCA86D401CA865F0
:108B8000F7E60000504A00202D2068616E646C6595
:108B90005F7065726970686572616C5F6C6973742F
:108BA0002C206D74752073746174652025752C20DC
:108BB000636C69656E74207374617465202575003B
:108BC000676174745F636C69656E745F72756E3A29
:108BD0002076616C7565206C656E202575203E20C1
:108BE0004D5455202575202D20330A00676174747B
:108BF0005F636C69656E745F73746174652025755D
:108C0000000000008D6400002DE9F04707461D4676
:108C1000164689460846DDF8208014F0CDF8044653
:108C2000007850B9484616F0ABF8014660650AA0D6
:108C3000FCF7F9F8606D002802DA9520BDE8F087AE
:108C4000A7602687A5873320C4F840802070FFF7EF
:108C5000F3FD0020F2E700006C655F6465766963F0
:108C6000655F6B6579206973203A307825780A0052
:108C700070B50A4E0546002456F82400A84207D1D4
:108C8000A98907A0FCF7CFF87F212846FFF7C3FD8D
:108C9000641CA4B2042CEFD370BD0000504A002025
:108CA0004741545420636C69656E742074696D6526
:108CB0006F75742068616E646C652C2068616E64E9
:108CC0006C65203078253032780000002DE9F041C5
:108CD00006461C4615460846069F14F0A1F820B12A
:108CE000017821B19520BDE8F0815620FBE7866030
:108CF00005878487002141872B2107640170FFF7D6
:108D00009BFD0020EFE770B506461D461446084659
:108D100014F086F818B1017819B1952070BD56206D
:108D200070BDE90704D0A179C90601D4982070BDAF
:108D3000A90704D5A179890601D4992070BD866060
:108D400061888185A188C185A0F84E5023210170DA
:108D5000FFF772FD002070BD1CB5049CCDE9003406
:108D6000002300F001F81CBD2DE9F0410646DDE9C5
:108D700006781C461546084614F052F820B10178D2
:108D800021B19520BDE8F0815620FBE7866005877C
:108D9000878744872D21C0F840800170FFF74CFD84
:108DA0000020EFE71CB5049CCDE90034002300F05F
:108DB00001F81CBD2DE9F0410646DDE906781C46A8
:108DC0001546084614F02CF820B1017821B1952001
:108DD000BDE8F0815620FBE78660058787874487DA
:108DE0001921C0F840800170FFF726FD0020EFE751
:108DF0002DE9F04106461C4615460846069F14F02C
:108E00000FF820B1017821B19520BDE8F0815620FE
:108E1000FBE7866005878487172107640170FFF7E9
:108E20000BFD0020F1E7F8B51E4615460F4613F07E
:108E3000C3FF040003D0207818B19520F8BD562058
:108E4000F8BD204613F0CEFDC01EA84201DA9720DF
:108E5000F8BD0096A1892B463A465220FDF766FBE5
:108E6000C0B2F8BDF0B5002423460125C65C00223F
:108E700005FA02F73E4207D08C4203D102EBC30051
:108E8000C0B2F0BD641CA4B2521CD2B2082AEFD307
:108E90005B1CDBB2052BE9D3FF20F0BD10B580B21F
:108EA00013F0ECFD17F050FA0028FBD1BDE810409C
:108EB00017F03EBA042803D2024951F82000704747
:108EC00000207047504A00204278891A0844B0F8C0
:108ED000030070472DE9FC41164C18271E46D4F8B4
:108EE00008C0BCF1000F11D04978D9B12178002514
:108EF00079B1FCF7F1FC237862882570658002B0B7
:108F000039463046BDE8F04114F06EBE032300221E
:108F1000F5E7002300950195B0F8060102221946F5
:108F2000E04701E0FCF7D8FC192030700120BDE8D3
:108F3000FC810000A40000202DE9FF4F87B01D46F2
:108F4000DDE914738946824600264FF0060B0124A2
:108F5000B0463A4629463248FBF762FFBD4204D884
:108F60001DB1DAF82401009046E0012351E0684683
:108F7000FCF762FFBDF8080008B1A8423CD3B84234
:108F80003DD8CEB158B14FF420516846FCF79DFF53
:108F900028B942F601016846FCF797FF60B14146E7
:108FA00020A0FBF73DFF29F80480A41CA4B2099976
:108FB0000026201D884222D8BDF808005FEA00087C
:108FC0001AD068461599FCF780FFA8B1BDF81020AB
:108FD0001698824210D105991798FBF7DCF958B919
:108FE000BDF8081016A0FBF71BFFBDF8081029F804
:108FF0000410A41CA4B2012600980028B7D1012CAB
:1090000006D0072189F8001020460BB0BDE8F08F8C
:109010000A232A465946484614F0E6FDF5E70000C3
:1090200060220200456E64206F662067726F757063
:109030002C2068616E646C652030782530347800AF
:10904000426567696E206F662067726F75702C20AD
:1090500068616E646C6520307825303478000000DB
:109060002DE9F04F87B09346109F884681461E46F3
:109070004FF0040A012400253A46194628A0FBF7C0
:10908000CFFEBE4204D81EB1D9F82401009033E0CF
:1090900001233EE06846FCF7CFFEBDF8080070B340
:1090A000B8422CD8B04227D3BDF80610880501D5A8
:1090B000102000E00220012C02D9A84221D109E0B1
:1090C00008D10546880501D5022100E0012188F874
:1090D000011002246019801C584510D8BDF80810F2
:1090E00028F80410A41CA4B208EB04002A46039933
:1090F000FBF718F9601984B200980028CAD1012C36
:1091000006D0052088F80000204607B0BDE8F08FA3
:109110000A2332465146404614F066FDF5E700004A
:109120004154545F46494E445F494E464F524D416B
:1091300054494F4E5F524551554553543A2066723B
:109140006F6D202530345820746F2025303458003E
:109150002DE9F04F2C4C8346B1F80150B1F803A033
:10916000A06889B0984691460E46162758B12A46FF
:1091700002A95846FCF74DFD38B1BDF80E000107B5
:1091800001D5C00503D403231DE001231BE002A980
:109190005846FDF799F908B1034614E0A9F1050016
:1091A000711D80B2CDE90010D4F808C0BBF80601EB
:1091B000534601222946E04710F0FF0319D0072B40
:1091C00009D00D2B07D02A463946404614F00CFD35
:1091D00009B0BDE8F08F0D2B02D0072B06D008E0B8
:1091E00020780D2805D02370658002E020780028C3
:1091F000F9D04A4631464046FBF794F8172188F8E3
:1092000000104846E4E70000A40000202DE9F043E8
:1092100087B016460E9D0C46074699464FF00C083F
:109220002A46194621A0FBF7FBFD4A4601A938460C
:10923000FCF7EFFC28B1BDF80A00800703D4022335
:1092400007E0012305E001A93846FDF73DF90300D9
:1092500007D04A464146204614F0C6FC07B0BDE898
:10926000F083B7F8061101A8FDF718F9BDF814004E
:10927000A84201D20723ECE7401C401BB04203DDAB
:109280007019401EADF81400B7F806010090BDF843
:109290001400621C401B83B2294601A8FCF758FB4E
:1092A000401C0D2180B22170D8E700004154545F6A
:1092B000524541445F424C4F425F524551554553E0
:1092C000543A2068616E646C6520253034782C2017
:1092D0006F66667365742025750000002DE9FF4FE9
:1092E00089B00024DDF858901020CDE906041E4610
:1092F0008A460125A0460894A3464A46314643487B
:109300000B9BFBF78DFD4E4513D896B1DDE9170792
:10931000022810D0384601F085FF40B1B7F80C00A4
:109320004FF42057B84208D0791C884205D010234A
:1093300066E0012364E03888F2E70998D0F8240158
:10934000009050E06846FCF777FDBDF8080008B1D2
:10935000B04248D3484549D8B8F1000F23D050B1A6
:1093600039466846FCF7B1FD28B942F60101684666
:10937000FCF7ABFDB8B108992AF80510AD1CA8B2EE
:109380002AF800B0801C85B20AEB0500221F07995D
:10939000FAF7C8FF2819001F85B20B9829194FF05A
:1093A0000008814222D8BDF808005FEA000B1AD0FD
:1093B000DDE917216846FCF763FDA0B1BDF8100098
:1093C000001D80B2012D02D9A04211D104E003D1C9
:1093D00004468AF801000225BDF8080008900598A7
:1093E0004FF00108079000980028ABD1012D06D05E
:1093F00011208AF8000028460DB0BDE8F08F0A233E
:1094000032465046069914F0EFFBF5E7A822020019
:109410002DE9FF4F87B08846149F81464FF0000A20
:109420001D464FF0080B012456463A4619463DA00A
:10943000FBF7F6FCBD4204D81DB1D9F82401019018
:1094400058E0012362E001A8FCF7F6FCBDF80C002F
:10945000E8B3A8424ED3B8424FD8DDE9152101A8A0
:10946000FCF70EFDA0B3BDF80A00800703D47EBB55
:10947000BDF80C603EE001A94846FDF725F8030061
:1094800002D0012C3BD841E0B9F8061101A8FDF744
:1094900005F8BDF81400801C80B2012C02D9824569
:1094A0002DD104E003D1824688F8010002240998F6
:1094B00004EB0A01814207D9022C20D8001FADF825
:1094C0001400801C88F80100BDF80C1001E014E0C5
:1094D00010E028F80410B9F80601A41C0090A4B20A
:1094E000BDF8143008EB0402002101A8FCF730FAA3
:1094F000204484B201980028A5D1012C08D9092163
:1095000088F8001020460BB0BDE8F08F2A4602E034
:1095100036B1022332465946404614F065FBF2E765
:109520000A23F3E74154545F524541445F42595F77
:10953000545950455F524551554553543A2066722F
:109540006F6D202530345820746F20253034582C0E
:1095500020747970653A20002DE9FF4F87B0884666
:1095600083461F464FF00E090124194624A0DDF85A
:1095700050A0FBF755FC00253BE000BF3AF8156012
:109580005EB1324601A95846FCF743FB28B1BDF84D
:109590000A00800703D4022307E0012305E001A9A4
:1095A0005846FCF791FF030007D032464946404633
:1095B00014F01AFB0BB0BDE8F08FBBF8061101A840
:1095C000FCF76CFFBDF8140001190998814202D91B
:1095D000401EADF81400BBF806010090BDF8143031
:1095E00008EB0402002101A8FCF7B2F9204484B280
:1095F0006D1CBD42C2DB0F2188F800102046D9E760
:109600004154545F524541445F4D554C5449504C70
:10961000455F524551554553543A206E756D20684B
:10962000616E646C65732025750000002DE9F043C0
:1096300087B015460C46064699464FF00A081A466A
:1096400001A9FCF7E6FA074649461BA0FBF7E8FB31
:109650002FB1BDF80A00800703D4022307E00123DD
:1096600005E001A93046FCF72FFF030007D04A466A
:109670004146204614F0B8FA07B0BDE8F083B6F8CA
:10968000061101A8FCF70AFFBDF81400401CA8420F
:1096900002D96D1EADF81450B6F806010090BDF861
:1096A0001430621C002101A8FCF752F9401C0B2168
:1096B00080B22170E0E700004154545F52454144BC
:1096C0005F524551554553543A2068616E646C654C
:1096D00020253034780000002DE9F041154F8046F8
:1096E000B1F80150B86888B016460C4600281ED064
:1096F0002A4602A94046FCF78CFA002817D0BDF88C
:109700000E00C10513D5400711D502A94046FCF74C
:10971000DBFE00280BD1F61EE41CB0B2CDE9004000
:109720000023BC68B8F806011A462946A04708B0CD
:10973000BDE8F081A40000202DE9F047B1F8015008
:1097400088B090460C461E4681464FF0120A2A46C3
:1097500002A9FCF75EFA50B1164FB86828B1BDF8FF
:109760000E00010701D5C00503D4032316E0012331
:1097700014E002A94846FCF7A7FE03000ED1A8F1A9
:10978000030080B2E41CCDE90040BC68B9F80601D2
:109790001A462946A04710F0FF0307D02A46514633
:1097A000304614F021FA08B0BDE8F087132030707D
:1097B0000120F8E7A4000020AFF300802DE9F0417C
:1097C0001E4F002600F1130497F824103546491C5B
:1097D00087F82410017CB9B1012923D0032917D0BF
:1097E000042925D040F2931215A10020FCF76AF855
:1097F0000E202070E81C607097F82400A070A4F878
:109800000360681DBDE8F08180681149183804E0E4
:1098100080681049A0F54030293801EBC000468827
:109820004578E5E780680C49A0F580301338F4E707
:1098300080680A49A0F58020801EEEE78459002048
:10984000626C655F686369635F6D73672E630000B8
:10985000F42E0200942F0200943002006C310200BA
:109860002DE9F0411F4F054600F1120497F824003E
:109870000026401C87F82400287CC0B1012820D095
:10988000032817D0042824D040F2473216A1002024
:10989000FCF718F80F20207004206070287EA0705C
:1098A00097F82400E070A6800620BDE8F0811249F8
:1098B000A86801E01149A86801EBC00030F8BE6C4F
:1098C000E8E70F49A86801EBC000A0F50020963832
:1098D00006E00C49A86801EBC000A0F500100E38A6
:1098E0000688D7E784590020626C655F6863696306
:1098F0005F6D73672E630000F42E0200942F020048
:10990000943002006C3102001A2101750121417569
:109910000320704710B5837E4FF6FF7404EA0333CB
:10992000048B016AC4F30B04828B23438B82808BEC
:10993000C882101D10BD052282750422C275428B9B
:10994000A0F81920017FC176062070470423017812
:10995000002200F045B8000010B50488A0F11801FD
:10996000042C04D2012202EB0422CA6013E0084650
:1099700012F07AFA062301220521094812F060FB51
:109980000849B1F8382191F83A1142EA8121018061
:10999000022181708480BDE8104012F0B1BC00004B
:1099A0002800010084590020FF21C170002181712D
:1099B00012F0A6BCFF2101710021817112F0A0BC40
:1099C000FF21417000218170FFF7EEBF0423018861
:1099D0001A4600F005B8FF21C170FFF7EBBF000089
:1099E00070B5044618381546994207D242EA01215B
:1099F000C1602046BDE8704012F082BC12F034FA1B
:109A000006484222B0F8381190F83A0141EA802025
:109A100081B22846BDE8704000F006BB84590020A2
:109A2000082282750422C275428BA0F81920017F9A
:109A3000C17606207047302181750321C17500F180
:109A40001901408B08800520704700F0C8BB00F06A
:109A5000C5BBF0B58FB0044610F8011B8DF800109F
:109A600001788DF8011041788DF8021050F8021F2E
:109A7000CDF803108188ADF8071000228579C01D4C
:109A8000114601276B4607FA01F62E4205D002EB7C
:109A900002161E44521C7172D2B2491CC9B202296C
:109AA000F1D9002515E005EB0511194406884E8112
:109AB00046888E818688CE81C6880E8206894E822F
:109AC00046898E828689CE82C68910306D1C0E83AF
:109AD000EDB29542E7D3032005E002EB02111944F1
