:020000040000FA
:1040000000F000202942000045420000CD400000A1
:10401000494200004B4200004D42000000000000F9
:1040200000000000000000000000000085410000CA
:104030005142000000000000C54100009D4D0000FD
:1040400065D701009DD7010065D9010057420000E6
:1040500071D901007DD9010089D9010057420000C2
:104060005742000095D90100574200005742000016
:104070005742000057420000A1D90100ADD901000C
:10408000B9D90100C5D90100D1D90100DDD901009C
:1040900057420000574200005742000057420000BC
:1040A0005742000057420000F1D90100574200007A
:1040B0000100070800600200DFF80CD000F046FBAA
:1040C0000048004769CB010000F000201EF0040FFB
:1040D0000CBFEFF30880EFF3098081694EF29D1267
:1040E000C0F20102104730B5804730BD00BF00006C
:1040F0002DE9FF5FEFF31080EFF31181EFF31282F0
:10410000EFF313830FB447F2B060C2F200001A4914
:104110000160EFF30881EFF30982EFF31483EFF30B
:10412000038441608260C36004611448016841F007
:104130000101016044F6206000BF401EFCD1104820
:1041400041688268C368046981F3088882F309883A
:1041500083F3148884F30388BFF34F8FBFF36F8F0B
:104160000FBC80F3108881F3118882F3128883F3E7
:104170001388BDE8FF5F70473F410000040309401A
:10418000B0760020214B19680868B0E8F00F80F382
:104190000988BFF36F8F4FF0000080F311884EF055
:1041A0000D0E7047000000000548006880F3088885
:1041B00062B661B6BFF34F8FBFF36F8F00DF00BFF2
:1041C00014000020EFF30980BFF36F8F0F4B1A68C4
:1041D00020E9F00F106008B54FF0200080F311883F
:1041E000BFF34F8FBFF36F8F1EF01CFA4FF000002C
:1041F00080F31188BDE8084019680868B0E8F00F3E
:1042000080F30988BFF36F8F704700BF280000203C
:10421000EFF305807047000040BA704740BA70471E
:10422000C0BA7047C0BA70470B48016811F0010F5F
:104230001CBF21F00101016002D00848006800475E
:1042400007480047FEE7FEE7FEE7FEE7FEE7FEE77A
:10425000FEE7FEE7FEE7FEE764010440B0760020DB
:10426000B94000002DE9F05F0546002092469B46CC
:1042700088460646814640241BE02846414647467C
:10428000224600F09EF853465A46C01A914110D378
:1042900011461846224600F085F82D1A67EB0108F2
:1042A0004F4622460120002100F07CF817EB000960
:1042B0004E41201EA4F10104DFDC484631462A4667
:1042C0004346BDE8F09F00000649074A086850438E
:1042D00043F2390210440860400870470149086001
:1042E00070470000380400206D4EC64110B5431AD7
:1042F000934209D28318881803E010F8011D03F8CF
:10430000011D521EF9D210BD40EA01039B0703D0E4
:1043100009E008C9121F08C0042AFAD203E011F804
:10432000013B00F8013B521EF9D210BDD2B201E0B0
:1043300000F8012B491EFBD270470022F6E710B5AA
:1043400013460A4604461946FFF7F0FF204610BD03
:10435000421C10F8011B0029FBD1801A704730B5B0
:1043600004460020034600E05B1C934203D2E05C5D
:10437000CD5C401BF8D030BD30B50B460146002067
:104380002022012409E021FA02F59D4205D303FA17
:1043900002F5491B04FA02F52844151EA2F1010298
:1043A000F1DC30BD202A04DB203A00FA02F10020C3
:1043B00070479140C2F1200320FA03F31943904063
:1043C0007047202A04DB203A21FA02F000217047CE
:1043D00021FA02F3D040C2F120029140084319466D
:1043E00070472DE9FE4F804681EA0300C00F0C465E
:1043F000009021F0004123F00045B8EB0200A941F4
:1044000005D24046214690461C460B46024623F004
:104410000040104304D14046214603B0BDE8F08F70
:10442000270DC7F30A00C3F30A510290401A019006
:10443000402866DAC3F3130040F4801B00989246CC
:1044400020B10023D2EB030A63EB0B0B0198594612
:10445000C0F140025046FFF7A5FF06460D46504604
:104460005946019A00F084F910EB080061410024DC
:1044700087EA115284EAE7731A433BD0009A3AB3B1
:10448000019A012A4FEA075210DC001B61EB02017E
:104490004FF0004202EA0752CDE90042001C41F50C
:1044A000801132462B4600F082F9B6E7001B61EB23
:1044B0000201001C41F5801300185B412018A2F591
:1044C000001747EB030140EAD570B6196D4111E0C2
:1044D0006D084FEA360645EAC0754FEA0752001BE1
:1044E00061EB0201001C41F5801149084FEA3000E0
:1044F0000019514132462B4603B0BDE8F04F00F0A1
:1045000049B90098012240000023D0EB020263EB7E
:10451000E073009821464FEAE074B8EB000061EBCD
:104520000401E9E783F000435BE781F0004158E7CD
:104530002DE9FE4F81EA030404F0004421F000411C
:1045400000944FF0000B23F0004350EA010402D026
:1045500052EA030404D10020014603B0BDE8F08F05
:10456000C3F30A54C1F30A552C44A4F2F334019462
:10457000A0FB0254C1F3130141F48011C3F31303F0
:1045800043F4801301FB024400FB034E840A970AA4
:1045900044EA815447EA8357A4FB076802958D0AD1
:1045A00005FB07854FEA932C04FB0C542705029D5D
:1045B0004FEA065847EA1637B5EB08056EEB070CCD
:1045C000870E920E47EA811742EA8312A7FB020187
:1045D000B6EB0B0164EB00042B0D43EA0C335E18C1
:1045E00044EB1C50DA465146E7FB0201C5F31304C5
:1045F0004FEA0B3343EA14534FEA0432019C43EA77
:104600000603A4F10C040294009CCDE900B400F070
:10461000CEF8A2E72DE9F04D81EA030404F0004B47
:1046200021F0004514464FF0000A23F0004150EA03
:10463000050220D054EA01021DD0C5F30A570246F4
:10464000C5F31303C1F31300C1F30A5640F48015F8
:1046500043F48013A7EB0608101BD64608F2FD387A
:1046600073EB050002D308F1010801E092185B41E9
:10467000B8F1000F03DA00200146BDE8F08D0020FC
:104680004FF48011064684460EE0171B73EB0507B6
:1046900005D3121B63EB050306434CEA010C4908E2
:1046A0004FEA300092185B4150EA0107EDD152EA1F
:1046B000030012D082EA040083EA0501084303D113
:1046C00000224FF0004308E0101BAB4102D2012250
:1046D000002302E06FF0010253101AEB06004CEBCE
:1046E000085110EB0A0041EB0B01BDE8F04D00F062
:1046F00051B8C1F30A52C1F3130140F2FF3341F440
:1047000080119A4202DA00200146704740F233439A
:104710009A42A2F2334202DC5242FFF752BEFFF746
:1047200041BE000030B5002904DB4FF00044404298
:1047300064EB0101002B04DB4FF00044524264EBB8
:104740000303994208BF904230BD0000064C074D5C
:1047500006E0E06840F0010394E807009847103451
:10476000AC42F6D3FFF7ACFC4C5102006C51020096
:10477000202A06DBCB17203A41FA02F043EAE07325
:1047800006E041FA02F3D040C2F120029140084312
:104790001946704710B5002B08DA401C41F10001A2
:1047A00092185B411A4301D120F0010010BD2DE9A0
:1047B000F04D92469B4611B1B1FA81F202E0B0FA97
:1047C00080F220329046FFF7EDFD04460F4640EAA6
:1047D0000A0041EA0B0153465A46084303D12046DA
:1047E0003946BDE8F08D114653EA010015D0C8F1F5
:1047F00040025046FFF7E5FD05460E465046594635
:104800004246FFF7CFFD084301D0012000E0002021
:10481000054346EAE0762C4337430A984FEA44536F
:10482000A0EB08004FEAD4240A304FF0000244EA1B
:1048300047544FEAD72502D500200146D1E70105AC
:1048400010196941DDE9084500196941BDE8F04DDD
:10485000A0E770B501EB020410F8015B15F0070347
:1048600001D110F8013B2A1106D110F8012B03E009
:1048700010F8016B01F8016B5B1EF9D12B0705D411
:104880000023521E0FD401F8013BFAE710F8013B58
:1048900002F10202A1EB030303E013F8015B01F84C
:1048A000015B521EF9D5A142D6D3002070BD000095
:1048B00070B51349D1E9000105F0DCFD002001F0DD
:1048C000E5FE104C4FF0FF360F4D11E0207800064A
:1048D00004D50022114604201DF0AEF801F0F4FECC
:1048E0002078000604D50022114605201DF0A4F80A
:1048F000314628681EF0D6FB0028E7D170BD0000C5
:104900000439020020000020040000200348006851
:1049100010F0FF0F01D11DF03DBB704704ED00E02A
:104920000348006810F0FF0F01D11DF055BB704720
:1049300004ED00E010B5C368D9B280290FD98468AE
:10494000E06800B101204B2213A100F0C9FFE1682B
:1049500019B12069BDE81040084772B6FEE7044669
:10496000008A616982B2D8B2124B1B68984706F080
:10497000BFF900280FD1E068022806D004280AD128
:10498000A069BDE8104006F0ADB9A08BA169BDE8F3
:10499000104006F0A5B910BD4863695F696E746583
:1049A000726E616C5F7472616E73706F72742E637D
:1049B00000000000980100201FB5416899B1052949
:1049C00011D00A290ED10A4C1ECC8DE81E00C168F8
:1049D000019141690291008AADF80C0010216846EE
:1049E00005F09CFF1FBD04B0BDE81040FFF7A2BF5B
:1049F000D43F02002DE9FE4F044606F0A3F908B1AA
:104A0000002000E00220494E00278346B8464FF0C0
:104A10000109A6F1EC0A7CBB5920BDE8FE8FE38FAB
:104A200003B351B3431AA08E834200DC184685B20B
:104A300002EBC20000EB02120AEB82000144208E5E
:104A40007080B4F84A0040B3358004208DE823001C
:104A5000284482B25946608D334606F069FB47B25E
:104A6000D7BB25E032496FF0050081F8018081F85D
:104A7000009081F80380D0E724E0FFE7A18E8B1E31
:104A8000984201DD891E00E001468DB202EBC200B2
:104A900000EB02110AEB8101D1E7A81C308094F8E9
:104AA000430004EB4000B0F84600B0800620CDE79C
:104AB000B4F84A0001222844A4F84A0011462046CE
:104AC00000F054F894F84320B4F84A1004EB420084
:104AD000B0F846008142A2D394F84300B4F84A10DB
:104AE00004EB4000B0F8462091421CD14334A4F8B6
:104AF0000780A0F84680207800EBC00101EB001190
:104B00000AEB81006421FFF718FC21786078433CB0
:104B1000814204D1FF2043346070207003E029EA11
:104B2000010084F84300384677E70000946E0020C7
:104B3000CC00002010B590F820200B2A11D090F85E
:104B40004510012901D0002010BD07490023012490
:104B50004B700C70CB700A2A03D1C08D002106F077
:104B6000B1FF012010BD0000CC00002000290ED0B4
:104B700022B1C28F8A420BD3511A0AE0B0F840200A
:104B80008A4201D3511A00E00021A0F8401070477A
:104B90000021C187704730B500290FD000234FF6A0
:104BA000FF7462B1C28F1144B1FBF4F504FB15141C
:104BB000944213D8C387012180F8451030BDB0F866
:104BC00040201144B1FBF4F504FB1514944202D8C3
:104BD000A0F8403030BDA0F8401030BDC18730BDD6
:104BE0002DE9F0411E4613460D4602284AD1B5F87C
:104BF0004000254C4FF00108002730B322462178B1
:104C0000224892F90120012910442DD0324619463C
:104C1000FFF76CFB607830446070B5F84000401ED0
:104C2000A5F8400094F90100E178884227D183B2C9
:104C30006E68E98D154A0B20B047677084F80080D4
:104C4000E7702846FFF776FF0BE0677084F8008076
:104C5000E77095F820000A2803D1E88D002106F0BE
:104C600031FF0120BDE8F0811978E1702770B21E94
:104C7000991CFFF73BFB60783044801ECCE7284648
:104C8000FFF758FF0020EDE7CC0000208F6F0020D9
:104C9000074A131D5980116860F3070111601068FD
:104CA00040F40070106010688005FCD4704700006C
:104CB0000804094000F01F020121914040094FF013
:104CC000E02202EB8000C0F88012704700F01F0263
:104CD0000121914040094FF0E02202EB8000C0F832
:104CE0008011704700F01F020121914040094FF0F0
:104CF000E02202EB8000C0F80011704700F01F02B4
:104D00000121914040094FF0E02202EB8000C0F801
:104D1000001170474907090E002803DA00F00F0060
:104D2000024A00E0024A81547047000014ED00E09E
:104D300000E400E0024A114001430248016070476C
:104D400080FFFF1F08ED00E000B589B019F01EFEDE
:104D5000816803910021CDE9011004480B464A1EE9
:104D6000694600681DF022FE09B000BD0800002061
:104D7000014800F003B800006801044001460868DB
:104D80000A688242FBD10A688242F8D1704700006B
:104D900001490872704700003001002010B5202042
:104DA00080F31188BFF34F8FBFF36F8F1EF012FB9C
:104DB00018B104494FF080500860002080F311883A
:104DC00010BD000004ED00E00FB4054B10B503A9C1
:104DD000044A029800F0EAF810BC5DF814FB0000E9
:104DE000D17500003C0400200FB4084B10B504A995
:104DF00002AA039800F0DAF8044602A9002000F0A5
:104E000078FC204610BC5DF814FB0000F35600004F
:104E1000014B024A00F0CAB8D17500003C040020E2
:104E200070477047704770477047704770477047CA
:104E300002E008C8121F08C1002AFAD17047704763
:104E4000002001E001C1121F002AFBD170470000C1
:104E50002DE9FF5FDDE90220010DDDF838B00243E6
:104E600010D10F9801244CA2012808D000210098ED
:104E70000F9BC0E90021C0E90243BDE8FF9F6FEA34
:104E80000B01F4E7A1F2FF3144F6105041430D1439
:104E90000F9801280ED0A5EB0B00401C4FF000042A
:104EA0003E4EDFF8FC90B0F1000AA04605DACAF1E8
:104EB000000717E0CBF10000F0E7074612E0F80723
:104EC00007D02246334640464946FFF731FB80462D
:104ED00089462246334610461946FFF729FB044609
:104EE0000E467F10002FEAD1DDE90201BAF1000F72
:104EF00042464B4602DAFFF71BFB01E0FFF78AFB55
:104F000004460E460022274BFFF70CFC03D84FF057
:104F1000FF30014607E00022234B20463146FFF7D1
:104F200060FAFFF7E6FB102409E0002C0ADB0A22F6
:104F30000023FFF797F9019B30321A55641E50EA9F
:104F40000102F2D1641C019AC4F1110314440F9AB6
:104F5000012A09D00122084301D15B450FDD4FF042
:104F6000000205F101050DE0084303D1A3EB0B0599
:104F70006D1E09E000204FF0110B0F9088E701DA59
:104F800000226D1E002A83D000980F99C0E90231DB
:104F9000C0E9004571E70000300000000000244037
:104FA0000000F03F0000F0430000E03F2DE9FF4F1C
:104FB00095B09B4689460646002512E2252878D101
:104FC0000024761CF94A2746012105943378203BBA
:104FD00001FA03F0104202D00443761CF6E7307861
:104FE0002A2811D06FF02F033078A0F13002092A5F
:104FF00016D8059A44F0020402EB820203EB420247
:105000001044761C0590EFE759F8042B0592002A0E
:1050100003DA504244F40054059044F00204761C34
:1050200030782E2816D116F8010F44F004042A28EF
:105030000DD06FF02F023078A0F13003092B09D882
:1050400007EB870302EB4303C718761CF3E759F815
:10505000047B761C30786C280FD006DC4C2817D0E7
:1050600068280DD06A2814D104E0742810D07A285A
:105070000FD10DE044F400140AE044F4801401E080
:1050800044F440147278824202D1761C04F58014F4
:10509000761C307866280BD013DC582877D009DCD2
:1050A000002875D04528F6D04628F4D047281AD1D4
:1050B0009FE118E0632835D0642879D0652812D1A3
:1050C00097E1702873D008DC6728F1D069286FD089
:1050D0006E280DD06F2806D1B5E073282CD0752826
:1050E00075D0782874D05A46179990476D1C76E190
:1050F000C4F30250022809D003280DD0D9F80010BB
:1051000004280DD00D6009F1040968E1D9F80010F8
:10511000EA17C1E90052F6E7D9F800100D80F2E76E
:105120000D70F0E719F8041B8DF8001000208DF8C1
:105130000100EA46012003E059F804AB4FF0FF30CC
:1051400061074FF0000102D40DE008F1010188462B
:10515000B9420FDA8045F8DB1AF808100029F4D1BB
:1051600008E008F1010188468142FADB1AF80810CC
:105170000029F6D105985B46A0EB08072146384682
:10518000179A00F09EFA284400EB080507E04DE06E
:105190002BE10DE01AF8010B5A4617999047B8F128
:1051A0000108F7D25B4621463846179A14E142E0DF
:1051B0000A220092C4F302524FF0000A022A08D0D9
:1051C00059F804CB032A4FEAEC710AD00DE029E02C
:1051D0002AE009F1070121F00702F2E802C1914635
:1051E00009E00FFA8CFC4FEAEC71042A03D14FFA64
:1051F0008CFC4FEAEC71002907DA0A460021DCF149
:10520000000C61EB02012D2202E0220504D52B22C5
:105210008DF80420012203E0E20701D02022F7E705
:10522000904653E00A2102E010220DE010214FF0D9
:10523000000A00910BE010224FF0000A44F0040431
:105240000827009203E008224FF0000A0092C4F3FE
:105250000252022A05D059F804CB0021032A08D0B3
:1052600009E009F1070121F00702F2E802C19146C5
:1052700005E01FFA8CFC042A01D10CF0FF0C4FF062
:105280000008220722D5702827D0009B83F0100346
:1052900053EA0A0309D15CEA010206D030228DF8F4
:1052A00004208DF8050002229046009B83F008033D
:1052B00053EA0A030AD15CEA010201D1620705D56B
:1052C00030228DF804204FF001087F1E582809D0A5
:1052D00037A003900EA8029013E040228DF804201E
:1052E0000122E1E737A0F4E753466046009AFEF753
:1052F000B9FF84460398825C0298A0F101000290F5
:1053000002705CEA0100EFD1029806A9A1EB00004F
:1053100000F1200A600702D524F4803400E0012760
:10532000574502DDA7EB0A0000E0002000EB0A0170
:10533000009005984144A0EB01000590E00306D4DD
:105340005B462146179A059800F0BBF905440027F3
:1053500006E001A85A46C05D179990476D1C7F1C56
:105360004745F6DBE0030CD55B462146179A0598C6
:1053700000F0A7F9054404E030205A4617999047F9
:105380006D1C0099481E00900029F5DC08E0029889
:1053900002995A460078491C0291179990476D1C52
:1053A000BAF10001AAF1010AF1DC6BE10928010060
:1053B000303132333435363738396162636465668B
:1053C000000000003031323334353637383941424D
:1053D000434445460000000000F060F9054406F132
:1053E0000106307800287FF4E9AD19B02846BDE801
:1053F000F08F620700D4062709F1070222F0070C9C
:10540000FCE80223E14603F000485FEA080C02D002
:105410000FF27C2C0DE05FEA045C02D50FF2742CD5
:1054200007E05FEAC47C02D00FF26C2C01E0AFF21F
:10543000700C4FF0FF3823F00043CDF850C06528C2
:105440000CD006DC452809D046281DD047283ED17F
:105450003EE0662818D0672839D139E00021112FA5
:1054600001DB112000E0781CCDE9000106A90EA89F
:10547000FFF7EEFCDDE90F010E9A03910021009287
:1054800007F1010A04914EE04FF000400097CDE98A
:10549000011006A90EA8FFF7DBFCDDE90F0203925D
:1054A0000E9B11990022DDF80CA00093049219B90B
:1054B00007F1010100EB010AB7EB0A0004D4C0F1C7
:1054C000FF3007F1010A0490AAEB0700019046E0C3
:1054D000012F00DA01270021112F01DD112000E04A
:1054E0003846CDE9000106A90EA8FFF7B1FCDDE9B9
:1054F0000F010E9A0391002104910092BA462107F0
:105500000CD40399514500DA8A46BAF1010F05DD42
:10551000009AAAF10101515C302908D0B84202DAA0
:1055200010F1040F06DA0121CDE9011017E0AAF10C
:105530000101E9E7002805DC049901440491AAEB84
:10554000000102E0411C514500DD8A460499A0EBB0
:10555000010000F1010001904FF00040029020078F
:1055600004D40198504501DBCDF8048000208DF86B
:105570004F0002980DF14F07B0F1004F25D02B20BE
:105580000E9002984FF0020800280CDA4042029078
:105590002D200E9007E00A210298FEF7EDFE303133
:1055A000029007F8011DB8F10001A8F10108F2DC32
:1055B00002980028EFD1791E0E980870307800F01C
:1055C000200040F0450007F8020D12A8A0EB0700EC
:1055D00000F107081498007800B1012000EB0A01DF
:1055E000019801EBE07105984144A0EB0100A0F1A6
:1055F00001000590E00306D45B462146179A059802
:1056000000F05FF805441498007820B15A461799C5
:10561000904705F10105E00323D55B462146179A23
:10562000059800F04EF805441BE00498002807DBBD
:10563000DDE90301884203DD0098405C179901E031
:10564000179930205A46904704986D1C401C0490CE
:105650000198401E019004D12E205A461799904778
:105660006D1CBAF10001AAF1010ADEDC05E017F8B1
:10567000010B5A46179990476D1CB8F10001A8F12B
:105680000108F4DC5B462146179A0598A4E6000061
:105690002D0000002B000000200000002DE9F0414B
:1056A000044600251E461746880405D406E0394600
:1056B0002020B04705F10105641EF8D52846BDE855
:1056C000F0812DE9F041044600251E469046C803AE
:1056D00001D5302700E02027880405D506E04146A3
:1056E0003846B04705F10105641EF8D52846BDE8E7
:1056F000F0810A68531C0B60107070472DE9F05F51
:10570000064600880B46C0F30B00834605F06AF896
:105710000400707875884FEA10170AD005F1040864
:10572000984509D02A1DBDE8F05F19463548FFF7B6
:105730007BBB594634A01EE001F052F907F003018B
:10574000002740F2031A6063012903D002292CD0FC
:105750003CA010E0A08F60B14119B1F5827F0ED35B
:1057600028485B4652465C30FFF75EFBA787BDE8E2
:10577000F09F594643A0BDE8F05FFFF755BBA16B12
:105780002A4608440E30311DFEF7B0FDA08F284494
:1057900081B2A187E08F083081422FD3A06B0E30F9
:1057A00005F096F8E787A78728E0A08F28B115486D
:1057B0005946B030FFF738FBA787B788381D8146B8
:1057C000854205D31FFA88F1304605F081F815E0CF
:1057D000FF2D07D95B465246291DBDE8F05F3848CA
:1057E000FFF722BBA06B2A1D0E303146FEF77EFD6F
:1057F000A4F83C80E787A16BA1F81090BDE8F05FAA
:1058000005F0C4BB343C02006863692E633A206132
:10581000636C5F68616E646C65722063616C6C655B
:10582000642077697468206E6F6E2D726567697386
:1058300074657265642068616E646C6520257521ED
:10584000000000006863692E633A2061636C5F6842
:10585000616E646C65722063616C6C65642077694D
:10586000746820696E76616C6964207061636B6531
:105870007420626F756E6461727920666C61677303
:105880002025750041434C20436F6E7420467261A1
:10589000676D656E7420627574206E6F2066697224
:1058A000737420667261676D656E7420666F722016
:1058B00068616E646C6520307825303278000000B5
:1058C000383D020010B505494FF6FF7302E08478B9
:1058D0008C54C01C02889A42F9D110BD00000A40C5
:1058E00010B50B46002803D11146184607F0C8FC36
:1058F00010BD70471CB506498C68002C07D00021EC
:1059000000910191B0F806010B460322A0471CBD8F
:105910009000002070B50D46002821D1082D1FD21F
:10592000104C4FF4947654F8250020B9304600F01E
:1059300099FF44F82500040012D031462046FEF7B6
:10594000FCFCA4F8065104F58071284602F007FF1C
:1059500006F098FDA4F802014FF0FF30A4F808010A
:1059600070BD000030680020F8B51646028A069F18
:10597000A2EB010294B2C288D2050AD50A4A556840
:105980003DB1009300890A46014633463846A84790
:10599000F8BD9C4200D91C4640692246014430466D
:1059A000FEF7A4FC2046F8BD90000020042105F07D
:1059B0000FBF042106F046BE0249086004210248D8
:1059C00006F0B8BD9C0000200D5F00000249486051
:1059D0000421024806F0AEBD9C0000200D5F0000CF
:1059E000042105F0F5BE042106F02CBE00B58BB0F5
:1059F000D0F82401009023E0684600F023FABDF8B7
:105A0000081000291ED0BDF806200FA0FFF708FAE5
:105A1000BDF806008005039808D506A919F0A0F87E
:105A200006A81CF09BF9014611A001E0018811A015
:105A3000FFF7F6F9BDF8101010A0FFF7F1F9009884
:105A40000028D9D10BB000BD48616E646C653A2066
:105A50003078253034782C20666C6167733A2030BA
:105A600078253034782C20757569643A2000000060
:105A70002573000025303478000000002C2076616A
:105A80006C75655F6C656E3A2025752C2076616CAF
:105A900075653A2000000000064A30B41468002CF6
:105AA00006D00B46A4460246002130BC04206047C5
:105AB00030BC7047A40000207CB51446042819D1DE
:105AC00020783E283FD016DC052846D0082801D093
:105AD00030280FD1B2F80350284600F0BDF804007A
:105AE00008D0284619F079FE04F8FD0F284619F071
:105AF00061FB60707CBDD7284CD0D8283BD0DA2819
:105B0000F8D1608800F0A8F80500F3D0B5F80601D8
:105B100004F068FE0600EDD02079317A8842E9D1A0
:105B20006946601D19F02BF8062231466846FEF7DB
:105B300016FC0028DED1E07A85F8FF00B5F80601F2
:105B4000FFF751FF7CBDA078012801D00A28F9D1C8
:105B50009188D078FFF7DEFE7CBDB2F80340204686
:105B600000F07AF80028F7D000F07EFE0F49002000
:105B700041F824007CBD608800F06EF80500F9D083
:105B8000B4F80B0001B2A5F8081109A0FFF749F914
:105B9000284608E0508800F05FF80028EAD04FF06F
:105BA000FF31A0F8081100F091FA7CBD30680020A8
:105BB000534D5F4556454E545F4944454E544954F4
:105BC000595F5245534F4C56494E475F53554343D7
:105BD0004545444544206964202575003EB50C4682
:105BE0008DF8080000208DF8092000900190022314
:105BF00002AA0421204606F063FF3EBD7FB50DF1E9
:105C0000200C1446BCE864008DF80800ADF809309B
:105C1000ADF80B20ADF80D10CDE90056072302AA10
:105C20000421204606F04CFF7FBD70B515000C46E0
:105C300003D0D0F82401206008E0002070BD204689
:105C400000F000F92089A84203D020680028F6D18E
:105C500070BD012070BD0000082803D2024951F830
:105C60002000704700207047306800202DE9FF4178
:105C7000164691F800C00024B0F800214F1D1D46C3
:105C8000BCF10E0F72D00CDCACF1020EBEF10B0FAA
:105C90001BD2DFE80EF0221A341A3C1A4C1A5C1A96
:105CA0006200BCF1180F70D009DCBCF1100F66D097
:105CB000BCF1120F76D0BCF1160F06D177E0BCF123
:105CC000520F7ED0BCF1D20F7BD061463FA0FFF7D0
:105CD000A7F804B02046BDE8F081B1F80110B0F893
:105CE00002218A4202D9A0F8001101E0A0F80021A7
:105CF00003242C70B0F80001A5F80100E9E7491C65
:105D00004B8800930B88294603F0C2FA0DE0CB1DA7
:105D1000491CF61FB4B28F884E88CDE90243CDE905
:105D200000670B88294603F01FFA0446D1E70C46AA
:105D30002946072E01D8022300E01023641C658841
:105D4000CDE900530297238803F082FCEDE7B1F818
:105D50000130294603F096FDE7E7491C4B88009384
:105D60000B88294603F06AFBDFE7FFE7491C761E34
:105D70000091C6F34F03294603F012FDD5E70C4608
:105D80001946072E03D8022302E015E00AE010238B
:105D9000641C6588CDE900530297238803F0BEFB9D
:105DA000C3E70EE00092324603F0F8FDBDE7009233
:105DB000324603F0E5FAB8E70092324603F0A2F962
:105DC000B3E70092324603F0B9FD82E7556E686191
:105DD0006E646C65642041545420436F6D6D616E38
:105DE000643A20253032582C20444154413A200056
:105DF0001CB50B4B1C68002C10D0B6238DF800305E
:105E000005238DF801308DF80200ADF80310ADF8D0
:105E10000520072300216A460420A0471CBD00007E
:105E2000A400002010B580B2FFF716FF002808D0AC
:105E3000B0F80A21B0F80611BDE810409120FFF734
:105E4000D7BF10BD10B501680A88828072B14B8837
:105E5000C3808C88048101F10604C4609B050CD5C5
:105E6000A2F11603038201F116030BE00021C180A9
:105E70000181C1600182416106E0A2F10803038251
:105E800001F1080311444361016010BD70B504467F
:105E900000890D4600281BD0022A08D0E088800522
:105EA0000BD51022E068FEF75AFA80B111E009889C
:105EB0002046BDE8704000F00EB8084605F008FB2B
:105EC000002805D0E168A8890988884201D101200D
:105ED00070BD002070BD70B5044600890D460028D5
:105EE00010D0E0888005E06808D505F0F1FA0028B8
:105EF00008D0E0688089A84203D004E00088884286
:105F000001D1012070BD002070BD00002DE9F041DD
:105F1000194C06461F4615468846042809D0082E07
:105F200028D12878C00720D0D4F800C01FE0304620
:105F3000E047287878281DD1D4F804C0BCF1000FC0
:105F400008D03B462A4641463046E04704F042FB33
:105F500000280FD02468002C0CD03B462A4641462E
:105F60003046A446BDE8F0416047D4F804C0BCF117
:105F7000000FDCD1BDE8F0819C0000202DE9F0414C
:105F80000F461546044601461E46127828A0FEF725
:105F900048FF042C0CD0082C48D13846FFF75CFE93
:105FA000040043D029781E2909D0522918D01EE0B8
:105FB000287878283AD1BDE8F04100F00FB9B4F85C
:105FC0000A01A0B104F5867000F00CFD04F583749D
:105FD0000020A288A0802188BDE8F041FFF708BF1B
:105FE00032462946BDE8F0410023FFF73FBEFB2EB5
:105FF00006D93246BDE8F041FB231A48FEF711BF2F
:1060000022782AB1BDE8F04116485030FEF709BFAA
:1060100001202070A4F8046132462946A01CFEF736
:1060200065F92046BDE8F04100F050B8BDE8F081C8
:106030006174745F7061636B65745F68616E646CDA
:1060400065723A2074797065203078253032782C6A
:10605000207061636B65745B305D20307825303271
:1060600078000000943A020010B5B0F80001029CDC
:10607000C01E80B21970A3F80120844200D82046C7
:1060800010BD1FB514468DF80800069AADF809300A
:10609000ADF80B20ADF80D10002000900190072303
:1060A00002AA0421204606F00BFD1FBD3EB50C469A
:1060B0008DF80800ADF8092000200090019003231E
:1060C00002AA0421204606F0FBFC3EBD2DE9FF415B
:1060D0000446017824A0FEF7A4FE207801282DD1E3
:1060E000A078D22808D003202070B4F8060104B0AC
:1060F000BDE8F041FFF777BC19F02EFA0027E0B1B8
:10610000B4F804010F2818D3B4F8060119F0E6FD1D
:10611000002813D1B4F9080106F076FE05000CD072
:10612000B4F80411A4F10A000E58696C324611A0AB
:10613000FEF777FE686CB04202D92770BDE8FF8198
:1061400002202070B4F803201749601DCDE9000635
:10615000CDE90214B4F80401A1780F3883B205F137
:10616000340019F003FAE9E76174745F72756E3AEE
:1061700020256400415454205369676E656420579C
:10618000726974652C20444220636F756E74657269
:106190002025752C207061636B657420636F756EAC
:1061A00074657220257500006D640000FFF718BC4F
:1061B0000EB50B21CDE900238DF80810012302AAAA
:1061C000042106F07DFC0EBD00B5FFF745FD10B1C2
:1061D000B0F8000100BD172000BD00002DE9F84314
:1061E0000025144F144EA84657F82540E4B12078F6
:1061F00003280BD1204600F0A7F838B1607898B199
:10620000B4F80601BDE8F843FFF7EDBB607858B17C
:106210000AA084F8018000680090346824B1022349
:1062200000216A460420A0476D1C082DDCD3BDE880
:10623000F883000030680020A4000020B7000000B0
:106240002DE9FE431F4616460D468046FFF704FD26
:10625000040005D0B4F80A0120B19020BDE8FE8307
:106260005920FBE74046FFF7BBFB88B102AB2A464B
:106270001D2120460097FFF7F7FECDE900600323BC
:1062800002AA0421404606F01BFC060002D014E0DE
:106290005720E3E7A4F80A5104F5867042460849FE
:1062A000044600F0D5FB47F2305240F282412046CE
:1062B00000F0B6FB204600F085FB3046CEE700003C
:1062C000255E000070B505460B480A4C0E4644603A
:1062D00004F054F908480830446018F019FD0748E4
:1062E000FFF774FB284600F0B5F83046BDE8704073
:1062F00000F0B6B8B95A0000A80000207D5F000089
:106300002DE9FE431E4615460F468046FFF7A4FCC6
:10631000040014D04046FFF763FB90B102AB3A464D
:106320001B2120460096FFF79FFECDE90050032376
:1063300002AA0421404606F0C3FBBDE8FE835920B3
:10634000FBE75720F9E700002DE9FC412F4E00271D
:1063500007700446B0F804213346811CFFF786FC21
:106360000546A0F57F40FF3823D0042D0FD33078A9
:1063700001280CD13079082809D194F8FE0030B1F9
:10638000B4F8060118F03DFF78B1012811D085B1AD
:1063900000970197B4F806012B463246042106F017
:1063A0008FFB3078032807D02DE0B4F806011AF0EF
:1063B00029F90020BDE8FC81154AB4F80611B4F8AB
:1063C0000001156875B1B5228DF8002004228DF802
:1063D0000120ADF80210ADF80400062300216A4642
:1063E0000420A847B4F8060100F084F809480078B2
:1063F000C00708D0B4F800010022001D81B2B4F833
:10640000060101F0DDFB0120D4E70000946E0020BE
:10641000A4000020B8000020014908607047000077
:10642000A400002010B50246FFF716FC002806D095
:1064300001214170BDE810401046FFF7D4BA10BDED
:1064400010B50C46FFF708FC002801D0C0F8244125
:1064500010BD000001494860704700009000002016
:106460000149886070470000900000207CB5044618
:1064700000780A4602280ED16946104618F07CFBC7
:10648000B4F80411A01F014408226846FDF767FF15
:1064900010B1002020707CBDB4F80411A4F10A00F2
:1064A0000E58B4F9080106F0AFFC050001D0012038
:1064B00000E00020E52207A1FFF712FA45B1761CA3
:1064C0006E6403202070B4F80601FFF78CFA7CBDDF
:1064D00072B6FEE76174745F7365727665722E63DF
:1064E000000000000A6882654968C16535210170B5
:1064F00002F0B8BA70B5054602F0F4FD04000BD006
:106500002846FFF7A9FB002806D0E28AB0F8001160
:106510008A4202D9A0F8002170BDE18270BD00005E
:10652000F8B50446C0880E46C0050BD50648456838
:10653000002D07D0002000900346024621893046F6
:10654000A8472082F8BD0000900000207CB50E46D0
:10655000C98804460D0B00D06D1C14F8FD2F60781F
:10656000CDE90002A378FD3C2A461048FEF758FC0E
:10657000F088410502D594F8FE1079B1000502D5E6
:1065800094F8FF0060B1002D02DD94F8FD0048B1E1
:1065900094F8FD00A84207DA0C207CBD05207CBDE4
:1065A00008207CBD0F207CBD00207CBD90390200FE
:1065B0003EB50C468DF808000699ADF80920CDE9E6
:1065C0000013032302AA0421204606F079FA3EBDF7
:1065D0000622FDF7C4BE0A68026089888180704780
:1065E00010B50C49002203463A24985C000900F0DB
:1065F00027FB0870985C00F00F0000F021FB48704A
:106600008C70C91C521C062AEFDB002001F8010C1B
:10661000004810BD756800200844008840BA7047E3
:106620004218405C5378528852BA63F31F4242EAE0
:1066300000607047130A4354491C89B242547047A2
:10664000130E4354491C89B2C2F307434354491CF7
:1066500089B2C2F307234354491C89B2425470479C
:1066600010B50446FEF752F903480188A1430180A2
:10667000BDE81040FEF754B9B403002010B503F094
:106680002EFBBDE81040012000F010B810B50649FF
:106690000A68C2F30312022AFAD1012100F0E6FBD4
:1066A000BDE8104004F06CBE0400044010B5044680
:1066B000FEF72CF90348018821430180BDE8104012
:1066C000FEF72EB9B403002003480078C00701D1BB
:1066D00016F06EBD70470000B403002008B500201E
:1066E000009008480068C1050748006803D0694663
:1066F0001CF072FA08BD00231A4619461CF056F920
:1067000008BD000004ED00E00400002010B50446C0
:106710000E480078C00718D0FEF7F8F84CB10321F6
:106720000B4816F09BFA03F0DCFA0FF0EDFA0BF0D1
:10673000DBFD0120FFF794FF10F0F8FA032016F0BC
:1067400065FEBDE81040FEF7EBB810BDB4030020B5
:106750004E00030070B50D480088A0B910F0FAF99A
:1067600040F2E2450446A8420DD30948406D50B9B5
:1067700016F020FF38B116F025FFA84203D3A0423F
:1067800000D3204670BD002070BD0000B40300207F
:10679000000009400149086070470000B80000206F
:1067A0000268134602E08A4204D01268002AFAD135
:1067B0000B600160704702E08A4205D01046026813
:1067C000002AF9D10A6001607047006808B1002012
:1067D00070470120704704E0884201D101207047D2
:1067E00000680028F8D170470268816832B14068BB
:1067F0000068884200D1086808B9704709B10120D3
:106800007047002070470022C0E9002109688160BC
:106810007047016851B141680A6881688A4203D1B2
:1068200041600968816003E0826001E0012101604C
:106830008068704781680968816042681160002142
:10684000016070474FF0FF3351B107E002688A42A0
:1068500003D1096801600020704710460028F5D177
:106860001846704718F012B81BF0CEBBFFF7FCBFFC
:106870007820FFF7F7BF10B50446806B06F017FCD1
:106880002046BDE81040FFF7EFBF70B59820FFF736
:10689000E9FF04000CD040F2111006F031FC0500B5
:1068A00008D098212046FDF748FD2046A56370BD1D
:1068B000002070BD2046FFF7D7FFF9E77047FFF7CC
:1068C000D3BF4C20FFF7CEBFFFF7CEBF1420FFF79A
:1068D000C9BF2DE9F04106460020984617460C46F0
:1068E0000546306005E02146304600F007F8444494
:1068F0006D1CBD42F7DBBDE8F081000030B40268DA
:10690000134607E08B4204D1024630BC04A0FEF7D8
:1069100089BA1B68002BF5D10A60016030BC704752
:106920006274737461636B5F6D656D6F72795F70B4
:106930006F6F6C5F667265653A20626C6F636B2087
:1069400025702066726565642074776963652066CA
:106950006F7220706F6F6C2025700000016819B194
:106960000A6802600846704700207047FFF77CBF46
:106970000C20FFF777BF000000B589B00A23019310
:106980000E4B1B6802930591CDE903020C48006889
:10699000C00518464FF0000304D0002269461CF0E1
:1069A000BBF804E04FF0FF3269461BF0FFFF0128FF
:1069B00002D0012009B000BD0020FBE70800002044
:1069C00004ED00E038B504461CF0F6FC02464FF03A
:1069D000FF3000900023012160691CF04BFF38BD9F
:1069E0000020704738B50446406948B14FF0FF3188
:1069F000002300911A4605211CF03CFF0020606135
:106A0000002038BD38B504461CF0D6FC02464FF0D5
:106A1000FF3000900023022160691CF02BFF38BD7D
:106A200038B50446816090024FF47A71B0FBF1F101
:106A3000044800902346002203A01CF0AFFE6061D2
:106A400038BD0000494D000068000000016170473A
:106A5000C0E90312704708B54FF0FF3100910023E1
:106A600040691A4603211CF005FF08BD2DE9F041DD
:106A70000746114815460E4604689846D4343888AF
:106A80006288218800F020F9388062882188308867
:106A900000F01AF93080E288A188288800F014F903
:106AA000288062892189B8F8000000F00DF9A8F863
:106AB0000000BDE8F0810000D43B020070B50C007E
:106AC000054601D0012000E000206A2206A1FEF761
:106AD00007FF284600F034F810B100206C602060F9
:106AE000286820602C6070BD6C6973745F6261738C
:106AF00069632E630000000070B50C00054601D0EC
:106B0000012000E00020532207A1FEF7E9FE2846FD
:106B100000F016F808B12C6001E0686804600020FD
:106B20006C60206070BD00006C6973745F6261739B
:106B300069632E630000000000210160416070471E
:106B4000006808B10020704701207047006808B154
:106B50000020704701207047016819B10A6802607F
:106B600012B103E00022FAE70022426008467047B3
:106B700070B5054600680C4600B10120C32209A18A
:106B8000FEF7AEFE206800B10120C42205A1FEF789
:106B9000A7FE69682068086060686860002020605F
:106BA000606070BD6C6973745F62617369632E634A
:106BB0000000000070B5034600200246012513F8CE
:106BC0000240002105FA01F6344201D0401C80B297
:106BD000491CC9B20829F5D3521CD2B2052AEED3FA
:106BE00070BD70B50446008942F655429047252194
:106BF000B0FBF1F201FB1201CA0801F00705A25C2B
:106C00000123AB401A4201D0084670BDE1884143E0
:106C10002046BDE87040C1F3074102F03BBA30B5F1
:106C200004461068206010790D4600F01F002071A6
:106C30002046FFF7BFFFE08085EA1540208130BD88
:106C40000A2801DA303003E00A38062802DA413037
:106C5000C0B270473F20704770B50446C08E88B000
:106C6000002822D0258F94F83430A2268DF80060B9
:106C70001A268DF80160A6890A46ADF80400ADF821
:106C8000082004F11C01ADF80260ADF80650ADF823
:106C90000A30102203A8FDF729FBA1891C236A46AC
:106CA000A06800F03BF90020E08608B070BD00004D
:106CB00004481144814203D9012018600320704721
:106CC000002070478F6D002019B1884201D208461C
:106CD0007047002AFCD09042FAD910467047000055
:106CE0000249CA6D82430243CA65704700000940E9
:106CF00043688B4204D18068904201D101207047E3
:106D0000002070471CB50022202140201BF0AEFD62
:106D1000104C03220021A06001201BF0A7FD606041
:106D200004F10C010E20CDE900014FF400740023A2
:106D3000224609A109481CF0C5FA06490220103173
:106D4000CDE900010023224605A106481CF0BAFA4D
:106D50001CBD00000000002063000000B1480000DE
:106D600070000000B9DD010010B504F08AFB0022BC
:106D7000BDE810401146022004F04ABB70B506463B
:106D8000401E1D460C46082809D2207829688842F2
:106D900005D10622211D6868FDF7E1FA08B100203F
:106DA00070BDC5E90264032070BD00000248017A8D
:106DB000491C0172704700003001002010B50446E4
:106DC00003F066F800200EF08BFF0FF0D3FD0EF0FD
:106DD000CFFD08F0BBFB0BF029FE11F0A3FA15F074
:106DE0001FF915F0C1FD002C03D0BDE8104010F0D4
:106DF00058BB10BD70B50446B0F1A53F19D0B4F131
:106E0000C33F16D00123DA0205211A2016F03EF9FD
:106E10000546B4F1F23F09D0922206A10020FEF708
:106E20005FFD2846BDE8704016F09EBA0720287026
:106E3000F7E770BD6474626C652E630070B50A4C30
:106E40004FF42020074DE0641AF010FB800602D5B5
:106E50004FF4803001E04FF400402844C0F31300A9
:106E6000A06470BD00000A4000000940F8B5054666
:106E70001B480E46002101800FF00CF81AF004FBAD
:106E800016F0ACF868460FF047F80446009842F256
:106E9000ED0140F61C67884201D3012000E000208C
:106EA000852210A1FEF71CFD3A462146002016F06F
:106EB00001F9009804F61C61A0F61C6082B2012062
:106EC00016F0F8F81AF056FA3046FFF777FF002D63
:106ED00004D02846BDE8F840FFF78CBFF8BD00009D
:106EE000B4030020647469702E6300000949012016
:106EF000096809B1002070470749CA69002AF9D119
:106F0000044A283212688968491E8A42F3D1022055
:106F100070470000280B00202800002030B4040037
:106F200003D0A44630BC0420604730BC7047FEB597
:106F30001E4617460C46054602F0D4F8002816D027
:106F4000011D6846FFF75FFC0CE06846FFF761FC37
:106F50000189A14206D1D0F804C033463A462946F9
:106F60000420E0476846FFF73FFC0028EDD1FEBD56
:106F70001CB5A0228DF8002003228DF80120828903
:106F8000ADF802208DF804108189806805236A46D7
:106F9000FFF7C4FF1CBD30B587B00446A3250A988F
:106FA0008DF8005018258DF80150A589ADF8041012
:106FB000ADF806200146ADF80250ADF808301022B9
:106FC0000DF10A00FDF792F9A1891A236A46A0681B
:106FD000FFF7A4FF07B030BD10B586B00446A1206E
:106FE0008DF8000016208DF80100A089ADF804107E
:106FF000ADF80200ADF806201022194602A8FDF7F0
:1070000075F9A18918236A46A068FFF787FF06B0C3
:1070100010BD00002DE9F04742780446901C8AB06C
:107020000E46814206D00AB0921CBDE8F047F748F0
:10703000FDF7FABE2178F6A0FDF7F6FE20780122D2
:10704000DFF8DC834FF000094FF0070A10286ED0FC
:107050000BDCA0F105000B284FD2DFE800F0D4B123
:107060004E9D4E4E754E4E1145003E287ED004DC9E
:1070700012287CD0132840D146E057283DD155E254
:10708000D8F80000A278454690F85A10E5A0FDF720
:10709000CBFE6179ECA0FDF7C7FE2968A07881F8E6
:1070A0005A00EE49B4F803000988884221D0EC491F
:1070B000098888421DD0EB490988884219D0EA49DD
:1070C0000988884215D0E9490988884202D129688F
:1070D000403105E0E649098888420AD129684431EF
:1070E000601D03F067FA04E0D8F80000E17880F84A
:1070F0005A10D8F80010A1F88E90D8F8000090F837
:107100007000012877D01EE20325002718E0635B9A
:10711000AD1C625BAD1C184603F064FB40B190F8F7
:107120004010914209D3891A80F8401007E073E0BB
:107130001946D0A0FDF778FE01E080F840907F1C52
:10714000A078B842E3DCD8E7B4F8030003F04AFBC8
:107150000500D2D0A07878B9E17A04F105000907DA
:1071600003D5698A41F00401698201E065E058E0D5
:10717000C078000600D5EA75688A40F00201A3488D
:107180006982EA7D6030FDF74FFE688A0106B4D55A
:1071900040F020006882B0E7B4F80350284603F0BE
:1071A00021FB0028A9D0A17831BB61790029816930
:1071B00002D041F4004101E021F4004181611BE073
:1071C000B4F80350284603F00DFB002895D0418AFF
:1071D0000A0607D521F0800141F010014182A17813
:1071E00001758AE7A2783AB9427D022A04D841F0B3
:1071F0004001418281E7A2E100F0A6FC0146284659
:1072000003F0DEFB79E7B4F8030003F0EBFA0028A3
:1072100099D080F811A070E703F034FE03F046FE29
:107220006BE7A07800288ED1B4F8030003F0DAFAF7
:10723000002888D0617A01745FE7A07806287DD0A5
:1072400010DC01281CD00428A5D1E078002876D1D4
:10725000A08803F0C7FA002871D08830A179417066
:1072600002704AE70A280BD0122894D12079082806
:1072700091D2E178002970D08CA0FDF7D5FD3CE7D4
:10728000E078002887D1A788082F27D2D8F80000F7
:1072900000EB8705686910B9FFF7F7FA6861050028
:1072A0001CD0EF800220C5F8189068752A468849DE
:1072B00005F11C00FFF7CCFBFFF792FB6863E07958
:1072C0002872294604F1080017F059FC052068745B
:1072D000A0792874A0780A2804D012E0A08800F0D1
:1072E000F3F90AE7D4F80E10C5F88A10618AA5F8F8
:1072F0008E106169C5F89010218B05F18000A5F80A
:107300009410E089A5F85200287C60B9D8F80010E4
:1073100091F85810E973D8F8000005F1090190F8C8
:10732000580000F0BFFA2846FFF75AF90246E988EC
:1073300068A0FDF779FD03F019FB01E00EE0FBE02A
:10734000D8F8000090F86600C0068AD5E98840F6B3
:10735000B832684803F086FBCFE62CE034F8037FB0
:10736000384603F03FFA05006088ADF81800A088A1
:10737000ADF81400E088ADF81C002089A4F10304E6
:10738000ADF82000ADD008AB07AA05A906A8FFF705
:107390006DFB5435BDF81C006B882A88BDF82010A1
:1073A0008DE80F00BDF81430BDF81820394652485A
:1073B00003F058FBA1E6B4F80520104603F012FADA
:1073C000054621794DA0FDF72FFD2079D8F8002042
:1073D000C0EBC001114491F89B10E97369B12179A8
:1073E000D8F80000C1EBC101014401F18000D1F8DF
:1073F0009C1045F8091F008C06E0D8F80000C16C0D
:1074000045F8091FB0F85000A88076E6A43D0200B8
:107410004843493A4556454E543A253032780000A3
:10742000D43B0200434D445F434F4D504C455445BF
:1074300020636D6473206F6C64202575202D206E91
:107440006577202575000000636D645F636F6D7064
:107450002073746174757320257500005C3F020011
:10746000643F0200443F0200543F0200E43E020039
:10747000EC3E02006863695F6E756D6265725F6302
:107480006F6D706C657465645F7061636B657420AB
:107490006C6973747320756E7573656420636F6EA9
:1074A0002068616E646C652025750000616476203B
:1074B000736574207465726D696E6174206475659E
:1074C00020746F20636175736520307825780A0019
:1074D000FDA700004E657720636F6E6E656374696B
:1074E0006F6E3A2068616E646C652025752C2025CE
:1074F00073000000843E02000C3F020061647620AD
:1075000068616E646C6572203078257820636F6ED8
:107510006E656374656420746F20636F6E206861AC
:107520006E646C6520307825780A0000608803F06E
:1075300059F900287FF407AE0AB0BDE8F087B1B270
:10754000204603F02BFBB1B2204603F0E7F9207888
:10755000052823D1B4F8030003F044F9F0B1D0E9D1
:107560000012047D458ACDE9011203F03BFEE805D7
:1075700014D501AD21460CA0FDF756FCE1208DF895
:107580000C008DF80DA08DF80E400DF10F0128466E
:1075900017F0F5FA092103A803F0C0F90AB0BDE815
:1075A000F04703F0F3BC00006863695F656D6974C0
:1075B0005F6465646963617465645F626F6E64696A
:1075C0006E675F726573756C74202575200000000E
:1075D00010B5044603F04EFF204610BD70B50646B8
:1075E00015460C460C20FFF73DF901463046C1E92F
:1075F0000145BDE87040FFF7DEB8000013460A46BB
:1076000010B50146024803F02DFAC0B210BD0000CB
:10761000B43F020010B50246024803F023FAC0B29C
:1076200010BD0000B43E020070B588B00C461D4687
:107630001646694617F094FA04A9204617F090FA06
:1076400004AA6946074803F00DFA10F0FF0406D1BA
:1076500005482A46314600684030FFF7BFFF08B0B2
:10766000204670BDE43E0200D43B020010B5024843
:1076700003F0F8F9C0B210BDAC3E020010B50248EC
:1076800003F0F0F9C0B210BD643F020010B502482B
:1076900003F0E8F9C0B210BDC43F020000B1012000
:1076A00004490A6892F89120824202D0096881F860
:1076B00091007047D43B020010B5024803F0D2F9A4
:1076C000C0B210BDA43E020010B5034603F08AF814
:1076D00040B10621417413221946054803F0C2F94E
:1076E000002010BD0021184603F004F9F8E700005F
:1076F000543E020038B54FF0FF30ADF80200ADF84F
:10770000000006250DE0684603F0BCF80446407C06
:10771000062806D0E1881322054803F0A3F900B932
:107720006574684603F08EF80028ECD138BD00007F
:10773000543E020038B500B101200D490A6892F8A4
:107740009040844210D121460AA0FDF76DFB6620CF
:107750008DF8000001208DF801008DF80240032112
:10776000684603F0DBF838BD82F8900038BD0000B1
:10777000D43B02004254535441434B5F4556454E5F
:10778000545F444953434F56455241424C455F452F
:107790004E41424C45442025750000002DE9FF4F25
:1077A000DFF8A8A085B00024DAF80020DDE912692E
:1077B0001268DFF894808B460A2000EB06115369AB
:1077C0002746B8F8000003AA9847050001D0012118
:1077D0000FE0562009B0BDE8F08F00BF04EBC402F3
:1077E00019F81220521E01FA02F03843641CC7B285
:1077F000E4B2B442F2D3DDE907018DE883005B46D1
:10780000D8F804102846059A02F0E2FFC7B2002417
:107810000DE000BF04EBC40109EB4101891CE8192C
:107820001022FCF763FD1037641CFFB2E4B2B442CF
:10783000F0D3DAF80010404681F858B02946039A90
:1078400003F098FC0020C5E7943F0200D43B0200FF
:1078500070B506460D46074803F004F910F0FF0422
:1078600006D105482A46314600684430FFF7B6FE87
:10787000204670BDEC3E0200D43B02000248006886
:1078800090F8920070470000D43B02000449096858
:1078900051F8D42F02604A6842608968816070475D
:1078A000D43B0200074A0028106804D050F8522F39
:1078B0000A60808803E0C26C0A60B0F850008880DB
:1078C00070470000D43B020010B50146024803F0A7
:1078D000C9F8C0B210BD0000D43E020003490968D7
:1078E000CA6C0260B1F8501081807047D43B02002E
:1078F00010B50446014604A0FDF796FA022C01D902
:10790000012010BD002010BD6761705F6D69746D4E
:107910005F70726F74656374696F6E5F72657175A5
:10792000697265645F666F725F73656375726974AF
:10793000795F6C6576656C20257500007FB50DF16B
:10794000200CBCE870008DE8780013460A4601461A
:10795000024803F087F804B0C0B270BD9C3F02003B
:1079600010B5024803F07EF8C0B210BDA43F02007B
:1079700010B50146024803F075F8C0B210BD000012
:10798000AC3F02000448417A012903D1022141722F
:1079900018F09CBE7047000030010020074810B569
:1079A000026C40F282210648FFF73AF80448FFF7DC
:1079B00009F8BDE81040FFF7E5BF000030010020E6
:1079C0000073002010B5002207490848FFF740F86F
:1079D000074840F28221026C0448FFF721F8BDE815
:1079E00010400248FEF7EEBF9D79000000730020B2
:1079F0003001002010B5024803F034F8C0B210BDC9
:107A00009C3E020010B5024803F02CF8C0B210BD35
:107A1000CC3F020010B50146024803F023F8C0B283
:107A200010BD00001C3F020010B50146024803F0E3
:107A300019F8C0B210BD0000743E020010B5014636
:107A4000024803F00FF8C0B210BD0000DC3E020097
:107A500010B50146024803F005F8C0B210BD0000A1
:107A60008C3E020010B50246024802F0FBFFC0B295
:107A700010BD0000BC3E02002DE9F0410E46074655
:107A800002F0B0FE040010D0384600F053F805466E
:107A9000024631460AA0FDF7C7F9B54207D3294689
:107AA0003846BDE8F04102F08BBF0121F8E766756A
:107AB000608A40F020006082BDE8F04103F066BAC1
:107AC0006761705F726571756573745F7365637507
:107AD000726974795F6C6576656C2025752C2063FE
:107AE000757272656E74206C6576656C2025750004
:107AF00010B50146024802F0B5FFC0B210BD00004B
:107B00005C3F020013460A4610B50146024802F0E7
:107B1000A9FFC0B210BD0000BC3F020013460A46D8
:107B200010B50146024802F09DFFC0B210BD000032
:107B3000E03B020010B502F055FE18B1BDE8104060
:107B400000F002B8012010BD10B1008B000401D478
:107B5000012070470220704702207047084B10B583
:107B60001B68C0EBC0021A440B6842F89C3F8B882C
:107B700093800A460146034802F074FFC0B210BD6C
:107B8000D43B0200343F020000B1012002490968E1
:107B900081F8920070470000D43B02000149096857
:107BA00088647047D43B020004490268096841F8C0
:107BB000D42F42684A60806888607047D43B0200D6
:107BC00010B50AB944F2902213460A46014602480B
:107BD00002F048FFC0B210BD143F020013460A462F
:107BE00010B50146024802F03DFFC0B210BD0000D2
:107BF000243F020008B50B460092024600210248CD
:107C000000F074F808BD0000443F02002DE9FC4775
:107C100091461B4A194F8846126804460221126891
:107C200001EB88013888536901AA9847060007D0FC
:107C300043462246796802F0CBFDC5B2002414E029
:107C40005620BDE8FC8700BF04EB440009EB40016F
:107C50000A7900924B8819F81020701909A102F0D6
:107C6000B7FD2D1D641CEDB2E4B24445ECD33146A2
:107C70003846019A03F07EFA0020E2E7543F020002
:107C8000D43B0200313231002DE9F04F8DB0DFF8E6
:107C900054C0DDE91F89DDE91BBADCF800C0DDE96D
:107CA0001D56C0EBC0076744DDF868E0179C87F8F5
:107CB0009B4008AFA7E86003DDF864C0CDE906BAD1
:107CC000CDE904CE169E189DCDE9003613460A462E
:107CD00001460548CDE9024502F0C4FE0DB0C0B230
:107CE000BDE8F08FD43B02003C3F02002DE9FC4789
:107CF0001C460A9D174688468146F72B28D9F7204F
:107D0000CDE900050B4601223946484602F0AAFE9D
:107D100010F0FF0025D1F73CA4B2F73516E0F72CA0
:107D200001D3F72600E02646A01BCDE90065040438
:107D3000240C01D0002200E0022243463946484686
:107D400002F090FE10F0FF000BD13544002CE6D17C
:107D50004346032239464846CDE9004502F082FEFB
:107D6000C0B2BDE8FC87000008B5009313460A4680
:107D70000146024802F076FEC0B208BD8C3F020008
:107D80002DE9FC4716460F4602EB8601244ADFF830
:107D90008C8099461268824600241268C91CB8F883
:107DA0000000536901AA9847050002D00020012273
:107DB0000DE05620BDE8FC8700EB400319F81330B6
:107DC0005B1E02FA03F12143401CCCB2C0B2B042A8
:107DD000F2D300943B4652462846D8F8041002F0ED
:107DE000F7FCC7B200240FE004EB440109EB4100AB
:107DF0008188009143884278E8190AA102F0E8FCE2
:107E00007F1D641CFFB2E4B2B442EDD32946404664
:107E1000019A03F0AFF90020CCE70000843F020094
:107E2000D43B02003132320008B50B4600920246C4
:107E300000210248FFF75AFF08BD00004C3F020036
:107E40000A4610B50146024802F00CFEC0B210BD51
:107E5000CC3E02002DE9F8431A4F15460C468046E9
:107E6000F82925D90146F82301223846009502F069
:107E7000F9FD10F0FF0023D1F83CA4B2F83515E06D
:107E8000F82C01D3F82600E02646A01B0404240C9D
:107E9000009501D0002200E00222334641463846D8
:107EA00002F0E0FD10F0FF000AD13544002CE7D1CC
:107EB0002346032241463846009502F0D3FDC0B266
:107EC000BDE8F883743F02000A4610B50146024837
:107ED00002F0C8FDC0B210BD7C3F020008B500939F
:107EE00013460A460146024802F0BCFDC0B208BD76
:107EF0006C3F02001CB5049CCDE9003413460A46D1
:107F00000146024802F0AEFDC0B21CBD2C3F02008B
:107F100005490268096841F8522F82888A80014623
:107F2000024802F09FBD0000D43B0200943E0200D4
:107F30000249096881F8590070470000D43B0200EB
:107F40000B4900B50A6892F86420C2F3C00262B11E
:107F5000096891F8591041B102F044FC28B1807CC5
:107F6000C0F3800008B1012000BD002000BD00006A
:107F7000D43B0200F0B587B0DDE90C45DDE90E67C2
:107F8000DDE910CE8DE81840CDE9057C13460A46A0
:107F9000CDE903560146034802F064FD07B0C0B2C4
:107FA000F0BD0000D83B020010B5024802F05AFDB7
:107FB000C0B210BDF03B020008B5009313460A465C
:107FC0000146024802F04EFDC0B208BDE83B020087
:107FD0007FB50DF1200CBCE870008DE878001346E9
:107FE0000A460146024802F03DFD04B070BD0000A3
:107FF000C43E020008B59200921C0B460092014656
:108000000322024802F02EFDC0B208BDF83B020078
:108010002DE9F047DFF88CA48AB01E461546884645
:1080200004280AD008287DD128781B280FD01D28C5
:1080300008461FD001F056F81EE02978782971D142
:10804000DAF80040002C50D04146A0474DE0B5F88A
:1080500001700C46D21CDE1E3946A72016F040FEE9
:10806000F61C02460AB0B3B239462046BDE8F047D6
:10807000FEF75DBF15F0D8FE040053D02978771EB7
:108080004FF001090D2973D009DC0C2915D2DFE866
:1080900001F014EF143114EE14ED148614F01729C6
:1080A00067D006DC0F2978D0112952D0132904D1CA
:1080B00067E1192972D01D295CD0FBA0FCF7B3FE43
:1080C00028788DF808908DF80900002006218DF899
:1080D0000A008DF80C108DF80B0000900190A0891B
:1080E000052302AA042104F0EBFC0AB0BDE8F04726
:1080F00000F0B8BCB5F8015004F0C4F9854200D2D4
:108100002846E08284F81890DAF8005095B1AB2048
:108110008DF8000004208DF80100A089ADF8020060
:10812000E08A00E0F7E1ADF804000623A1896A4681
:108130000420A8474046FEF7DDF9E64800788007AE
:10814000D3D4E08A0022001D81B2A089FFF738FD58
:10815000CBE720780228C8D132462946204616F0BF
:10816000C1FC69782046711A294401224988A7E098
:108170000FE13CE14746B5F80180EA1CF61E414696
:10818000A82016F0ADFD0246F61CB3B241463846B3
:10819000FEF7CDFE84F85190A7E76AE15BE1207815
:1081A0000C281BD011DC062801D008289DD13246AE
:1081B0002946204616F049FC3146284600F09CFF2F
:1081C0000146204619F012FD8FE7142833D02428E9
:1081D0008BD16888A4F84C0025203AE195F80180FD
:1081E000B8F1070F07D26888A085A8882086E8889C
:1081F00060860D202DE1022716E000BFE91935F851
:1082000007904A8822868A886286C98801A819F060
:10821000D1FD01A80090638E228E49462046FEF7CC
:10822000BAFE07EB080087B2B742E7D36978204669
:10823000711A695A43E095F8018000210227A8F1DC
:10824000020A0DE035F80790EA191FFA8AF3921C2A
:108250004946204616F0EAFB07EB0800494687B27C
:10826000B742EFD3204613222AE002E035E04CE08B
:1082700009E120780E2814D0102824D028288BD18A
:10828000204600F07DFA218F6A1CA92016F028FDF7
:1082900002460837BBB2A189A068FEF73FFE002165
:1082A00035E101A9681C16F05BFCA18D01AA0092C2
:1082B0002046638E228EFEF76EFEA18D20460B2295
:1082C00019F0B4FC11E7204600F05AFABBB2218F36
:1082D0006A1C204616F0AAFBE1E74FF004094FF6AE
:1082E000FF78012704F11C0A09E0E819E95B4088DE
:1082F0005346804602462046FEF76EFE4F44B74284
:10830000F3DB204641460322DAE768780427022897
:1083100000D11227F01B35F800A0AD1CB61E1FFAC5
:1083200086F8002622E000BF35F80690042F05EB02
:10833000060021D0801C06A916F012FCA4228DF89C
:10834000002014228DF80120A289ADF8022006A990
:10835000ADF8049010220DF10600FBF7C7FFA189CC
:1083600016236A46A068FEF7D9FD3E444645DBDB8E
:10837000204651460922A3E7418806A819F01AFDB4
:10838000DCE72078182803D0262801D02C2899D1A2
:10839000ACE0761E2078B6B2761DBFB2122815D09A
:1083A0002A288FD1218F628F6B1CAA20009716F08C
:1083B000A5FC020004D0B3B2A189A068FEF7AEFD0F
:1083C0003A462921204619F0F9FB8EE6218F628F6B
:1083D0006B1CA620009716F091FC020004D0B3B2EB
:1083E000A189A068FEF79AFD3A461121EAE72078B4
:1083F0001A2812D01C281CD02E2814D03228E4D1E0
:10840000204600F0BDF932462946204603F080F8A8
:1084100000287FF461AF7E2179E0B5F803001D22CA
:108420006087192110E0B5F803002F2260872D2105
:108430000AE032462946204603F06AF840B1B5F812
:1084400003001D2260871B21204619F0DEFB4CE64D
:108450002120207049E620781E2847D0202845D0CA
:10846000222802D03028B0D140E0204600F088F920
:10847000D1E720781628A8D1BBB26A1C002120467B
:1084800016F0D4FA32E029790A292BD1207808286D
:1084900030D021DC022829D0042827D0062821D179
:1084A00028E00000BC0000204154542048616E6464
:1084B0006C65722C20756E68616E646C65642072E8
:1084C0006573706F6E7365207479706520307825E0
:1084D00030327800B80000200A2807D00C2805D0D8
:1084E00014280CD0204600F0ACFAFEE5204600F03F
:1084F00047F9D4E6E18D2046FEF7AEFBF6E72046CD
:1085000000F03EF9A08D218E8842F2D10A2120464A
:10851000FEF72EFDE9E50AB0BDE8F08710B5044688
:10852000084615F0BBFC18B1017819B1952010BDB3
:10853000562010BD1F218460017000F093FA0020C6
:1085400010BD70B505461446084615F0A7FC18B1D5
:10855000017819B1952070BD562070BD8560618885
:10856000A288914203D10021FEF702FD07E0491CD9
:108570008185A188C1850921017000F073FA00206E
:1085800070BD2DE9F04107461D4616460846DDF848
:10859000188015F083FC040004D0207820B19520C9
:1085A000BDE8F0815620FBE7A760A685E5850120A0
:1085B00084F85000002565831022414604F11C0018
:1085C000FBF794FEE5860720207000F04BFA0020B0
:1085D000E6E72DE9F04107461D4616460846DDF858
:1085E000188015F05BFC040004D0207820B19520A1
:1085F000BDE8F0815620FBE7A760A685E585012050
:1086000084F85000A4F81A80414604F11C0019F0C7
:10861000D1FB0020E0860720207000F023FA002024
:10862000E6E770B506461C461546084615F036FCCA
:1086300018B1017819B1952070BD562070BD8660C3
:108640008585C485002180F85010C1860521017000
:1086500000F008FA002070BD10B50446084615F079
:108660001DFC18B1017819B1952010BD562010BD20
:108670000121846081854FF6FF72C285017000215F
:10868000418300F0EFF9002010BD70B50546164695
:10869000084615F003FC040003D0207818B195209B
:1086A00070BD562070BD0120A560A0854FF6FF70FB
:1086B000E085002060831022314604F11C00FBF7A6
:1086C00015FE0320207000F0CDF9002070BD70B5BC
:1086D00005461446084615F0E1FB18B1017819B1BA
:1086E000952070BD562070BD0121856081854FF6B3
:1086F000FF71C18503210170448321461C3019F0AC
:1087000059FB00F0AFF9002070BD10B504460846D3
:1087100015F0C4FB18B1017819B1952010BD562091
:1087200010BD1D218460017000F09CF9002010BD77
:1087300070B506461C461546084615F0AFFB18B145
:10874000017819B1952070BD562070BD8660858571
:10875000C4850B21017000F085F9002070BD00B5C3
:108760000A4600F0BFFC10B1017E012903D017209A
:108770001080952000BDC08A1080002000BD000040
:1087800010B500210170044681890448FCF74BFBB9
:1087900004F16000BDE81040FEF724B9AC3B0200D4
:1087A00070B5042817D11078052810D1B2F80350FD
:1087B000284600F097FC040009D01F2100F041F981
:1087C0000549002041F825002046FEF74FF8BDE896
:1087D000704000F047B970BD88680020064910B5A8
:1087E00004484860084601F0C9FEBDE8104003484F
:1087F000FDF7E2B8A1870000C00000201180000052
:1088000010B515F011FB002802D0007808B1002047
:1088100010BD012010BD70B504460D46104600F095
:1088200061FC002807D0656023812146BDE87040C7
:10883000001DFDF7B5BF70BD2DE9F0410646DDE92D
:1088400006781C461546084615F028FB20B101782D
:1088500021B19520BDE8F0815620FBE786600587B1
:10886000878744873121C0F84080017000F0FAF812
:108870000020EFE770B505461446084615F00EFBDC
:1088800018B1017819B1952070BD562070BD856072
:1088900004872721017000F0E5F8002070BD002357
:1088A000AFF3008070B506461C461546084615F025
:1088B000F5FA18B1017819B1952070BD562070BD38
:1088C0008660058744872921017000F0CBF80020DD
:1088D00070BD0023AFF3008070B506461C461546F8
:1088E000084615F0DBFA18B1017819B1952070BD72
:1088F000562070BD8660058744871121017000F005
:10890000B1F8002070BD70B506461D4614460846F5
:1089100015F0C4FA18B1017819B1952070BD562030
:1089200070BD8660A0F8444015218564017000F098
:1089300099F8002070BD70B505461446084615F03C
:10894000ADFA18B1017819B1952070BD562070BDEF
:1089500085600487002141870F21017000F082F8B3
:10896000002070BD2DE9F04107461D461646084619
:10897000DDF8188015F092FA040004D0207820B1B8
:108980009520BDE8F0815620FBE7A760A685E58528
:1089900026866586002060831022414604F11C0073
:1089A000FBF7A4FC1320207000F05CF80020E8E73F
:1089B0002DE9F04107461D4616460846DDF81880A9
:1089C00015F06CFA040004D0207820B19520BDE8A1
:1089D000F0815620FBE7A760A685E585268665869B
:1089E000A4F81A80414604F11C0019F0E3F91320A1
:1089F000207000F037F80020E9E700000149086026
:108A000070470000BC0000202DE9F04106461C46DE
:108A100015460846069F15F041FA20B1017821B1AC
:108A20009520BDE8F0815620FBE7866005878487A6
:108A3000002141871B210764017000F013F800201A
:108A4000EFE770B5044600780D46002808D02046B0
:108A5000FFF796FE29462046BDE87040FEF788BA2B
:108A600070BD00002DE9F04F002689B04FF01E09BF
:108A70004FF0040A4FF0020B37464FF00808CD487C
:108A800050F82640002C6ED0A089FCF78FFF40B133
:108A90002278217EC8A0FCF7C6F9207E012862D189
:108AA00005E0A08909B0BDE8F04FFCF782BF94F85B
:108AB000510040B184F85170A0898DF8089000975A
:108AC0000123019789E02078172801D02B2818D19D
:108AD000204614F0D3FFA18FC01E884211DA204631
:108AE00014F0CCFF0246A18FC1A0FCF79CF92046F0
:108AF000FFF746FE09B02046BDE8F04F0D21FEF716
:108B000037BA606D04F080F905462178C3A0FCF700
:108B10008AF92078362826D2DFE800F09E1B9E26B0
:108B20009E469E499E519E649E709E749E769E783F
:108B30009EA39EB69EB89EBC9EBE9EC19EC39ECB6B
:108B40009EED9ED39EDD9EE59EFE9EFC9EBA9EFB04
:108B50009EFA84F800B0E08D0090A38DA2894FF4B6
:108B60002051102047E077E084F800A0608B4FF49C
:108B7000205530B1ADF81C00E18D07AA8DE806083C
:108B800009E003A904F11C0015F0EAFFE08D1022B2
:108B900003A98DE80700A38DA28929460620FDF7C9
:108BA0002DF809B0BDE8F08F0620207001E084F8B0
:108BB000008009B02046BDE8F04F16F004B884F8F4
:108BC0000080A089A18DE28D8DF808A0ADF8091074
:108BD000ADF80B2000970523019702AA042103F0AA
:108BE0006FFFDEE70C202070E08D0090A38DA2893E
:108BF00042F602010820FDF744FAD2E70E20207069
:108C0000228E61E010205DE0122065E014202070CB
:108C1000618B204639B1C28D0092838DA2890820D4
:108C2000FDF72FFA18E000F11C028589818DE08D97
:108C30008DF80880ADF80910ADF80B000DF10D01AD
:108C4000104615F08DFF0097152302AA042128462F
:108C5000CDF8047003F034FF761C082EFFF40FAF3C
:108C60009FE716202070A089B4F844100E23A26C50
:108C70008DF808304FF6FF7303EA4101CDE900217A
:108C8000012302AA0421E5E718202DE01A2044E080
:108C9000322042E01C2040E084F8009046E0202092
:108CA00000E02220207009B02046BDE8F04F15F00A
:108CB00085BF2420207009B02046BDE8F04F15F094
:108CC000C2BF28202070228FA18909B00A20BDE8E8
:108CD000F04FFDF7EBB92A20207009B02046BDE81F
:108CE000F04F15F09BBF2C20207009B02046BDE846
:108CF000F04F15F0B3BF2620207004F14E00009015
:108D0000B4F84C20A18902231220FDF751FC48E75A
:108D100026E011E008E0FFE72E20207009B0204691
:108D2000BDE8F04F15F05FBF3020207009B020463D
:108D3000BDE8F04F15F052BF16F00EFC00288FD0A2
:108D400034202070A86D216C01AB0091394A15C305
:108D5000A38F228FD22105F1480016F007FC20E7EF
:108D600036202070A96DB4F80C90228FB4F83C80A6
:108D7000D223266C8DF81030ADF81120059104F146
:108D800058000DF1140A06A915F0F6FE0C20CDE9E5
:108D900002A0CDE90068032304AA0421484603F099
:108DA000D7FE27702046FFF7EBFCA86D401CA86596
:108DB000F7E60000886800202D2068616E646C650D
:108DC0005F7065726970686572616C5F6C697374FD
:108DD0002C206D74752073746174652025752C20AA
:108DE000636C69656E742073746174652025750009
:108DF000676174745F636C69656E745F72756E3AF7
:108E00002076616C7565206C656E202575203E208E
:108E10004D5455202575202D20330A006761747448
:108E20005F636C69656E745F73746174652025752A
:108E300000000000E56400002DE9F04707461D46EC
:108E4000164689460846DDF8208014F0EDFF0446FA
:108E5000007850B9484617F0F5F8014660650AA059
:108E6000FBF7E1FF606D002802DA9520BDE8F0878E
:108E7000A7602687A5873320C4F840802070FFF7BD
:108E8000F1FD0020F2E700006C655F6465766963C0
:108E9000655F6B6579206973203A307825780A0020
:108EA00070B50A4E0546002456F82400A84207D1A2
:108EB000A98907A0FBF7B7FF7F212846FFF7C1FD6F
:108EC000641CA4B2082CEFD370BD00008868002099
:108ED0004741545420636C69656E742074696D65F4
:108EE0006F75742068616E646C652C2068616E64B7
:108EF0006C65203078253032780000002DE9F04193
:108F000006461C4615460846069F14F0C7FF20B1CA
:108F1000017821B19520BDE8F0815620FBE78660FD
:108F200005878487002141872B2107640170FFF7A3
:108F300099FD0020EFE770B506461D461446084629
:108F400014F0ACFF18B1017819B1952070BD56200E
:108F500070BDE90704D0A179C90601D4982070BD7D
:108F6000A90704D5A179890601D4992070BD86602E
:108F700061888185A188C185A0F84E5023210170A8
:108F8000FFF770FD002070BD1CB5049CCDE90034D6
:108F9000002300F001F81CBD2DE9F0410646DDE993
:108FA00006781C461546084614F078FF20B1017873
:108FB00021B19520BDE8F0815620FBE7866005874A
:108FC000878744872D21C0F840800170FFF74AFD54
:108FD0000020EFE71CB5049CCDE90034002300F02D
:108FE00001F81CBD2DE9F0410646DDE906781C4676
:108FF0001546084614F052FF20B1017821B19520A2
:10900000BDE8F0815620FBE78660058787874487A7
:109010001921C0F840800170FFF724FD0020EFE720
:109020002DE9F04106461C4615460846069F14F0F9
:1090300035FF20B1017821B19520BDE8F08156209F
:10904000FBE7866005878487172107640170FFF7B7
:1090500009FD0020F1E7F8B51E4615460F4614F04D
:10906000E3FE040003D0207818B19520F8BD562007
:10907000F8BD204614F002FDC01EA84201DA972078
:10908000F8BD0096A1892B463A465220FDF790FA8A
:10909000C0B2F8BDF0B5002423460125C65C00220D
:1090A00005FA02F73E4207D08C4203D102EBC3001F
:1090B000C0B2F0BD641CA4B2521CD2B2082AEFD3D5
:1090C0005B1CDBB2052BE9D3FF20F0BD10B580B2ED
:1090D00014F020FD18F096FB0028FBD1BDE81040ED
:1090E00018F082BB082803D2024951F820007047CB
:1090F00000207047886800204278891A0844B0F838
:10910000030070472DE9FC41164C18271E46D4F881
:1091100008C0BCF1000F11D04978D9B121780025E1
:1091200079B1FCF7E7FB237862882570658002B08F
:1091300039463046BDE8F04115F0D8BD0323002282
:10914000F5E7002300950195B0F8060102221946C3
:10915000E04701E0FCF7CEFB192030700120BDE8AC
:10916000FC810000900000202DE9FF4F87B01D46D4
:10917000DDE914738946824600264FF0060B012470
:10918000B0463A4629463248FBF74AFEBD4204D86B
:109190001DB1DAF82401009046E0012351E0684651
:1091A000FCF750FEBDF8080008B1A8423CD3B84215
:1091B0003DD8CEB158B14FF420516846FCF78BFE34
:1091C00028B942F601016846FCF785FE60B14146C8
:1091D00020A0FBF725FE29F80480A41CA4B209995D
:1091E0000026201D884222D8BDF808005FEA00084A
:1091F0001AD068461599FCF76EFEA8B1BDF810208C
:109200001698824210D105991798FBF7A8F858B91B
:10921000BDF8081016A0FBF703FEBDF8081029F8EA
:109220000410A41CA4B2012600980028B7D1012C78
:1092300006D0072189F8001020460BB0BDE8F08F5A
:109240000A232A465946484615F050FDF5E7000026
:10925000003A0200456E64206F662067726F757079
:109260002C2068616E646C6520307825303478007D
:10927000426567696E206F662067726F75702C207B
:1092800068616E646C6520307825303478000000A9
:109290002DE9F04F87B09346109F884681461E46C1
:1092A0004FF0040A012400253A46194628A0FBF78E
:1092B000B7FDBE4204D81EB1D9F82401009033E0B6
:1092C00001233EE06846FCF7BDFDBDF8080070B321
:1092D000B8422CD8B04227D3BDF80610880501D576
:1092E000102000E00220012C02D9A84221D109E07F
:1092F00008D10546880501D5022100E0012188F842
:10930000011002246019801C584510D8BDF80810BF
:1093100028F80410A41CA4B208EB04002A46039900
:10932000FAF7E4FF601984B200980028CAD1012C32
:1093300006D0052088F80000204607B0BDE8F08F71
:109340000A2332465146404615F0D0FCF5E70000AE
:109350004154545F46494E445F494E464F524D4139
:1093600054494F4E5F524551554553543A20667209
:109370006F6D202530345820746F2025303458000C
:109380002DE9F04F2C4C8346B1F80150B1F803A001
:10939000A06889B0984691460E46162758B12A46CD
:1093A00002A95846FCF741FC38B1BDF80E00010790
:1093B00001D5C00503D403231DE001231BE002A94E
:1093C0005846FDF7C3F808B1034614E0A9F10500BB
:1093D000711D80B2CDE90010D4F808C0BBF80601B9
:1093E000534601222946E04710F0FF0319D0072B0E
:1093F00009D00D2B07D02A463946404615F076FC99
:1094000009B0BDE8F08F0D2B02D0072B06D008E085
:1094100020780D2805D02370658002E02078002890
:10942000F9D04A4631464046FAF760FF172188F8DE
:1094300000104846E4E70000900000202DE9F043CA
:1094400087B016460E9D0C46074699464FF00C080D
:109450002A46194625A0FBF7E3FC4A4601A93846EF
:10946000FCF7E3FB28B1BDF80A00800703D4022310
:1094700007E0012305E001A93846FDF767F803007E
:1094800007D04A464146204615F030FC07B0BDE8FB
:10949000F083B7F8061101A8FDF742F8BDF81400F3
:1094A000A0F57F41FF3902D10020ADF8140080B251
:1094B000A84201D20723E4E7401C401BB04203DD71
:1094C0007019401EADF81400B7F806010090BDF801
:1094D0001400621C401B83B2294601A8FCF744FA21
:1094E000401C0D2180B22170D0E700004154545F30
:1094F000524541445F424C4F425F5245515545539E
:10950000543A2068616E646C6520253034782C20D4
:109510006F66667365742025750000002DE9FF4FA6
:1095200089B00024DDF858901020CDE906041E46CD
:109530008A460125A0460894A3464A463146434838
:109540000B9BFBF76DFC4E4513D896B1DDE9170771
:10955000022810D0384601F0BBFF40B1B7F80C002C
:109560004FF42057B84208D0791C884205D0102308
:1095700066E0012364E03888F2E70998D0F8240116
:10958000009050E06846FCF75DFCBDF8080008B1AB
:10959000B04248D3484549D8B8F1000F23D050B164
:1095A00039466846FCF797FC28B942F6010168463F
:1095B000FCF791FCB8B108992AF80510AD1CA8B2C7
:1095C0002AF800B0801C85B20AEB0500221F07991B
:1095D000FAF78CFE2819001F85B20B9829194FF055
:1095E0000008814222D8BDF808005FEA000B1AD0BB
:1095F000DDE917216846FCF749FCA0B1BDF8100071
:10960000001D80B2012D02D9A04211D104E003D186
:1096100004468AF801000225BDF808000890059864
:109620004FF00108079000980028ABD1012D06D01B
:1096300011208AF8000028460DB0BDE8F08F0A23FB
:1096400032465046069915F051FBF5E7483A0200BC
:109650002DE9FF4F87B08846149F81464FF0000ADE
:109660001D464FF0080B012456463A4619463FA0C6
:10967000FBF7D6FBBD4204D81DB1D9F824010190F7
:109680005CE0012366E001A8FCF7DCFBBDF80C0000
:10969000E8B3A84252D3B84253D8DDE9152101A856
:1096A000FCF7F4FBA0B3BDF80A00800703D47EBB2F
:1096B000BDF80C6042E001A94846FCF747FF0300F3
:1096C00002D0012C3FD845E0B9F8061101A8FCF7FB
:1096D00027FFBDF81400A0F57F41FF392ED0801C74
:1096E00080B2012C02D982452DD104E003D18246FB
:1096F00088F801000224099804EB0A0181420AD982
:10970000022C20D8001FADF81400801C01E018E0E6
:1097100014E088F80100BDF80C1028F80410B9F81E
:109720000601A41C0090A4B2BDF8143008EB04029A
:10973000002101A8FCF718F9204484B20198002800
:10974000A1D1012C08D9092188F8001020460BB0BE
:10975000BDE8F08F2A4602E036B102233246594670
:10976000404615F0C3FAF2E70A23F3E74154545F89
:10977000524541445F42595F545950455F524551EB
:10978000554553543A2066726F6D20253034582069
:10979000746F20253034582C20747970653A20007D
:1097A0002DE9FF4F87B0884683461F464FF00E09CC
:1097B0000124194628A0DDF850A0FBF731FB002555
:1097C00043E000BF3AF815605EB1324601A9584641
:1097D000FCF72BFA28B1BDF80A00800703D4022356
:1097E00007E0012305E001A95846FCF7AFFE03009E
:1097F00007D032464946404615F078FA0BB0BDE82E
:10980000F08FBBF8061101A8FCF78AFEBDF8140022
:10981000A0F57F41FF3902D10020ADF8140080B2DD
:1098200001190998814202D9401EADF81400BBF815
:1098300006010090BDF8143008EB0402002101A8D5
:10984000FCF792F8204484B26D1CBD42BADB0F21B4
:1098500088F800102046D1E74154545F52454144F6
:109860005F4D554C5449504C455F524551554553F9
:10987000543A206E756D2068616E646C65732025A6
:10988000750000002DE9F04387B015460C460646EA
:1098900099464FF00A081A4601A9FCF7C6F907468F
:1098A00049461EA0FBF7BCFA2FB1BDF80A0080079D
:1098B00003D4022307E0012305E001A93046FCF7A9
:1098C00045FE030007D04A464146204615F00EFAF1
:1098D00007B0BDE8F083B6F8061101A8FCF720FE3A
:1098E000BDF814004FF6FF71884201D10846EFE73A
:1098F000401CA84202D96D1EADF81450B6F80601FE
:109900000090BDF81430621C002101A8FCF72CF86F
:10991000401C0B2180B22170DAE700004154545FF3
:10992000524541445F524551554553543A20686170
:109930006E646C6520253034780000002DE9F0411C
:10994000154F8046B1F80150B86888B016460C46ED
:1099500000281ED02A4602A94046FCF766F90028D6
:1099600017D0BDF80E00C10513D5400711D502A9C7
:109970004046FCF7EBFD00280BD1F61EE41CB0B20C
:10998000CDE900400023BC68B8F806011A46294614
:10999000A04708B0BDE8F081900000202DE9F04715
:1099A000B1F8015088B090460C461E4681464FF0F3
:1099B000120A2A4602A9FCF738F950B1164FB868C6
:1099C00028B1BDF80E00010701D5C00503D403235B
:1099D00016E0012314E002A94846FCF7B7FD030096
:1099E0000ED1A8F1030080B2E41CCDE90040BC68B0
:1099F000B9F806011A462946A04710F0FF0307D020
:109A00002A465146304615F071F908B0BDE8F08796
:109A1000132030700120F8E790000020AFF30080A1
:109A20002DE9F0411E4F002600F1130497F8241091
:109A30003546491C87F82410017CB9B1012923D08F
:109A4000032917D0042925D040F2A11215A1002026
:109A5000FBF746FF0E202070E81C607097F824008A
:109A6000A070A4F80360681DBDE8F081806811490A
:109A7000193804E080681049A0F54030293801EB1E
:109A8000C00046884578E5E780680C49A0F580303D
:109A90001338F4E780680A49A0F58020801EEEE7BD
:109AA000C8760020626C655F686369635F6D736789
:109AB0002E630000EC4602008C470200944802002E
:109AC0006C4902002DE9F0411F4F054600F11204D8
:109AD00097F824000026401C87F82400287CC0B199
