:020000040000FA
:10400000007F00206542000083420000CD40000098
:1040100087420000894200008B420000000000003F
:10402000000000000000000000000000F14000005F
:104030008F4200000000000035410000114F0000D9
:10404000F1DC010029DD0100F1DE010095420000F4
:10405000FDDE010009DF010015DF010095420000CF
:104060009542000021DF01009542000095420000CA
:1040700095420000954200002DDF010039DF01006C
:1040800045DF010051DF01005DDF010069DF010054
:1040900095420000954200009542000095420000C4
:1040A00095420000954200007DDF0100954200002E
:1040B0009542000000600200DFF80CD000F0F8FB31
:1040C0000048004705D10100007F00201EF0040FCA
:1040D0000CBFEFF30880EFF3098081694EF2117293
:1040E000C0F20102104730B5804730BD00BF00006C
:1040F000224B19680868B0E8F00F80F30988BFF315
:104100006F8F4FF0000080F311884EF00D0E704756
:10411000000000000648006880F3088862B661B6B7
:10412000BFF34F8FBFF36F8F00DF00BF00BF00BF33
:1041300014000020EFF30980BFF36F8F0F4B1A6854
:1041400020E9F00F106008B54FF0200080F31188CF
:10415000BFF34F8FBFF36F8F1EF088FB4FF000004F
:1041600080F31188BDE8084019680868B0E8F00FCE
:1041700080F30988BFF36F8F704700BF28000020CD
:10418000EFF30580704700002DE9FF5FEFF310802B
:10419000EFF31181EFF31282EFF313830FB445F2C3
:1041A0000470C2F200001A490160EFF30881EFF3D6
:1041B0000982EFF31483EFF3038441608260C360EC
:1041C00004611448016841F001010160BFF34F8FA1
:1041D00030BFBFF36F8F104841688268C3680469BD
:1041E00081F3088882F3098883F3148884F30388B1
:1041F000BFF34F8FBFF36F8F0FBC80F3108881F335
:10420000118882F3128883F31388BDE8FF5F70473B
:10421000D3410000040309400457002040BA70470E
:1042200040BA704740BA704740BA704740BA7047CA
:1042300040BA704740BA704740BA704740BA7047BA
:10424000C0BA7047C0BA7047C0BA7047C0BA7047AA
:10425000C0BA7047C0BA7047C0BA7047C0BA70479A
:10426000C0BA70470C48016811F0010F07D04FF039
:10427000010221EA0201016008480068004708487D
:104280000047FEE7FEE7FEE7FEE7FEE7FEE7FEE7A4
:10429000FEE7FEE7FEE7000064010440045700204B
:1042A000B94000002DE9F0035FEA930C67D000BF2E
:1042B00030F9024B31F9026B30F9025B31F9027BC4
:1042C00004FB06F805FB07F94FEA6848A8EB6948C4
:1042D0007C4322F8028B6414754304EB654422F896
:1042E000024B30F9024B31F9026B30F9025B31F9C4
:1042F000027B04FB06F805FB07F94FEA6848A8EBC8
:1043000069487C4322F8028B6414754304EB6544CE
:1043100022F8024B30F9024B31F9026B30F9025BA3
:1043200031F9027B04FB06F805FB07F94FEA684800
:10433000A8EB69487C4322F8028B6414754304EBB4
:10434000654422F8024B30F9024B31F9026B30F927
:10435000025B31F9027B04FB06F805FB07F94FEA23
:1043600068487C43A8EB69486414754322F8028BC3
:1043700004EB654422F8024BBCF1010C98D113F018
:10438000030304BFBDE8F003704700BF30F9024BE0
:1043900031F902CB30F9025B31F9026B04FB0CF707
:1043A0007F1405FB06F87443A7EB6847641422F8F2
:1043B000027B05FB0CFC04EB6C4C22F802CB5B1E71
:1043C000E4D1BDE8F00370472DE9F05F0546002019
:1043D00092469B4688460646814640241BE0284676
:1043E00041464746224600F09EF853465A46C01AB8
:1043F000914110D311461846224600F085F82D1A37
:1044000067EB01084F4622460120002100F07CF8AE
:1044100017EB00094E41201EA4F10104DFDC4846E1
:1044200031462A464346BDE8F09F00000649074A48
:104430000868504343F2390210440860400870474E
:104440000149086070470000880300206D4EC64196
:1044500010B5431A934209D28318881803E010F864
:10446000011D03F8011D521EF9D210BD40EA0103DF
:104470009B0703D009E008C9121F08C0042AFAD21A
:1044800003E011F8013B00F8013B521EF9D210BDC8
:10449000D2B201E000F8012B491EFBD27047002286
:1044A000F6E710B513460A4604461946FFF7F0FF33
:1044B000204610BD421C10F8011B0029FBD1801AB8
:1044C000704730B504460020034600E05B1C934271
:1044D00003D2E05CCD5C401BF8D030BD30B50B465C
:1044E000014600202022012409E021FA02F59D4224
:1044F00005D303FA02F5491B04FA02F52844151EF8
:10450000A2F10102F1DC30BD202A04DB203A00FADE
:1045100002F1002070479140C2F1200320FA03F31A
:10452000194390407047202A04DB203A21FA02F018
:104530000021704721FA02F3D040C2F120029140DD
:104540000843194670472DE9FE4F804681EA030073
:10455000C00F0C46009021F0004123F00045B8EB5D
:104560000200A94105D24046214690461C460B4612
:10457000024623F00040104304D14046214603B0D8
:10458000BDE8F08F270DC7F30A00C3F30A5102906C
:10459000401A0190402866DAC3F3130040F4801BF0
:1045A0000098924620B10023D2EB030A63EB0B0B79
:1045B00001985946C0F140025046FFF7A5FF064654
:1045C0000D4650465946019A00F084F910EB080058
:1045D0006141002487EA115284EAE7731A433BD011
:1045E000009A3AB3019A012A4FEA075210DC001BE5
:1045F00061EB02014FF0004202EA0752CDE90042AE
:10460000001C41F5801132462B4600F082F9B6E7D6
:10461000001B61EB0201001C41F5801300185B4197
:104620002018A2F5001747EB030140EAD570B61930
:104630006D4111E06D084FEA360645EAC0754FEA54
:104640000752001B61EB0201001C41F58011490873
:104650004FEA30000019514132462B4603B0BDE805
:10466000F04F00F049B90098012240000023D0EB40
:10467000020263EBE073009821464FEAE074B8EB66
:10468000000061EB0401E9E783F000435BE781F0A0
:10469000004158E72DE9FE4F81EA030404F000448D
:1046A00021F0004100944FF0000B23F0004350EA4A
:1046B000010402D052EA030404D10020014603B0F1
:1046C000BDE8F08FC3F30A54C1F30A552C44A4F299
:1046D000F3340194A0FB0254C1F3130141F480119F
:1046E000C3F3130343F4801301FB024400FB034EA6
:1046F000840A970A44EA815447EA8357A4FB07686F
:1047000002958D0A05FB07854FEA932C04FB0C5498
:104710002705029D4FEA065847EA1637B5EB08050C
:104720006EEB070C870E920E47EA811742EA83125E
:10473000A7FB0201B6EB0B0164EB00042B0D43EA6F
:104740000C335E1844EB1C50DA465146E7FB02017D
:10475000C5F313044FEA0B3343EA14534FEA043210
:10476000019C43EA0603A4F10C040294009CCDE9E9
:1047700000B400F0CEF8A2E72DE9F04D81EA030481
:1047800004F0004B21F0004514464FF0000A23F0DE
:10479000004150EA050220D054EA01021DD0C5F3C1
:1047A0000A570246C5F31303C1F31300C1F30A56B7
:1047B00040F4801543F48013A7EB0608101BD6467F
:1047C00008F2FD3873EB050002D308F1010801E09F
:1047D00092185B41B8F1000F03DA00200146BDE8F2
:1047E000F08D00204FF48011064684460EE0171B22
:1047F00073EB050705D3121B63EB050306434CEA75
:10480000010C49084FEA300092185B4150EA010759
:10481000EDD152EA030012D082EA040083EA0501D6
:10482000084303D100224FF0004308E0101BAB41C6
:1048300002D20122002302E06FF0010253101AEBB2
:1048400006004CEB085110EB0A0041EB0B01BDE8F0
:10485000F04D00F051B8C1F30A52C1F3130140F218
:10486000FF3341F480119A4202DA0020014670477A
:1048700040F233439A42A2F2334202DC5242FFF743
:1048800052BEFFF741BE000030B5002904DB4FF0F7
:104890000044404264EB0101002B04DB4FF0004474
:1048A000524264EB0303994208BF904230BD0000BE
:1048B000064C074D06E0E06840F0010394E807006D
:1048C00098471034AC42F6D3FFF7FAFB6454020069
:1048D00084540200202A06DBCB17203A41FA02F06A
:1048E00043EAE07306E041FA02F3D040C2F120024D
:1048F000914008431946704710B5002B08DA401C58
:1049000041F1000192185B411A4301D120F00100EE
:1049100010BD2DE9F04D92469B4611B1B1FA81F2DE
:1049200002E0B0FA80F220329046FFF7EDFD044637
:104930000F4640EA0A0041EA0B0153465A46084333
:1049400003D120463946BDE8F08D114653EA0100F7
:1049500015D0C8F140025046FFF7E5FD05460E466A
:10496000504659464246FFF7CFFD084301D001208B
:1049700000E00020054346EAE0762C4337430A98DE
:104980004FEA4453A0EB08004FEAD4240A304FF01A
:10499000000244EA47544FEAD72502D500200146D9
:1049A000D1E7010510196941DDE9084500196941A0
:1049B000BDE8F04DA0E770B501EB020410F8015B13
:1049C00015F0070301D110F8013B2A1106D110F8A8
:1049D000012B03E010F8016B01F8016B5B1EF9D1AC
:1049E0002B0705D40023521E0FD401F8013BFAE730
:1049F00010F8013B02F10202A1EB030303E013F8FC
:104A0000015B01F8015B521EF9D5A142D6D300200B
:104A100070BD000070B51349D1E9000105F02EFE0C
:104A2000002001F0ABFE104C4FF0FF360F4D11E0AF
:104A30002078000604D50022114604201DF056F906
:104A400001F0BAFE2078000604D5002211460520A8
:104A50001DF04CF9314628681EF044FC0028E7D1CF
:104A600070BD0000B83A02002000002004000020C1
:104A70000348006810F0FF0F01D11DF079BC7047AA
:104A800004ED00E00348006810F0FF0F01D11DF0B5
:104A90008FBC704704ED00E010B50C46091D8AB2CA
:104AA000FB2A00D9FB22014644F29023024806F07B
:104AB000D3F8E0B210BD00001041020010B5C36889
:104AC000D9B280290FD98468E06800B101204F2253
:104AD00013A100F0B1FFE16819B12069BDE81040F1
:104AE000084772B6FEE70446008A616982B2D8B20E
:104AF000124B1B68984706F0C5F900280FD1E068F3
:104B0000022806D004280AD1A069BDE8104006F0AA
:104B1000B3B9A08BA169BDE8104006F0ABB910BDD8
:104B20004863695F696E7465726E616C5F7472610F
:104B30006E73706F72742E6300000000C801002055
:104B40001FB5416899B1052911D00A290ED10A4C27
:104B50001ECC8DE81E00C168019141690291008A56
:104B6000ADF80C001021684605F0D2FF1FBD04B05F
:104B7000BDE81040FFF7A2BFD04102002DE9FE4F73
:104B8000044606F0A9F908B1002000E00220494ED1
:104B900000278346B8464FF00109A6F1EC0A7CBB1A
:104BA0005920BDE8FE8FE38F03B351B3431AA08EA3
:104BB000834200DC184685B202EBC20000EB021211
:104BC0000AEB82000144208E7080B4F84A0040B3A2
:104BD000358004208DE82300284482B25946608D38
:104BE000334606F06FFB47B2D7BB25E032496FF082
:104BF000050081F8018081F8009081F80380D0E7FA
:104C000024E0FFE7A18E8B1E984201DD891E00E0A3
:104C100001468DB202EBC20000EB02110AEB8101EA
:104C2000D1E7A81C308094F8430004EB4000B0F8B2
:104C30004600B0800620CDE7B4F84A00012228449F
:104C4000A4F84A001146204600F054F894F8432096
:104C5000B4F84A1004EB4200B0F846008142A2D3F7
:104C600094F84300B4F84A1004EB4000B0F8462032
:104C700091421CD14334A4F80780A0F846802078E4
:104C800000EBC00101EB00110AEB81006421FFF78A
:104C900006FC21786078433C814204D1FF204334F4
:104CA0006070207003E029EA010084F84300384670
:104CB00077E70000CC4D0020E800002010B590F808
:104CC00020200B2A11D090F84510012901D0002096
:104CD00010BD0749002301244B700C70CB700A2AC9
:104CE00003D1C08D002106F0F9FF012010BD0000A6
:104CF000E800002000290ED022B1C28F8A420BD3D7
:104D0000511A0AE0B0F840208A4201D3511A00E05B
:104D10000021A0F8401070470021C187704730B5CE
:104D200000290FD000234FF6FF7462B1C28F1144E7
:104D3000B1FBF4F504FB1514944213D8C387012189
:104D400080F8451030BDB0F840201144B1FBF4F5B7
:104D500004FB1514944202D8A0F8403030BDA0F8EE
:104D6000401030BDC18730BD2DE9F0411E461346CD
:104D70000D4602284AD1B5F84000254C4FF00108F5
:104D8000002730B322462178224892F901200129D8
:104D900010442DD032461946FFF75AFB6078304454
:104DA0006070B5F84000401EA5F8400094F901007D
:104DB000E178884227D183B26E68E98D154A0B20CD
:104DC000B047677084F80080E7702846FFF776FFE9
:104DD0000BE0677084F80080E77095F820000A28DF
:104DE00003D1E88D002106F079FF0120BDE8F081B4
:104DF0001978E1702770B21E991CFFF729FB6078C3
:104E00003044801ECCE72846FFF758FF0020EDE72E
:104E1000E8000020C74E0020074A131D5980116882
:104E200060F307011160106840F4007010601068B2
:104E30008005FCD4704700000804094000F01F0200
:104E40000121914040094FF0E02202EB8000C0F8C0
:104E50008012704700F01F020121914040094FF07D
:104E6000E02202EB8000C0F88011704700F01F02C2
:104E70000121914040094FF0E02202EB8000C0F890
:104E80000011704700F01F020121914040094FF0CE
:104E9000E02202EB8000C0F8001170474907090EBC
:104EA000002803DA00F00F00024A00E0024A8154B1
:104EB0007047000014ED00E000E400E0024A1140F9
:104EC000014302480160704780FFFF1F08ED00E0CA
:104ED00000B589B019F0F6FF816803910021CDE992
:104EE000011004480B464A1E694600681DF07EFE0C
:104EF00009B000BD080000200148006870470000AC
:104F00006801044001490872704700004C0100200C
:104F100010B5202080F31188BFF34F8FBFF36F8F40
:104F20001EF078FB18B104494FF080500860002053
:104F300080F3118810BD000004ED00E00FB4054BB4
:104F400010B503A9044A029800F0EAF810BC5DF815
:104F500014FB0000297600008C0300200FB4084BDE
:104F600010B504A902AA039800F0DAF8044602A9D1
:104F7000002000F078FC204610BC5DF814FB000017
:104F800067580000014B024A00F0CAB829760000B9
:104F90008C03002070477047704770477047704718
:104FA0007047704702E008C8121F08C1002AFAD1F2
:104FB00070477047002001E001C1121F002AFBD199
:104FC000704700002DE9FF5FDDE90220010DDDF8EB
:104FD00038B0024310D10F9801244CA2012808D008
:104FE000002100980F9BC0E90021C0E90243BDE801
:104FF000FF9F6FEA0B01F4E7A1F2FF3144F6105076
:1050000041430D140F9801280ED0A5EB0B00401C56
:105010004FF000043E4EDFF8FC90B0F1000AA046CD
:1050200005DACAF1000717E0CBF10000F0E7074608
:1050300012E0F80707D02246334640464946FFF7BC
:1050400029FB804689462246334610461946FFF71B
:1050500021FB04460E467F10002FEAD1DDE9020154
:10506000BAF1000F42464B4602DAFFF713FB01E0AC
:10507000FFF782FB04460E460022274BFFF704FC95
:1050800003D84FF0FF30014607E00022234B2046B3
:105090003146FFF758FAFFF7DEFB102409E0002C39
:1050A0000ADB0A220023FFF78FF9019B30321A55E1
:1050B000641E50EA0102F2D1641C019AC4F111038A
:1050C00014440F9A012A09D00122084301D15B45FB
:1050D0000FDD4FF0000205F101050DE0084303D19B
:1050E000A3EB0B056D1E09E000204FF0110B0F9094
:1050F00088E701DA00226D1E002A83D000980F99FC
:10510000C0E90231C0E9004571E70000300000004D
:10511000000024400000F03F0000F0430000E03FAA
:105120002DE9FF4F95B09B4689460646002512E2C1
:10513000252878D10024761CF94A274601210594B8
:105140003378203B01FA03F0104202D00443761C6E
:10515000F6E730782A2811D06FF02F033078A0F1CD
:105160003002092A16D8059A44F0020402EB8202A2
:1051700003EB42021044761C0590EFE759F8042B2C
:105180000592002A03DA504244F40054059044F09A
:105190000204761C30782E2816D116F8010F44F040
:1051A00004042A280DD06FF02F023078A0F13003CC
:1051B000092B09D807EB870302EB4303C718761CBA
:1051C000F3E759F8047B761C30786C280FD006DCA6
:1051D0004C2817D068280DD06A2814D104E0742810
:1051E00010D07A280FD10DE044F400140AE044F402
:1051F000801401E044F440147278824202D1761C9B
:1052000004F58014761C307866280BD013DC5828FF
:1052100077D009DC002875D04528F6D04628F4D090
:1052200047281AD19FE118E0632835D0642879D047
:10523000652812D197E1702873D008DC6728F1D077
:1052400069286FD06E280DD06F2806D1B5E073287D
:105250002CD0752875D0782874D05A461799904765
:105260006D1C76E1C4F30250022809D003280DD04A
:10527000D9F8001004280DD00D6009F1040968E187
:10528000D9F80010EA17C1E90052F6E7D9F8001082
:105290000D80F2E70D70F0E719F8041B8DF800108F
:1052A00000208DF80100EA46012003E059F804AB24
:1052B0004FF0FF3061074FF0000102D40DE008F11C
:1052C00001018846B9420FDA8045F8DB1AF8081068
:1052D0000029F4D108E008F1010188468142FADB97
:1052E0001AF808100029F6D105985B46A0EB0807CC
:1052F00021463846179A00F09EFA284400EB08052C
:1053000007E04DE02BE10DE01AF8010B5A46179922
:105310009047B8F10108F7D25B4621463846179A04
:1053200014E142E00A220092C4F302524FF0000A54
:10533000022A08D059F804CB032A4FEAEC710AD0AC
:105340000DE029E02AE009F1070121F00702F2E867
:1053500002C1914609E00FFA8CFC4FEAEC71042A75
:1053600003D14FFA8CFC4FEAEC71002907DA0A46A8
:105370000021DCF1000C61EB02012D2202E022058C
:1053800004D52B228DF80420012203E0E20701D08E
:105390002022F7E7904653E00A2102E010220DE0B8
:1053A00010214FF0000A00910BE010224FF0000A8C
:1053B00044F004040827009203E008224FF0000A9A
:1053C0000092C4F30252022A05D059F804CB0021FE
:1053D000032A08D009E009F1070121F00702F2E8E9
:1053E00002C1914605E01FFA8CFC042A01D10CF0A1
:1053F000FF0C4FF00008220722D5702827D0009B11
:1054000083F0100353EA0A0309D15CEA010206D0D3
:1054100030228DF804208DF8050002229046009B72
:1054200083F0080353EA0A030AD15CEA010201D1BE
:10543000620705D530228DF804204FF001087F1E49
:10544000582809D037A003900EA8029013E04022FC
:105450008DF804200122E1E737A0F4E753466046C7
:10546000009AFEF7B1FF84460398825C0298A0F18F
:105470000100029002705CEA0100EFD1029806A9D7
:10548000A1EB000000F1200A600702D524F480346B
:1054900000E00127574502DDA7EB0A0000E00020ED
:1054A00000EB0A01009005984144A0EB0100059033
:1054B000E00306D45B462146179A059800F0BBF935
:1054C0000544002706E001A85A46C05D1799904799
:1054D0006D1C7F1C4745F6DBE0030CD55B4621467F
:1054E000179A059800F0A7F9054404E030205A46C1
:1054F000179990476D1C0099481E00900029F5DC13
:1055000008E0029802995A460078491C02911799BE
:1055100090476D1CBAF10001AAF1010AF1DC6BE1C0
:105520000928010030313233343536373839616279
:10553000636465660000000030313233343536373D
:1055400038394142434445460000000000F060F90C
:10555000054406F10106307800287FF4E9AD19B062
:105560002846BDE8F08F620700D4062709F107023C
:1055700022F0070CFCE80223E14603F000485FEA52
:10558000080C02D00FF27C2C0DE05FEA045C02D51F
:105590000FF2742C07E05FEAC47C02D00FF26C2C8F
:1055A00001E0AFF2700C4FF0FF3823F00043CDF86C
:1055B00050C065280CD006DC452809D046281DD0EF
:1055C00047283ED13EE0662818D0672839D139E017
:1055D0000021112F01DB112000E0781CCDE9000132
:1055E00006A90EA8FFF7EEFCDDE90F010E9A039164
:1055F0000021009207F1010A04914EE04FF00040B3
:105600000097CDE9011006A90EA8FFF7DBFCDDE944
:105610000F0203920E9B11990022DDF80CA000935B
:10562000049219B907F1010100EB010AB7EB0A0076
:1056300004D4C0F1FF3007F1010A0490AAEB07007F
:10564000019046E0012F00DA01270021112F01DD32
:10565000112000E03846CDE9000106A90EA8FFF7A9
:10566000B1FCDDE90F010E9A039100210491009233
:10567000BA4621070CD40399514500DA8A46BAF19B
:10568000010F05DD009AAAF10101515C302908D013
:10569000B84202DA10F1040F06DA0121CDE9011057
:1056A00017E0AAF10101E9E7002805DC04990144AB
:1056B0000491AAEB000102E0411C514500DD8A463D
:1056C0000499A0EB010000F1010001904FF00040AF
:1056D0000290200704D40198504501DBCDF80480E6
:1056E00000208DF84F0002980DF14F07B0F1004FE8
:1056F00025D02B200E9002984FF0020800280CDADB
:10570000404202902D200E9007E00A210298FEF7F9
:10571000E5FE3031029007F8011DB8F10001A8F153
:105720000108F2DC02980028EFD1791E0E9808706B
:10573000307800F0200040F0450007F8020D12A874
:10574000A0EB070000F107081498007800B10120D1
:1057500000EB0A01019801EBE07105984144A0EBD0
:105760000100A0F101000590E00306D45B4621464C
:10577000179A059800F05FF805441498007820B156
:105780005A461799904705F10105E00323D55B467A
:105790002146179A059800F04EF805441BE004983E
:1057A000002807DBDDE90301884203DD0098405C47
:1057B000179901E0179930205A46904704986D1CBC
:1057C000401C04900198401E019004D12E205A469E
:1057D000179990476D1CBAF10001AAF1010ADEDCAD
:1057E00005E017F8010B5A46179990476D1CB8F160
:1057F0000001A8F10108F4DC5B462146179A0598E0
:10580000A4E600002D0000002B0000002000000096
:105810002DE9F041044600251E461746880405D4AC
:1058200006E039462020B04705F10105641EF8D591
:105830002846BDE8F0812DE9F041044600251E46CA
:105840009046C80301D5302700E02027880405D5FD
:1058500006E041463846B04705F10105641EF8D51B
:105860002846BDE8F0810A68531C0B601070704731
:105870002DE9F05F064600880B46C0F30B00834617
:1058800005F0A4F80400707875884FEA10170AD064
:1058900005F10408984509D02A1DBDE8F05F1946B6
:1058A0003548FFF77BBB594634A01EE001F0FCF8F9
:1058B00007F00301002740F2031A6063012903D0B7
:1058C00002292CD03CA010E0A08F60B14119B1F5A5
:1058D000827F0ED328485B4652465C30FFF75EFB62
:1058E000A787BDE8F09F594643A0BDE8F05FFFF7EA
:1058F00055BBA16B2A4608440E30311DFEF7A8FDAA
:10590000A08F284481B2A187E08F083081422FD335
:10591000A06B0E3005F0D6F8E787A78728E0A08FA8
:1059200028B115485946B030FFF738FBA787B7882C
:10593000381D8146854205D31FFA88F1304605F0AF
:10594000C1F815E0FF2D07D95B465246291DBDE879
:10595000F05F3848FFF722BBA06B2A1D0E3031469E
:10596000FEF776FDA4F83C80E787A16BA1F81090C4
:10597000BDE8F05F05F0D4BB303E02006863692EDD
:10598000633A2061636C5F68616E646C657220636A
:10599000616C6C65642077697468206E6F6E2D721F
:1059A0006567697374657265642068616E646C65AF
:1059B00020257521000000006863692E633A20618C
:1059C000636C5F68616E646C65722063616C6C65AA
:1059D00064207769746820696E76616C69642070F0
:1059E00061636B657420626F756E646172792066A5
:1059F0006C6167732025750041434C20436F6E74C2
:105A000020467261676D656E7420627574206E6FDA
:105A100020666972737420667261676D656E7420AA
:105A2000666F722068616E646C6520307825303254
:105A300078000000343F020010B50B46002803D167
:105A40001146184607F0FEFB10BD70471CB506490D
:105A50008C68002C07D0002100910191B0F806015C
:105A60000B460322A0471CBDA800002070B50D46C0
:105A7000002824D1042D22D2114C4FF4947654F8EE
:105A8000250020B9304600F051FF44F825000400FD
:105A900015D031462046FEF702FDA4F80651172026
:105AA000A4F8000106F0DCFDA4F80201FB2802D9ED
:105AB000FB20A4F802014FF0FF30A4F8080170BDEC
:105AC000A0470020F8B51646028A069FA2EB010205
:105AD00094B2C288D2050AD50A4A55683DB10093EE
:105AE00000890A46014633463846A847F8BD9C421D
:105AF00000D91C464069224601443046FEF7A8FC06
:105B00002046F8BDA8000020042105F06DBF042147
:105B100006F086BE024908600421024806F0F8BD7E
:105B2000B40000207560000002494860042102486A
:105B300006F0EEBDB400002075600000042105F001
:105B400053BF042106F06CBE00B58BB0D0F8240121
:105B5000009023E0684600F029FABDF808100029FB
:105B60001ED0BDF806200FA0FFF714FABDF80600FE
:105B70008005039808D506A919F0AAFA06A81CF012
:105B800005FB014611A001E0018811A0FFF702FA10
:105B9000BDF8101010A0FFF7FDF900980028D9D12A
:105BA0000BB000BD48616E646C653A2030782530DA
:105BB00034782C20666C6167733A20307825303455
:105BC000782C20757569643A200000002573000068
:105BD00025303478000000002C2076616C75655FFC
:105BE0006C656E3A2025752C2076616C75653A20BF
:105BF00000000000064A30B41468002C06D00B46A2
:105C0000A4460246002130BC0420604730BC7047E7
:105C1000BC0000207CB51446042819D120783E2809
:105C20003FD016DC052846D0082801D030280FD1F7
:105C3000B2F80350284600F0BDF8040008D028460A
:105C400019F052FF04F8FD0F284619F0A6FC607009
:105C50007CBDD7284CD0D8283BD0DA28F8D1608832
:105C600000F0A8F80500F3D0B5F8060104F0AEFE88
:105C70000600EDD02079317A8842E9D16946601D6D
:105C800019F035FA062231466846FEF71AFC00285C
:105C9000DED1E07A85F8FF00B5F80601FFF751FF85
:105CA0007CBDA078012801D00A28F9D19188D0784C
:105CB000FFF7DCFE7CBDB2F80340204600F07AF826
:105CC0000028F7D000F034FE0F49002041F82400EE
:105CD0007CBD608800F06EF80500F9D0B4F80B00C8
:105CE00001B2A5F8081109A0FFF755F9284608E008
:105CF000508800F05FF80028EAD04FF0FF31A0F89C
:105D0000081100F097FA7CBDA0470020534D5F4575
:105D100056454E545F4944454E544954595F524587
:105D2000534F4C56494E475F5355434345454445B1
:105D300044206964202575003EB50C468DF80800A6
:105D400000208DF8092000900190022302AA04216E
:105D5000204606F0BBFF3EBD7FB50DF1200C14467A
:105D6000BCE864008DF80800ADF80930ADF80B20F0
:105D7000ADF80D10CDE90056072302AA04212046F4
:105D800006F0A4FF7FBD70B515000C4603D0D0F817
:105D90002401206008E0002070BD204600F006F9D4
:105DA0002089A84203D020680028F6D170BD0120C8
:105DB00070BD0000042803D2024951F8200070474A
:105DC00000207047A04700202DE9FF41164691F8BA
:105DD00000C00024B0F800214F1D1D46BCF10E0F7D
:105DE00077D00CDCACF1020EBEF10B0F1BD2DFE85A
:105DF0000EF0221A391A411A511A611A6700BCF1C1
:105E0000180F6FD009DCBCF1100F6ED0BCF1120F6F
:105E10007CD0BCF1160F06D17DE0BCF1520F74D0DE
:105E2000BCF1D20F71D0614642A0FFF7B3F804B0C5
:105E30002046BDE8F081B1F80110B0F802218A4295
:105E400002D9A0F8001101E0A0F80021032400F518
:105E500080702C700188A5F801100188C088FEF7B9
:105E60001BFEE4E7491C4B8800930B88294603F08E
:105E70003FFB0DE0CB1D491CF61FB4B28F884E8846
:105E8000CDE90243CDE900670B88294603F09CFA6F
:105E90000446CCE70C462946072E01D8022300E031
:105EA0001023641C6588CDE900530297238803F012
:105EB000F7FCEDE7B1F80130294603F0FFFDE7E715
:105EC000491C4B8800930B88294603F0E7FBDFE76A
:105ED000FFE7491C761E0091C6F34F03294603F0E5
:105EE00083FDD5E71CE000E010E00C461946072EC4
:105EF00001D8022300E01023641C6588CDE900531B
:105F00000297238803F032FCC2E70EE0009232468B
:105F100003F05AFEBCE70092324603F061FBB7E79C
:105F20000092324603F01EFAB2E70092324603F0C6
:105F30001BFE7CE7556E68616E646C65642041549D
:105F40005420436F6D6D616E643A20253032582CB9
:105F500020444154413A20001CB50B4B1C68002CD6
:105F600010D0B6238DF8003005238DF801308DF860
:105F70000200ADF80310ADF80520072300216A46A2
:105F80000420A0471CBD0000BC00002010B580B25A
:105F9000FFF710FF002808D0B0F80A21B0F806116A
:105FA000BDE810409120FFF7D7BF10BD10B50168C4
:105FB0000A88828072B14B88C3808C88048101F189
:105FC0000604C4609B050CD5A2F11603038201F1FF
:105FD00016030BE00021C1800181C1600182416193
:105FE00006E0A2F10803038201F1080311444361B2
:105FF000016010BD70B5044600890D4600281BD015
:10600000022A08D0E08880050BD51022E068FEF750
:1060100058FA80B111E009882046BDE8704000F0D0
:106020000EB8084605F060FB002805D0E168A88995
:106030000988884201D1012070BD002070BD70B573
:10604000044600890D46002810D0E0888005E068ED
:1060500008D505F049FB002808D0E0688089A842EF
:1060600003D004E00088884201D1012070BD0020E7
:1060700070BD00002DE9F041194C06461F4615463B
:106080008846042809D0082E28D12878C00720D0B7
:10609000D4F800C01FE03046E047287878281DD1AA
:1060A000D4F804C0BCF1000F08D03B462A46414654
:1060B0003046E04704F082FB00280FD02468002C13
:1060C0000CD03B462A4641463046A446BDE8F04146
:1060D0006047D4F804C0BCF1000FDCD1BDE8F0810A
:1060E000B40000202DE9F0410F4615460446014654
:1060F0001E46127828A0FEF74EFF042C0CD0082C68
:1061000048D13846FFF756FE040043D029781E29AF
:1061100009D0522918D01EE0287878283AD1BDE855
:10612000F04100F001B9B4F80A01A0B104F586709D
:1061300000F0BCFC04F583740020A288A0802188B4
:10614000BDE8F041FFF708BF32462946BDE8F041FF
:106150000023FFF739BEFB2E06D93246BDE8F041D9
:10616000FB231A48FEF717BF22782AB1BDE8F04199
:1061700016485030FEF70FBF01202070A4F80461CC
:1061800032462946A01CFEF763F92046BDE8F041DF
:1061900000F050B8BDE8F0816174745F7061636BAA
:1061A00065745F68616E646C65723A2074797065BD
:1061B000203078253032782C207061636B65745BF9
:1061C000305D203078253032780000004C3C0200F1
:1061D00010B5B0F80001029CC01E80B21970A3F87F
:1061E0000120844200D8204610BD1FB514468DF80A
:1061F0000800069AADF80930ADF80B20ADF80D1087
:10620000002000900190072302AA0421204606F0F6
:106210005DFD1FBD3EB50C468DF80800ADF80920A8
:10622000002000900190032302AA0421204606F0DA
:106230004DFD3EBD2DE9FF410446017824A0FEF747
:10624000AAFE207801282DD1A078D22808D00320DA
:106250002070B4F8060104B0BDE8F041FFF771BC4E
:1062600019F064FB0027E0B1B4F804010F2818D33B
:10627000B4F8060119F0FCFF002813D1B4F90801A5
:1062800006F0C8FE05000CD0B4F80411A4F10A0011
:106290000E58696C324611A0FEF77DFE686CB04264
:1062A00002D92770BDE8FF8102202070B4F80320D6
:1062B0001749601DCDE90006CDE90214B4F80401C8
:1062C000A1780F3883B205F1340019F039FBE9E702
:1062D0006174745F72756E3A2025640041545420D5
:1062E0005369676E65642057726974652C20444257
:1062F00020636F756E7465722025752C2070616344
:106300006B657420636F756E74657220257500006F
:1063100089650000FFF712BC00B5FFF74BFD0028B0
:1063200001D0B0F8000100BD2DE9F8430025144F5D
:10633000144EA84657F82540E4B1207803280BD125
:10634000204600F0A7F838B1607898B1B4F806019B
:10635000BDE8F843FFF7F5BB607858B10AA084F8B0
:10636000018000680090346824B1022300216A464D
:106370000420A0476D1C042DDCD3BDE8F883000089
:10638000A0470020BC000020B70000002DE9FE431C
:106390001F4616460D468046FFF70CFD040005D04B
:1063A000B4F80A0120B19020BDE8FE835920FBE734
:1063B0004046FFF7C3FB88B102AB2A461D212046A9
:1063C0000097FFF705FFCDE90060032302AA04212F
:1063D000404606F07BFC060002D014E05720E3E7BD
:1063E000A4F80A5104F5867042460849044600F0B4
:1063F00093FB47F2305240F28241204600F074FB9A
:10640000204600F043FB3046CEE700008D5F0000E1
:1064100070B505460B480A4C0E46446004F0B2F9CC
:1064200008480830446018F0B5FF0748FFF77CFBC8
:10643000284600F09DF83046BDE8704000F09EB858
:10644000155C0000C0000020E56000002DE9FE435F
:106450001E4615460F468046FFF7ACFC040014D0DC
:106460004046FFF76BFB90B102AB3A461B2120463A
:106470000096FFF7ADFECDE90050032302AA0421E8
:10648000404606F023FCBDE8FE835920FBE7572079
:10649000F9E700002DE9FC41244D00270770044670
:1064A000B0F804212B46811CFFF78EFC0646042819
:1064B0000FD3287801280CD12879082809D194F81D
:1064C000FE0030B1B4F8060119F08EF878B1012859
:1064D00011D086B100970197B4F8060133462A46D9
:1064E000042106F0F3FB2878032807D01CE0B4F859
:1064F00006011AF051FA0020BDE8FC810C4AB4F8FC
:106500000601B4F80011146874B1B5228DF80020AA
:1065100004228DF80120ADF80410ADF80200062326
:1065200000216A460420A0470120E5E7CC4D002069
:10653000BC0000200149086070470000BC0000203A
:1065400010B50246FFF736FC002806D00121417045
:10655000BDE810401046FFF7F4BA10BD10B50C4668
:10656000FFF728FC002801D0C0F8244110BD00002E
:106570000149486070470000A80000200149886078
:1065800070470000A80000207CB5044600780A4649
:1065900002280ED16946104618F0A6FDB4F8041181
:1065A000A01F014408226846FDF78BFF10B10020B0
:1065B00020707CBDB4F80411A4F10A000E58B4F99F
:1065C000080106F027FD050001D0012000E00020B1
:1065D000E62207A1FFF730FA45B1761C6E6403206E
:1065E0002070B4F80601FFF7ACFA7CBD72B6FEE786
:1065F0006174745F7365727665722E6300000000CB
:106600000A6882654968C1653521017002F05ABB8C
:10661000F8B50446C0880E46C0050BD50648456847
:10662000002D07D000200090034602462189304605
:10663000A8472082F8BD0000A80000207CB50E46C7
:10664000C98804460D0B00D06D1C14F8FD2F60782E
:10665000CDE90002A378FD3C2A461048FEF79AFCDB
:10666000F088410502D594F8FE1079B1000502D5F5
:1066700094F8FF0060B1002D02DD94F8FD0048B1F0
:1066800094F8FD00A84207DA0C207CBD05207CBDF3
:1066900008207CBD0F207CBD00207CBD483B020053
:1066A0003EB50C468DF808000699ADF80920CDE9F5
:1066B0000013032302AA0421204606F007FB3EBD77
:1066C0000622FDF7FEBE0A68026089888180704755
:1066D00010B50C49002203463A24985C000900F0EA
:1066E000EBFA0870985C00F00F0000F0E5FA4870D3
:1066F0008C70C91C521C062AEFDB002001F8010C2B
:10670000004810BDD54700200844008840BA7047B3
:106710004218405C5378528852BA63F31F4242EAEF
:1067200000607047130A4354491C89B242547047B1
:10673000130E4354491C89B2C2F307434354491C06
:1067400089B2C2F307234354491C89B242547047AB
:1067500010B50446FEF78CF903480188A143018077
:10676000BDE81040FEF78EB92403002010B503F0F9
:10677000B4FBBDE81040012000F010B810B5064988
:106780000A68C2F30312022AFAD1012100F09CFB2D
:10679000BDE8104004F000BF0400044010B50446FA
:1067A000FEF766F90348018821430180BDE81040E7
:1067B000FEF768B92403002003480078C00701D120
:1067C00016F0BCBF704700002403002008B500206D
:1067D000009008480068C1050748006803D0694672
:1067E0001CF01AFB08BD00231A4619461CF0FEF9DE
:1067F00008BD000004ED00E00400002010B538B131
:1068000003F06DFB0FF00AFC0321064816F0ECFCC8
:106810000120FFF79DFF10F0E5FBBDE810400320CD
:1068200017F0BAB84F00030070B50D480088A0B942
:1068300010F008FB40F2E2450446A8420DD3094897
:10684000406D50B917F07CF938B117F081F9A842C2
:1068500003D3A04200D3204670BD002070BD0000CD
:1068600024030020000009400268134602E08A4227
:1068700004D01268002AFAD10B600160704702E070
:106880008A4205D010460268002AF9D10A600160E8
:106890007047006808B1002070470120704704E08D
:1068A000884201D10120704700680028F8D1704764
:1068B0000268816832B140680068884200D1086887
:1068C00008B9704709B101207047002070470022C5
:1068D000C0E90021096881607047016851B14168D1
:1068E0000A6881688A4203D141600968816003E0D7
:1068F000826001E001210160806870478168096859
:106900008160426811600021016070474FF0FF33E1
:1069100051B107E002688A4203D109680160002092
:10692000704710460028F5D11846704718F04ABA4B
:106930001BF054BD1BF052BD782018F043BA10B5BF
:106940000446806B06F09BFB2046BDE810401BF020
:1069500045BD70B59020FFF7E9FF04000CD040F270
:10696000111006F0AFFB050008D090212046FDF77E
:1069700096FD2046A56370BD002070BD20461BF02B
:106980002DFDF9E770471BF029BD4C2018F01ABA0D
:106990001BF024BD142018F015BA2DE9F04106466D
:1069A0000020984617460C460546306005E0214613
:1069B000304600F007F844446D1CBD42F7DBBDE8EB
:1069C000F081000030B40268134607E08B4204D126
:1069D000024630BC04A0FEF7DFBA1B68002BF5D1DD
:1069E0000A60016030BC70476274737461636B5FEE
:1069F0006D656D6F72795F706F6F6C5F66726565E4
:106A00003A20626C6F636B20257020667265656446
:106A100020747769636520666F7220706F6F6C20D9
:106A200025700000016819B10A68026008467047C5
:106A3000002070471BF0D2BC0C2018F0C3B9000036
:106A400000B589B00A2301930E4B1B680293059190
:106A5000CDE903020C480068C00518464FF000035A
:106A600004D0002269461CF077F904E04FF0FF32B1
:106A700069461CF0BBF8012802D0012009B000BD16
:106A80000020FBE70800002004ED00E038B50446D4
:106A90001CF0B2FD02464FF0FF30009000230121B0
:106AA00060691CF0C1FF38BD0020704738B504464E
:106AB000406948B14FF0FF31002300911A4605218B
:106AC0001CF0B2FF00206061002038BD38B50446DC
:106AD0001CF092FD02464FF0FF300090002302218F
:106AE00060691CF0A1FF38BD38B5044681604FF4E1
:106AF0007A704243B2FBF0F1044800902346002232
:106B000003A01CF025FF606138BD0000D14E0000DD
:106B10006800000001617047C0E90312704708B5C2
:106B20004FF0FF310091002340691A4603211CF009
:106B30007BFF08BD70B50C00054601D0012000E0C8
:106B400000206A2206A1FEF777FF284600F034F8FD
:106B500010B100206C602060286820602C6070BD3F
:106B60006C6973745F62617369632E630000000077
:106B700070B50C00054601D0012000E00020532232
:106B800007A1FEF759FF284600F016F808B12C605F
:106B900001E06868046000206C60206070BD000047
:106BA0006C6973745F62617369632E630000000037
:106BB0000021016041607047006808B10020704703
:106BC00001207047006808B100207047012070471D
:106BD000016819B10A68026012B103E00022FAE705
:106BE000002242600846704770B5054600680C46B2
:106BF00000B10120C32209A1FEF71EFF206800B1E9
:106C00000120C42205A1FEF717FF6968206808600B
:106C10006068686000202060606070BD6C6973749B
:106C20005F62617369632E630000000070B5034604
:106C300000200246012513F80240002105FA01F662
:106C4000344201D0401C80B2491CC9B20829F5D396
:106C5000521CD2B2052AEED370BD70B5044600892D
:106C600042F6554290472521B0FBF1F201FB12019B
:106C7000CA0801F00705A25C0123AB401A4201D00B
:106C8000084670BDE18841432046BDE87040C1F32D
:106C9000074102F02FBB30B5044610682060107920
:106CA0000D4600F01F0020712046FFF7BFFFE08077
:106CB00085EA1540208130BD0A2801DA303003E032
:106CC0000A38062802DA4130C0B270473F207047C8
:106CD00070B50446C08E88B0002822D0258F94F865
:106CE0003430A2268DF800601A268DF80160A6893E
:106CF0000A46ADF80400ADF8082004F11C01ADF817
:106D00000260ADF80650ADF80A30102203A8FDF776
:106D10009FFBA1891C236A46A06800F02DF9002082
:106D2000E08608B070BD000004481144814203D9D8
:106D3000012018600320704700207047C74C0020D6
:106D40000249CA6D82430243CA6570470000094088
:106D500043688B4204D18068904201D10120704782
:106D6000002070471CB50022202140201BF09EFE11
:106D7000104C03220021A06001201BF097FE6060F0
:106D800004F10C010E20CDE900014FF40074002342
:106D9000224609A109481CF0B5FB06490220103122
:106DA000CDE900010023224605A106481CF0AAFBFC
:106DB0001CBD00000000002063000000154A000018
:106DC0007000000035E3010010B504F066FC0022FD
:106DD000BDE810401146022004F026BC70B50646FE
:106DE000401E1D460C46042809D220782968884296
:106DF00005D10622211D6868FDF763FB08B100205C
:106E000070BDC5E90264032070BD00000248017A2C
:106E1000491C0172704700004C01002010B5044667
:106E200003F034F900200FF0E5F80FF041FF0EF009
:106E30003BFF08F0CDF80BF04FFE11F0BBFB15F057
:106E400015FB002C03D0BDE8104010F08ABC10BD2B
:106E500070B50446B0F1A53F19D0B4F1C33F16D0C8
:106E600001239A0205211C2016F0D6FB0546B4F139
:106E7000F23F09D0922206A10020FEF7DDFD284650
:106E8000BDE8704016F036BD07202870F7E770BDEA
:106E90006474626C652E630070B50A4C4FF4202058
:106EA000074DE0641AF068FC800602D54FF480308C
:106EB00001E04FF400402844C0F31300A06470BD0B
:106EC00000000A4000000940F8B505461B480E4680
:106ED000002101800FF07AF91AF05CFC16F044FBF7
:106EE00068460FF0B5F90446009841F29F3140F62C
:106EF0000C17884201D3012000E00020852210A158
:106F0000FEF79AFD3A462146002016F099FB0098BC
:106F100004F60C11A0F60C1082B2012016F090FBC2
:106F20001AF0CEFB3046FFF779FF002D04D028463B
:106F3000BDE8F840FFF78CBFF8BD00002403002037
:106F4000647469702E63000009490120096809B161
:106F5000002070470749CA69002AF9D1044A28323B
:106F600012688968491E8A42F3D1022070470000E6
:106F7000780A00202800002030B4040003D0A44682
:106F800030BC0420604730BC7047FEB51E46174633
:106F90000C46054602F0D6F9002816D0011D6846B9
:106FA000FFF795FC0CE06846FFF797FC0189A142CA
:106FB00006D1D0F804C033463A4629460420E047BB
:106FC0006846FFF775FC0028EDD1FEBD1CB5A02278
:106FD0008DF8002003228DF801208289ADF802206F
:106FE0008DF804108189806805236A46FFF7C4FF85
:106FF0001CBD30B587B00446A3250A988DF8005013
:1070000018258DF80150A589ADF80410ADF80620BB
:107010000146ADF80250ADF8083010220DF10A001B
:10702000FDF716FAA1891A236A46A068FFF7A4FFA4
:1070300007B030BD10B586B00446A1208DF8000021
:1070400016208DF80100A089ADF80410ADF80200FB
:10705000ADF806201022194602A8FDF7F9F9A1891A
:1070600018236A46A068FFF787FF06B010BD00002E
:107070002DE9F05F002492468946054627462646BC
:1070800024E000BF05EB8400B0F9021035F92400BC
:1070900018F054F8834605EB8800B0F9021035F972
:1070A000280018F04BF8ABEB000043F6FF71884264
:1070B00003DBA0F5FE40FF3804E00849884201DC0C
:1070C000490C0844074404EB4904761C04EB090806
:1070D000D045D7DB97FBF6F0BDE8F09F01C0FFFF7E
:1070E0002DE9F04742780446901C86B00E46814256
:1070F00006D006B0921CBDE8F047FD48FDF74EBF34
:107100002178FCA0FDF74AFF20780122DFF8F48304
:107110004FF000094FF0070A10287DD00BDCA0F1DA
:1071200005000B2835D2DFE800F0BA9734833434F9
:107130005A3434112B003E286FD004DC12286DD055
:10714000132826D12CE0572823D196E1D8F8000047
:10715000A278454690F84210EBA0FDF71FFF617939
:10716000F2A0FDF71BFF2968A07881F84200F449DE
:10717000B4F803000988884207D0F249098804E07E
:10718000D8F80000E17880F84210D8F80010A1F893
:107190007690D8F8000090F85800012877D076E172
:1071A0000325002717E0635BAD1C625BAD1C18462E
:1071B00003F00CFC38B190F84010914208D3891AC2
:1071C00080F8401006E01946DFA0FDF7E7FE01E079
:1071D00080F840907F1CA078B842E4DCD9E7B4F88E
:1071E000030003F0F3FB0500D3D0A07860B9E17A87
:1071F00004F10500090703D5698A41F00401698299
:10720000C078000600D5EA75688A40F00201B848E7
:107210006982EA7D603002E04AE05AE04DE0FDF725
:10722000BDFE688A0106B4D540F020006882B0E750
:10723000B4F80350284603F0C9FB0028A9D0A17870
:1072400031BB61790029816902D041F4004101E03C
:1072500021F4004181611BE0B4F80350284603F09B
:10726000B5FB002895D0418A0A0607D521F0800198
:1072700041F010014182A17801758AE7A2783AB9FC
:10728000427D022A04D841F04001418281E7FAE0C0
:1072900000F09EFC0146284603F08CFC79E7B4F828
:1072A000030003F093FB002898D080F811A070E74A
:1072B00003F0B2FE03F0C4FE6BE7A07800288DD186
:1072C000B4F8030003F082FB002887D0617A0174D0
:1072D0005FE7A078062878D010DC01281CD00428AD
:1072E000A5D1E078002871D1A08803F06FFB0028B9
:1072F0006CD08030A179417002704AE70A280BD027
:10730000122894D12079082891D2E178002970D0F0
:107310009BA0FDF743FE3CE7E078002887D1A788D3
:10732000042F27D2D8F8000000EB8705686910B950
:10733000FFF70FFB686105001CD0EF800220C5F845
:10734000189068752A46974905F11C00FFF7E4FB81
:10735000FFF7AAFB6863E0792872294604F1080068
:1073600017F0C5FE05206874A0792874A0780A2853
:1073700004D012E0A08800F0C1F90AE7D4F80E109A
:10738000C5F88210618AA5F886106169C5F8881071
:10739000218B05F18000A5F88C10E089A5F852003A
:1073A000287C60B9D8F8001091F84010E973D8F83B
:1073B000000005F1090190F8400000F077FA284636
:1073C000FFF786F90246E98801E013E028E076A09D
:1073D000FDF7E4FD03F0C4FBD8F8000090F84E0080
:1073E000C0068AD5E98840F6B832774803F034FC05
:1073F000CFE618E034F8035F284603F0E7FA628826
:10740000A388E188248900280AD05430468800885F
:10741000CDE90014CDE9020629466C4803F01CFCB6
:1074200006B0BDE8F087B4F80520104603F0CEFAA8
:107430000546217966A0FDF7B1FD2079D8F8002036
:10744000C0EBC001114491F88310E97369B121794F
:10745000D8F80000C1EBC101014401F18000D1F86E
:10746000841045F8091F008905E0D8F80000416B39
:1074700045F8091F008FA8808BE6608803F0A6FA04
:107480000028B5D1CCE7B1B2204603F07FFCB1B201
:10749000204603F03DFB2078052823D1B4F80300F3
:1074A00003F094FAF0B1D0E90012047D458ACDE9E9
:1074B000031203F0A3FFE80514D503AD214650A045
:1074C000FDF76CFDE1208DF800008DF801A08DF82E
:1074D00002400DF10301284617F009FE0921684614
:1074E00003F016FB06B0BDE8F04703F019BE00003C
:1074F000A03F02004843493A4556454E543A25308C
:10750000327800008C3D0200434D445F434F4D50A4
:107510004C45544520636D6473206F6C6420257561
:10752000202D206E6577202575000000636D645F57
:10753000636F6D702073746174757320257500001E
:1075400058410200604102006863695F6E756D62B8
:1075500065725F636F6D706C657465645F706163A5
:107560006B6574206C6973747320756E75736564D4
:1075700020636F6E2068616E646C65202575000065
:1075800061647620736574207465726D696E6174D0
:107590002064756520746F20636175736520307891
:1075A00025780A00E5A900004E657720636F6E6EAE
:1075B000656374696F6E3A2068616E646C6520253E
:1075C000752C202573000000804002000841020055
:1075D0006164762068616E646C657220307825780D
:1075E00020636F6E6E656374656420746F20636FD3
:1075F0006E2068616E646C6520307825780A000022
:107600006863695F656D69745F646564696361740B
:1076100065645F626F6E64696E675F726573756CD7
:10762000742025752000000010B5044604F02EF8E3
:10763000204610BD13460A4610B50146024803F025
:107640000BFBC0B210BD0000B041020010B50246F5
:10765000024803F001FBC0B210BD0000B0400200C0
:1076600010B588B00C46694617F032FD04A92046D3
:1076700017F02EFD04AA6946024803F0EDFA08B09F
:10768000C0B210BDE040020010B5024803F0E4FAB9
:10769000C0B210BDA840020010B5024803F0DCFAE9
:1076A000C0B210BD6041020010B5024803F0D4FA28
:1076B000C0B210BDC041020000B1012004490A68F7
:1076C00092F87920824202D0096881F879007047E7
:1076D0008C3D020010B5024803F0BEFAC0B210BDE6
:1076E000A040020008B5009313460A46014602482E
:1076F00003F0B2FAC0B208BDF03D020010B5034677
:1077000003F064F940B1062141741322194605487B
:1077100003F0A2FA002010BD0021184603F0E4F99E
:10772000F8E700005040020038B54FF0FF30ADF8E8
:107730000200ADF8000006250DE0684603F096F95A
:107740000446407C062806D0E1881322054803F051
:1077500083FA00B96574684603F068F90028ECD133
:1077600038BD00005040020038B500B101200D497D
:107770000A6892F87840844210D121460AA0FDF7A9
:107780000DFC66208DF8000001208DF801008DF8B9
:1077900002400321684603F0BBF938BD82F8780047
:1077A00038BD00008C3D02004254535441434B5FAE
:1077B0004556454E545F444953434F564552414206
:1077C0004C455F454E41424C454420257500000024
:1077D0002DE9FF4FDFF8A8A085B00024DAF80020DB
:1077E000DDE912691268DFF894808B460A2000EB0D
:1077F000061153692746B8F8000003AA9847050008
:1078000001D001210FE0562009B0BDE8F08F00BF84
:1078100004EBC40219F81220521E01FA02F0384398
:10782000641CC7B2E4B2B442F2D3DDE907018DE8CB
:1078300083005B46D8F804102846059A03F0BCF88C
:10784000C7B200240DE000BF04EBC40109EB410105
:10785000891CE8191022FCF7FBFD1037641CFFB2ED
:10786000E4B2B442F0D3DAF80010404681F840B0F8
:107870002946039A03F08AFD0020C5E790410200E3
:107880008C3D02000248006890F87A0070470000C2
:107890008C3D02000449096851F8BC2F02604A6817
:1078A00042608968816070478C3D0200064A00286A
:1078B000106804D0D0F83A200A60C08F02E0426B12
:1078C0000A60008F888070478C3D020010B5014629
:1078D000024803F0C1F9C0B210BD0000D040020060
:1078E000034909684A6B0260098F81807047000074
:1078F0008C3D020010B50446014604A0FDF74EFB86
:10790000022C01D9012010BD002010BD6761705FFD
:107910006D69746D5F70726F74656374696F6E5FAB
:1079200072657175697265645F666F725F736563B6
:1079300075726974795F6C6576656C2025750000D9
:107940007FB50DF1200CBCE870008DE8780013467F
:107950000A460146024803F07FF904B0C0B270BD88
:107960009841020010B5024803F076F9C0B210BD8C
:10797000A041020013460A4610B50146024803F032
:107980006BF9C0B210BD0000E03D020013460A468C
:1079900010B50146024803F05FF9C0B210BD000007
:1079A000D83D02001CB5049CCDE9003413460A46BC
:1079B0000146024803F050F9C0B21CBDE83D020088
:1079C00010B50146024803F047F9C0B210BD0000EF
:1079D000A84102000448417A012903D102214172E1
:1079E00019F022B8704700004C010020074810B57C
:1079F000426D40F282210648FFF776F80448FFF70F
:107A000045F8BDE81040FFF7E5BF00004C0100203D
:107A10003852002010B5002207490848FFF77CF8CB
:107A2000074840F28221426D0448FFF75DF8BDE847
:107A300010400248FFF72AB8ED79000038520020C4
:107A40004C01002010B5024803F006F9C0B210BD89
:107A50009840020010B5024803F0FEF8C0B210BD15
:107A6000C83D020010B5024803F0F6F8C0B210BDE0
:107A7000C841020010B50146024803F0EDF8C0B25B
:107A800010BD00001841020010B50146024803F085
:107A9000E3F8C0B210BD00007040020010B501460E
:107AA000024803F0D9F8C0B210BD0000D84002006F
:107AB00010B50146024803F0CFF8C0B210BD000077
:107AC0008840020010B50246024803F0C5F8C0B273
:107AD00010BD0000B84002002DE9F0410E460746F7
:107AE00002F074FF040010D0384600F067F8054635
:107AF000024631460AA0FDF751FAB54207D329469E
:107B00003846BDE8F04103F055B80121F8E7667545
:107B1000608A40F020006082BDE8F04103F000BBC5
:107B20006761705F726571756573745F73656375A6
:107B3000726974795F6C6576656C2025752C20639D
:107B4000757272656E74206C6576656C20257500A3
:107B500010B50146024803F07FF8C0B210BD000026
:107B60005841020013460A4610B50146024803F088
:107B700073F8C0B210BD0000B841020013460A46B7
:107B800010B50146024803F067F8C0B210BD00000E
:107B9000003E0200F0B585B00DF1280CBCE8F00005
:107BA0008DE8F80013460A460146034803F054F8EE
:107BB00005B0C0B2F0BD0000103E020010B502F0EA
:107BC00005FF18B1BDE8104000F002B8012010BD5B
:107BD00010B1008B000401D40120704702207047CF
:107BE00002207047084B10B51B68C0EBC0021A4456
:107BF0000B6842F8843F8B8893800A46014603480D
:107C000003F02AF8C0B210BD8C3D020030410200E2
:107C100000B101200249096881F87A00704700002C
:107C20008C3D020001490968086370478C3D0200E1
:107C30001CB5049CCDE9003413460A4601460248AF
:107C400003F00AF8C0B21CBDB83D02000A4610B5E8
:107C50000146024803F000F8C0B210BDC03D02006A
:107C60002DE9FE4F144E8846A6F11C011D460968F9
:107C70001746814609683088DDF830A04B6902AAB2
:107C8000691D9847040014D0CDE9007543464A4663
:107C9000716802F091FEC0B220442A465146FCF7BA
:107CA000D7FB21463046029A03F070FB0020BDE866
:107CB000FE8F5620FBE70000A83D02002DE9FC479F
:107CC000124D0F46A5F124019946096816468046D3
:107CD0000968288801AA4B69311D9847040013D010
:107CE00000963B464246696802F066FEC0B22044F8
:107CF00032464946FCF7ACFB21462846019A03F080
:107D000045FB0020BDE8FC875620FBE7B03D0200A4
:107D100004490268096841F8BC2F42684A608068DB
:107D2000886070478C3D02000A4610B50146024843
:107D300002F092FFC0B210BD983D02002DE9FF5F36
:107D4000154D8946291FDDE90E6B09681F469046CF
:107D50000968824628884B6903AA711D9847040068
:107D600018D0CDF80080CDE901764B46524620462A
:107D7000696802F021FEC0B2204432465946FCF741
:107D800067FB21462846039A03F000FB002004B05D
:107D9000BDE8F09F5620FAE7903D02002DE9FF5F15
:107DA000164D8946A5F11401DDE90E6B09681F46E1
:107DB00090460968824628884B6903AAB11D9847F6
:107DC000040018D0CDF80080CDE901764B4652462C
:107DD0002046696802F0F0FDC0B2204432465946A0
:107DE000FCF736FB21462846039A03F0CFFA002021
:107DF00004B0BDE8F09F5620FAE70000A03D020065
:107E000013460A4610B50146024802F025FFC0B2EB
:107E100010BD00002041020008B50B46009202464A
:107E20000021024800F074F808BD00004041020043
:107E30002DE9FC4791461B4A194F884612680446B3
:107E40000221126801EB88013888536901AA98471A
:107E5000060007D043462246796802F0ADFDC5B260
:107E6000002414E05620BDE8FC8700BF04EB44006A
:107E700009EB40010A7900924B8819F8102070191B
:107E800009A102F099FD2D1D641CEDB2E4B2444538
:107E9000ECD331463846019A03F078FA0020E2E745
:107EA000504102008C3D0200313231002DE9F04F8B
:107EB0008DB0DFF854C0DDE91F89DDE91BBADCF8BD
:107EC00000C0DDE91D56C0EBC0076744DDF868E07F
:107ED000179C87F8834008AFA7E86003DDF864C00B
:107EE000CDE906BACDE904CE169E189DCDE900363F
:107EF00013460A4601460548CDE9024502F0ACFEAC
:107F00000DB0C0B2BDE8F08F8C3D020038410200D8
:107F10002DE9FC471C460A9D174688468146F72BEB
:107F200028D9F720CDE900050B46012239464846FD
:107F300002F092FE10F0FF0025D1F73CA4B2F73515
:107F400016E0F72C01D3F72600E02646A01BCDE96A
:107F500000650404240C01D0002200E00222434604
:107F60003946484602F078FE10F0FF000BD1354448
:107F7000002CE6D14346032239464846CDE9004568
:107F800002F06AFEC0B2BDE8FC87000008B50093AD
:107F900013460A460146024802F05EFEC0B208BD22
:107FA000884102002DE9FC4716460F4602EB860188
:107FB000244ADFF88C8099461268824600241268B1
:107FC000C91CB8F80000536901AA9847050002D0FF
:107FD000002001220DE05620BDE8FC8700EB4003A5
:107FE00019F813305B1E02FA03F12143401CCCB296
:107FF000C0B2B042F2D300943B4652462846D8F86D
:10800000041002F0D9FCC7B200240FE004EB4401D5
:1080100009EB41008188009143884278E8190AA160
:1080200002F0CAFC7F1D641CFFB2E4B2B442EDD37F
:1080300029464046019A03F0A9F90020CCE7000048
:10804000804102008C3D02003132320008B50B46FF
:108050000092024600210248FFF75AFF08BD0000C7
:10806000484102000A4610B50146024802F0F4FDFC
:10807000C0B210BDC84002002DE9F8431A4F1546A2
:108080000C468046F82925D90146F82301223846B6
:10809000009502F0E1FD10F0FF0023D1F83CA4B2FE
:1080A000F83515E0F82C01D3F82600E02646A01B91
:1080B0000404240C009501D0002200E00222334683
:1080C0004146384602F0C8FD10F0FF000AD13544A1
:1080D000002CE7D12346032241463846009502F0A2
:1080E000BBFDC0B2BDE8F883704102000A4610B57E
:1080F0000146024802F0B0FDC0B210BD7841020056
:1081000008B5009313460A460146024802F0A4FD52
:10811000C0B208BD684102000A4610B501460248D7
:1081200002F09AFDC0B210BDD03D02001CB5049C07
:10813000CDE9003413460A460146024802F08CFDA0
:10814000C0B21CBD28410200054902680968C1F897
:108150003A208288CA870146024802F07DBD0000AD
:108160008C3D0200904002000249096881F84100FC
:10817000704700008C3D02000B4900B50A6892F878
:108180004C20C2F3C00262B1096891F8411041B1BC
:1081900002F01CFC28B1807CC0F3800008B10120F3
:1081A00000BD002000BD00008C3D0200F0B587B08E
:1081B000DDE90C45DDE90E67DDE910CE8DE81840FC
:1081C000CDE9057C13460A46CDE90356014603482E
:1081D00002F042FD07B0C0B2F0BD0000F83D020061
:1081E00010B5024802F038FDC0B210BD203E0200BA
:1081F00008B5009313460A460146024802F02CFDDA
:10820000C0B208BD083E0200F0B585B00DF1280CE3
:10821000BCE8F0008DE8F80013460A460146034822
:1082200002F01AFD05B0C0B2F0BD0000183E020019
:108230007FB50DF1200CBCE870008DE87800134686
:108240000A460146024802F007FD04B070BD000076
:10825000C040020008B59200921C0B4600920146F5
:108260000322024802F0F8FCC0B208BD283E02001A
:108270002DE9F047DFF88CA48AB01E4615468846E3
:1082800004280AD008287CD128781B280FD01D2864
:1082900008461FD001F056F81EE02978782970D1E1
:1082A000DAF80440002C50D04146A0474DE0B5F824
:1082B00001700C46D21CDE1E3946A72017F052F87A
:1082C000F61C02460AB0B3B239462046BDE8F04774
:1082D000FEF75BBE16F066F8040052D02978771ED0
:1082E0004FF001090D297DD009DC0C2915D2DFE8FA
:1082F00001F014FD143114FC14FB147D14E2172951
:1083000071D006DC0F296FD0112949D0132904D16F
:108310005DE1192969D01D2951D0FBA0FCF73DFE74
:1083200028788DF808908DF80900002006218DF836
:108330000A008DF80C108DF80B0000900190A089B8
:10834000052302AA042104F0C1FC0AB0BDE8F047ED
:1083500000F0B8BCB5F8015004F082F9854200D2B3
:108360002846E082014684F81890A089FCF794FB27
:10837000DAF80450002DE8D0AB208DF8000004207E
:1083800000E0ECE18DF80100A089ADF80200E08A80
:10839000ADF804000623A1896A460420A847D4E763
:1083A00020780228D1D132462946204616F052FEC6
:1083B00069782046711A294401224988A6E0474677
:1083C000B5F80180EA1CF61E4146A82016F0CAFF47
:1083D0000246F61CB3B241463846FEF7D6FD84F895
:1083E0005190B2E7FBE028E169E15AE120780C28DE
:1083F0001BD011DC062801D00828A6D13246294618
:10840000204616F0DAFD3146284600F0A5FF014669
:10841000204619F041FD98E7142832D0242894D141
:108420006888A4F84C00252039E195F80180B8F15E
:10843000070F07D26888A085A8882086E88860860C
:108440000D202CE1022715E0E91935F807904A883C
:1084500022868A886286C98801A819F0C3FE01A80D
:108460000090638E228E49462046FEF7C2FD07EB40
:10847000080087B2B742E7D369782046711A695A73
:1084800043E095F8018000210227A8F1020A0DE0DF
:1084900035F80790EA191FFA8AF3921C49462046DC
:1084A00016F07CFD07EB0800494687B2B742EFD3D0
:1084B000204613222AE020780E2818D0102828D031
:1084C00028288ED1204600F07FFA218F6A1CA9202F
:1084D00016F048FFA56808370246BBB2A1892846B6
:1084E000FEF74AFD002136E11DE034E0F1E001A98C
:1084F000681C16F0EDFDA18D01AA00922046638E46
:10850000228EFEF776FDA18D20460B2219F0E4FCA9
:108510001BE7204600F058FABBB2218F6A1C2046A8
:1085200016F03CFDDEE74FF004094FF6FF78012717
:1085300004F11C0A09E0E819E95B408853468046CB
:1085400002462046FEF776FD4F44B742F3DB204655
:1085500041460322DAE768780427022800D112276F
:10856000F01B35F800A0AD1CB61E1FFA86F80026D9
:1085700022E000BF35F80690042F05EB060021D05D
:10858000801C06A916F0A4FDA4228DF80020142258
:108590008DF80120A289ADF8022006A9ADF804905B
:1085A00010220DF10600FBF753FFA18916236A463E
:1085B000A068FEF7E1FC3E444645DBDB2046514621
:1085C0000922A3E7418806A819F00CFEDCE7207811
:1085D000182803D0262801D02C2899D1AAE0761E8D
:1085E0002078B6B2761DBFB2122815D02A288FD1B6
:1085F000218F628F6B1CAA20009716F0C1FE02002B
:1086000004D0B3B2A189A068FEF7B6FC3A4629218E
:10861000204619F029FC98E6218F628F6B1CA6205A
:10862000009716F0ADFE020004D0B3B2A189A06895
:10863000FEF7A2FC3A461121EAE720781A2812D068
:108640001C281CD02E2814D03228E4D1204600F05B
:10865000BBF932462946204603F066F800287FF42D
:1086600061AF7E2177E0B5F803001D2260871921F4
:1086700010E0B5F803002F2260872D210AE0324672
:108680002946204603F050F840B1B5F803001D22FA
:1086900060871B21204619F00EFC56E62120207031
:1086A00053E620781E2845D0202843D0222802D027
:1086B0003028B0D13EE0204600F086F9D1E720789E
:1086C0001628A8D1BBB26A1C0021204616F066FC11
:1086D00030E029790A2910D1207808282ED006DC2C
:1086E000022827D0042825D0062806D126E00A280B
:1086F00020D00C281ED0142825D0204600F0D1FA16
:1087000023E60000D00000204154542048616E64EC
:108710006C65722C20756E68616E646C6564207285
:108720006573706F6E73652074797065203078257D
:1087300030327800204600F047F9D3E6E18D20463C
:10874000FEF7C6FAF6E7204600F03EF9A08D218E2E
:108750008842F2D10A212046FEF738FCF5E50AB03E
:10876000BDE8F08710B50446084615F051FE18B173
:10877000017819B1952010BD562010BD1F218460CD
:10878000017000F09FFA002010BD70B50546144638
:10879000084615F03DFE18B1017819B1952070BD5D
:1087A000562070BD85606188A288914203D1002166
:1087B000FEF70CFC07E0491C8185A188C1850921D1
:1087C000017000F07FFA002070BD2DE9F0410746EE
:1087D0001D4616460846DDF8188015F019FE0400FF
:1087E00004D0207820B19520BDE8F0815620FBE729
:1087F000A760A685E585012084F8500000256583E3
:108800001022414604F11C00FBF722FEE5860720FA
:10881000207000F057FA0020E6E72DE9F041074606
:108820001D4616460846DDF8188015F0F1FD0400D7
:1088300004D0207820B19520BDE8F0815620FBE7D8
:10884000A760A685E585012084F85000A4F81A8069
:10885000414604F11C0019F0C5FC0020E086072009
:10886000207000F02FFA0020E6E770B506461C469F
:108870001546084615F0CCFD18B1017819B19520C0
:1088800070BD562070BD86608585C485002180F846
:108890005010C1860521017000F014FA002070BD4F
:1088A00010B50446084615F0B3FD18B1017819B1AA
:1088B000952010BD562010BD0121846081854FF6A2
:1088C000FF72C28501700021418300F0FBF9002096
:1088D00010BD70B505461646084615F099FD040012
:1088E00003D0207818B1952070BD562070BD0120AE
:1088F000A560A0854FF6FF70E08500206083102200
:10890000314604F11C00FBF7A3FD0320207000F0AA
:10891000D9F9002070BD70B505461446084615F01B
:1089200077FD18B1017819B1952070BD562070BD42
:108930000121856081854FF6FF71C185032101709A
:10894000448321461C3019F04DFC00F0BBF9002097
:1089500070BD10B50446084615F05AFD18B10178EF
:1089600019B1952010BD562010BD1D2184600170E5
:1089700000F0A8F9002010BD70B506461C4615464B
:10898000084615F045FD18B1017819B1952070BD64
:10899000562070BD86608585C4850B21017000F06E
:1089A00091F9002070BD10B50C4615F0FBFC10B11C
:1089B000017E012903D017202080952010BDC08A98
:1089C0002080002010BD000010B500210170044679
:1089D00081890448FCF7E1FA04F16000BDE8104029
:1089E000FEF764B8643D020070B5042817D1107812
:1089F000052810D1B2F80350284600F0A3FC04006B
:108A000009D01F2100F04DF90549002041F825004B
:108A10002046FDF78FFFBDE8704000F053B970BDF0
:108A2000E8470020074910B50020087008310648C3
:108A30004860084601F0A6FEBDE810400348FDF777
:108A400069B80000D0000020E989000071820000B0
:108A500010B515F0A7FC002802D0007808B100205E
:108A600010BD012010BD70B504461D460E461046CF
:108A700000F068FC002807D0666025812146BDE82B
:108A80007040001DFDF7F0BE70BD2DE9F0410646B7
:108A9000DDE906781C461546084615F0B9FC20B1FC
:108AA000017821B19520BDE8F0815620FBE7866072
:108AB0000587878744873121C0F84080017000F026
:108AC00001F90020EFE7000001490120087070471C
:108AD000D000002070B505461446084615F098FCF5
:108AE00018B1017819B1952070BD562070BD856010
:108AF00004872721017000F0E5F8002070BD0023F5
:108B0000AFF3008070B506461C461546084615F0C2
:108B10007FFC18B1017819B1952070BD562070BD49
:108B20008660058744872921017000F0CBF800207A
:108B300070BD0023AFF3008070B506461C46154695
:108B4000084615F065FC18B1017819B1952070BD83
:108B5000562070BD8660058744871121017000F0A2
:108B6000B1F8002070BD70B506461D461446084693
:108B700015F04EFC18B1017819B1952070BD562042
:108B800070BD8660A0F8444015218564017000F036
:108B900099F8002070BD70B505461446084615F0DA
:108BA00037FC18B1017819B1952070BD562070BD01
:108BB00085600487002141870F21017000F082F851
:108BC000002070BD2DE9F04107461D4616460846B7
:108BD000DDF8188015F01CFC040004D0207820B1CA
:108BE0009520BDE8F0815620FBE7A760A685E585C6
:108BF00026866586002060831022414604F11C0011
:108C0000FBF726FC1320207000F05CF80020E8E75A
:108C10002DE9F04107461D4616460846DDF8188046
:108C200015F0F6FB040004D0207820B19520BDE8B3
:108C3000F0815620FBE7A760A685E5852686658638
:108C4000A4F81A80414604F11C0019F0CBFA132055
:108C5000207000F037F80020E9E700000149486083
:108C600070470000D00000202DE9F04106461C4668
:108C700015460846069F15F0CBFB20B1017821B1BF
:108C80009520BDE8F0815620FBE786600587848744
:108C9000002141871B210764017000F013F80020B8
:108CA000EFE770B5044600780D46002808D020464E
:108CB000FFF78AFE29462046BDE87040FEF786B9D8
:108CC00070BD00002DE9F04F002689B04FF01E095D
:108CD0004FF0040A4FF0020B37464FF00808CD481A
:108CE00050F82640002C6ED0A089FCF70DFF40B153
:108CF0002278217EC8A0FCF750F9207E012862D19D
:108D000005E0A08909B0BDE8F04FFCF700BF94F87A
:108D1000510040B184F85170A0898DF808900097F7
:108D20000123019789E02078172801D02B2818D13A
:108D3000204615F06BF9A18FC01E884211DA20463B
:108D400015F064F90246A18FC1A0FCF726F9204670
:108D5000FFF73AFE09B02046BDE8F04F0D21FEF7BF
:108D600035B9606D04F056F905462178C3A0FCF7CB
:108D700014F92078362826D2DFE800F09E1B9E26C4
:108D80009E469E499E519E649E709E749E769E78DD
:108D90009EA39EB69EB89EBC9EBE9EC19EC39ECB09
:108DA0009EED9ED39EDD9EE59EFE9EFC9EBA9EFBA2
:108DB0009EFA84F800B0E08D0090A38DA2894FF454
:108DC0002051102047E077E084F800A0608B4FF43A
:108DD000205530B1ADF81C00E18D07AA8DE80608DA
:108DE00009E003A904F11C0016F072F9E08D1022CD
:108DF00003A98DE80700A38DA28929460620FCF768
:108E0000ABFF09B0BDE8F08F0620207001E084F8C8
:108E1000008009B02046BDE8F04F16F026BA84F86D
:108E20000080A089A18DE28D8DF808A0ADF8091011
:108E3000ADF80B2000970523019702AA042103F047
:108E400045FFDEE70C202070E08D0090A38DA28905
:108E500042F602010820FDF7C8F9D2E70E20207083
:108E6000228E61E010205DE0122065E01420207069
:108E7000618B204639B1C28D0092838DA289082072
:108E8000FDF7B3F918E000F11C028589818DE08DB2
:108E90008DF80880ADF80910ADF80B000DF10D014B
:108EA000104616F015F90097152302AA042128464A
:108EB000CDF8047003F00AFF761C042EFFF40FAF08
:108EC0009FE716202070A089B4F844100E23A26CEE
:108ED0008DF808304FF6FF7303EA4101CDE9002118
:108EE000012302AA0421E5E718202DE01A2044E01E
:108EF000322042E01C2040E084F8009046E0202030
:108F000000E02220207009B02046BDE8F04F16F0A6
:108F1000A7B92420207009B02046BDE8F04F16F014
:108F2000E4B928202070228FA18909B00A20BDE869
:108F3000F04FFDF76FB92A20207009B02046BDE838
:108F4000F04F16F0BDB92C20207009B02046BDE8C6
:108F5000F04F16F0D5B92620207004F14E00009095
:108F6000B4F84C20A18902231220FDF799FB48E7B1
:108F700026E011E008E0FFE72E20207009B020462F
:108F8000BDE8F04F16F081B93020207009B02046BE
:108F9000BDE8F04F16F074B916F0C8FC00288FD069
:108FA00034202070A86D216C01AB0091394A15C3A3
:108FB000A38F228FD22105F1480016F0C1FC20E7D3
:108FC00036202070A96DB4F80C90228FB4F83C8044
:108FD000D223266C8DF81030ADF81120059104F1E4
:108FE00058000DF1140A06A916F07EF80C20CDE900
:108FF00002A0CDE90068032304AA0421484603F037
:10900000ADFE27702046FFF7DFFCA86D401CA86569
:10901000F7E60000E84700202D2068616E646C656B
:109020005F7065726970686572616C5F6C6973749A
:109030002C206D74752073746174652025752C2047
:10904000636C69656E7420737461746520257500A6
:10905000676174745F636C69656E745F72756E3A94
:109060002076616C7565206C656E202575203E202C
:109070004D5455202575202D20330A0067617474E6
:109080005F636C69656E745F7374617465202575C8
:1090900000000000016600002DE9F04707461D466C
:1090A000164689460846DDF8208015F07BF904460F
:1090B000007850B9484617F01DFA014660650AA0CD
:1090C000FBF76BFF606D002802DA9520BDE8F087A2
:1090D000A7602687A5873320C4F840802070FFF75B
:1090E000F1FD0020F2E700006C655F64657669635E
:1090F000655F6B6579206973203A307825780A00BE
:1091000070B50A4E0546002456F82400A84207D13F
:10911000A98907A0FBF741FF7F212846FFF7C1FD82
:10912000641CA4B2042CEFD370BD0000E8470020FB
:109130004741545420636C69656E742074696D6591
:109140006F75742068616E646C652C2068616E6454
:109150006C65203078253032780000002DE9F04130
:1091600006461C4615460846069F15F051F920B1E3
:10917000017821B19520BDE8F0815620FBE786609B
:1091800005878487002141872B2107640170FFF741
:1091900099FD0020EFE770B506461D4614460846C7
:1091A00015F036F918B1017819B1952070BD562027
:1091B00070BDE90704D0A179C90601D4982070BD1B
:1091C000A90704D5A179890601D4992070BD8660CC
:1091D00061888185A188C185A0F84E502321017046
:1091E000FFF770FD002070BD1CB5049CCDE9003474
:1091F000002300F001F81CBD2DE9F0410646DDE931
:1092000006781C461546084615F002F920B101788B
:1092100021B19520BDE8F0815620FBE786600587E7
:10922000878744872D21C0F840800170FFF74AFDF1
:109230000020EFE71CB5049CCDE90034002300F0CA
:1092400001F81CBD2DE9F0410646DDE906781C4613
:109250001546084615F0DCF820B1017821B19520BB
:10926000BDE8F0815620FBE7866005878787448745
:109270001921C0F840800170FFF724FD0020EFE7BE
:109280002DE9F04106461C4615460846069F15F096
:10929000BFF820B1017821B19520BDE8F0815620BA
:1092A000FBE7866005878487172107640170FFF755
:1092B00009FD0020F1E7F8B51E4615460F4615F0EA
:1092C00071F8040003D0207818B19520F8BD56201D
:1092D000F8BD204614F09AFEC01EA84201DA97207D
:1092E000F8BD0096A1892B463A465220FDF7D8F9E1
:1092F000C0B2F8BDF0B5002423460125C65C0022AB
:1093000005FA02F73E4207D08C4203D102EBC300BC
:10931000C0B2F0BD641CA4B2521CD2B2082AEFD372
:109320005B1CDBB2052BE9D3FF20F0BD10B580B28A
:1093300014F0B8FE18F0DCFB0028FBD1BDE81040AB
:1093400018F0CABB042803D2024951F82000704724
:1093500000207047E84700204278891A0844B0F896
:10936000030070472DE9FC41164C18271E46D4F81F
:1093700008C0BCF1000F11D04978D9B1217800257F
:1093800079B1FCF763FB237862882570658002B0B1
:1093900039463046BDE8F04115F0EABF032300220C
:1093A000F5E7002300950195B0F806010222194661
:1093B000E04701E0FCF74AFB192030700120BDE8CE
:1093C000FC810000A80000202DE9FF4F87B01D465A
:1093D000DDE914738946824600264FF0060B01240E
:1093E000B0463A4629463248FBF7D4FDBD4204D880
:1093F0001DB1DAF82401009046E0012351E06846EF
:10940000FCF7D4FDBDF8080008B1A8423CD3B8422F
:109410003DD8CEB158B14FF420516846FCF70FFE4D
:1094200028B942F601016846FCF709FE60B14146E1
:1094300020A0FBF7AFFD29F80480A41CA4B2099971
:109440000026201D884222D8BDF808005FEA0008E7
:109450001AD068461599FCF7F2FDA8B1BDF81020A6
:109460001698824210D105991798FBF72AF858B937
:10947000BDF8081016A0FBF78DFDBDF8081029F8FF
:109480000410A41CA4B2012600980028B7D1012C16
:1094900006D0072189F8001020460BB0BDE8F08FF8
:1094A0000A232A465946484615F062FFF5E70000B0
:1094B000B83B0200456E64206F662067726F75705E
:1094C0002C2068616E646C6520307825303478001B
:1094D000426567696E206F662067726F75702C2019
:1094E00068616E646C652030782530347800000047
:1094F0002DE9F04F87B09346109F884681461E465F
:109500004FF0040A012400253A46194628A0FBF72B
:1095100041FDBE4204D81EB1D9F82401009033E0C9
:1095200001233EE06846FCF741FDBDF8080070B33A
:10953000B8422CD8B04227D3BDF80610880501D513
:10954000102000E00220012C02D9A84221D109E01C
:1095500008D10546880501D5022100E0012188F8DF
:10956000011002246019801C584510D8BDF808105D
:1095700028F80410A41CA4B208EB04002A4603999E
:10958000FAF766FF601984B200980028CAD1012C4E
:1095900006D0052088F80000204607B0BDE8F08F0F
:1095A0000A2332465146404615F0E2FEF5E7000038
:1095B0004154545F46494E445F494E464F524D41D7
:1095C00054494F4E5F524551554553543A206672A7
:1095D0006F6D202530345820746F202530345800AA
:1095E0002DE9F04F2C4C8346B1F80150B1F803A09F
:1095F000A06889B0984691460E46162758B12A466B
:1096000002A95846FCF7BFFB38B1BDF80E000107B0
:1096100001D5C00503D403231DE001231BE002A9EB
:109620005846FDF70BF808B1034614E0A9F1050010
:10963000711D80B2CDE90010D4F808C0BBF8060156
:10964000534601222946E04710F0FF0319D0072BAB
:1096500009D00D2B07D02A463946404615F088FE22
:1096600009B0BDE8F08F0D2B02D0072B06D008E023
:1096700020780D2805D02370658002E0207800282E
:10968000F9D04A4631464046FAF7E2FE172188F8FB
:1096900000104846E4E70000A80000202DE9F04350
:1096A00087B016460E9D0C46074699464FF00C08AB
:1096B0002A46194621A0FBF76DFC4A4601A9384607
:1096C000FCF761FB28B1BDF80A00800703D4022330
:1096D00007E0012305E001A93846FCF7AFFF0300CE
:1096E00007D04A464146204615F042FE07B0BDE885
:1096F000F083B7F8061101A8FCF78AFFBDF8140043
:10970000A84201D20723ECE7401C401BB04203DD16
:109710007019401EADF81400B7F806010090BDF8AE
:109720001400621C401B83B2294601A8FCF7CAF949
:10973000401C0D2180B22170D8E700004154545FD5
:10974000524541445F424C4F425F5245515545534B
:10975000543A2068616E646C6520253034782C2082
:109760006F66667365742025750000002DE9FF4F54
:1097700089B00024DDF858901020CDE906041E467B
:109780008A460125A0460894A3464A4631464348E6
:109790000B9BFBF7FFFB4E4513D896B1DDE917078E
:1097A000022810D0384601F09FFF40B1B7F80C00F6
:1097B0004FF42057B84208D0791C884205D01023B6
:1097C00066E0012364E03888F2E70998D0F82401C4
:1097D000009050E06846FCF7E9FBBDF8080008B1CE
:1097E000B04248D3484549D8B8F1000F23D050B112
:1097F00039466846FCF723FC28B942F60101684661
:10980000FCF71DFCB8B108992AF80510AD1CA8B2E8
:109810002AF800B0801C85B20AEB0500221F0799C8
:10982000FAF716FE2819001F85B20B9829194FF078
:109830000008814222D8BDF808005FEA000B1AD068
:10984000DDE917216846FCF7D5FBA0B1BDF8100093
:10985000001D80B2012D02D9A04211D104E003D134
:1098600004468AF801000225BDF808000890059812
:109870004FF00108079000980028ABD1012D06D0C9
:1098800011208AF8000028460DB0BDE8F08F0A23A9
:1098900032465046069915F06BFDF5E7003C020094
:1098A0002DE9FF4F87B08846149F81464FF0000A8C
:1098B0001D464FF0080B012456463A4619463DA076
:1098C000FBF768FBBD4204D81DB1D9F82401019013
:1098D00058E0012362E001A8FCF768FBBDF80C002A
:1098E000E8B3A8424ED3B8424FD8DDE9152101A80C
:1098F000FCF780FBA0B3BDF80A00800703D47EBB51
:10990000BDF80C603EE001A94846FCF797FE030055
:1099100002D0012C3BD841E0B9F8061101A8FCF7B0
:1099200077FEBDF81400801C80B2012C02D982455C
:109930002DD104E003D1824688F801000224099861
:1099400004EB0A01814207D9022C20D8001FADF890
:109950001400801C88F80100BDF80C1001E014E030
:1099600010E028F80410B9F80601A41C0090A4B275
:10997000BDF8143008EB0402002101A8FCF7A2F89E
:10998000204484B201980028A5D1012C08D90921CE
:1099900088F8001020460BB0BDE8F08F2A4602E0A0
:1099A00036B1022332465946404615F0E1FCF2E753
:1099B0000A23F3E74154545F524541445F42595FE3
:1099C000545950455F524551554553543A2066729B
:1099D0006F6D202530345820746F20253034582C7A
:1099E00020747970653A20002DE9FF4F87B08846D2
:1099F00083461F464FF00E090124194624A0DDF8C6
:109A000050A0FBF7C7FA00253BE000BF3AF815600D
:109A10005EB1324601A95846FCF7B5F928B1BDF848
:109A20000A00800703D4022307E0012305E001A90F
:109A30005846FCF703FE030007D03246494640462D
:109A400015F096FC0BB0BDE8F08FBBF8061101A82D
:109A5000FCF7DEFDBDF8140001190998814202D916
:109A6000401EADF81400BBF806010090BDF814309C
:109A700008EB0402002101A8FCF724F8204484B27A
:109A80006D1CBD42C2DB0F2188F800102046D9E7CB
:109A90004154545F524541445F4D554C5449504CDC
:109AA000455F524551554553543A206E756D2068B7
:109AB000616E646C65732025750000002DE9F0432C
:109AC00087B015460C46064699464FF00A081A46D6
:109AD00001A9FCF758F9074649461BA0FBF75AFABB
