:020000040000FA
:1040000000300A408D410000A9410000D540000069
:10401000AD410000AF410000B141000000000000D0
:104020000000000000000000000000003D4E000005
:10403000B541000000000000054E0000494E0000A0
:1040400009E0010041E0010009E20100BB4100007C
:1040500015E2010021E201002DE20100BB41000058
:10406000BB41000039E20100BB410000BB41000040
:10407000BB410000BB41000045E2010051E20100EC
:104080005DE2010069E2010075E2010081E20100E8
:10409000BB410000BB410000BB410000BB41000030
:1040A000BB410000BB41000095E20100BB410000A4
:1040B0000100070900600200DFF80CD000F08AFB65
:1040C0000048004719D4010000300A4030B580474D
:1040D00030BD00BF1EF0040F0CBFEFF30880EFF3FC
:1040E000098081694EF2A972C0F2010210470000F6
:1040F0002DE9FF5FEFF31080EFF31181EFF31282F0
:10410000EFF313830FB441F23870C2F200001A4982
:104110000160EFF30881EFF30982EFF31483EFF30B
:10412000038441608260C36004611448016841F007
:104130000101016044F6206000BF401EFCD1104820
:1041400041688268C368046981F3088882F309883A
:1041500083F3148884F30388BFF34F8FBFF36F8F0B
:104160000FBC80F3108881F3118882F3128883F3E7
:104170001388BDE8FF5F70473F410000040309401A
:104180003817002040BA7047C0BA70470B48016822
:1041900011F0010F1CBF21F00101016002D008489D
:1041A0000068004707480047FEE7FEE7FEE7FEE736
:1041B000FEE7FEE7FEE7FEE7FEE7FEE764010440F8
:1041C00038170020B94000002DE9F0035FEA930C96
:1041D00067D000BF30F9024B31F9026B30F9025B56
:1041E00031F9027B04FB06F805FB07F94FEA684842
:1041F000A8EB69487C4322F8028B6414754304EBF6
:10420000654422F8024B30F9024B31F9026B30F968
:10421000025B31F9027B04FB06F805FB07F94FEA64
:104220006848A8EB69487C4322F8028B6414754304
:1042300004EB654422F8024B30F9024B31F9026B72
:1042400030F9025B31F9027B04FB06F805FB07F944
:104250004FEA6848A8EB69487C4322F8028B641453
:10426000754304EB654422F8024B30F9024B31F9F7
:10427000026B30F9025B31F9027B04FB06F805FBA7
:1042800007F94FEA68487C43A8EB69486414754312
:1042900022F8028B04EB654422F8024BBCF1010CBE
:1042A00098D113F0030304BFBDE8F003704700BFCB
:1042B00030F9024B31F902CB30F9025B31F9026B74
:1042C00004FB0CF77F1405FB06F87443A7EB684763
:1042D000641422F8027B05FB0CFC04EB6C4C22F806
:1042E00002CB5B1EE4D1BDE8F00370472DE9F05F1F
:1042F0000546002092469B46884606468146402455
:104300001BE0284641464746224600F09EF85346A9
:104310005A46C01A914110D311461846224600F061
:1043200085F82D1A67EB01084F462246012000212F
:1043300000F07CF817EB00094E41201EA4F10104A7
:10434000DFDC484631462A464346BDE8F09F000080
:104350000649074A0868504343F23902104408608E
:104360004008704701490860704700000C070020B2
:104370006D4EC64110B5431A934209D2831888186E
:1043800003E010F8011D03F8011D521EF9D210BD03
:1043900040EA01039B0703D009E008C9121F08C0C7
:1043A000042AFAD203E011F8013B00F8013B521E47
:1043B000F9D210BDD2B201E000F8012B491EFBD2A8
:1043C00070470022F6E710B513460A460446194620
:1043D000FFF7F0FF204610BD421C10F8011B00291A
:1043E000FBD1801A704730B504460020034600E038
:1043F0005B1C934203D2E05CCD5C401BF8D030BD27
:1044000030B50B46014600202022012409E021FAA4
:1044100002F59D4205D303FA02F5491B04FA02F5A1
:104420002844151EA2F10102F1DC30BD202A04DB74
:10443000203A00FA02F1002070479140C2F12003B7
:1044400020FA03F3194390407047202A04DB203AF6
:1044500021FA02F00021704721FA02F3D040C2F1A4
:10446000200291400843194670472DE9FE4F8046CF
:1044700081EA0300C00F0C46009021F0004123F0B8
:104480000045B8EB0200A94105D2404621469046BE
:104490001C460B46024623F00040104304D1404620
:1044A000214603B0BDE8F08F270DC7F30A00C3F320
:1044B0000A510290401A0190402866DAC3F31300B3
:1044C00040F4801B0098924620B10023D2EB030AEF
:1044D00063EB0B0B01985946C0F140025046FFF7C1
:1044E000A5FF06460D4650465946019A00F084F94C
:1044F00010EB08006141002487EA115284EAE77357
:104500001A433BD0009A3AB3019A012A4FEA075264
:1045100010DC001B61EB02014FF0004202EA07527F
:10452000CDE90042001C41F5801132462B4600F0D7
:1045300082F9B6E7001B61EB0201001C41F5801314
:1045400000185B412018A2F5001747EB030140EA71
:10455000D570B6196D4111E06D084FEA360645EA8F
:10456000C0754FEA0752001B61EB0201001C41F5C8
:10457000801149084FEA30000019514132462B465C
:1045800003B0BDE8F04F00F049B9009801224000A7
:104590000023D0EB020263EBE073009821464FEA60
:1045A000E074B8EB000061EB0401E9E783F000433D
:1045B0005BE781F0004158E72DE9FE4F81EA0304F3
:1045C00004F0004421F0004100944FF0000B23F070
:1045D000004350EA010402D052EA030404D100204F
:1045E000014603B0BDE8F08FC3F30A54C1F30A5586
:1045F0002C44A4F2F3340194A0FB0254C1F3130140
:1046000041F48011C3F3130343F4801301FB02440C
:1046100000FB034E840A970A44EA815447EA835711
:10462000A4FB076802958D0A05FB07854FEA932CCA
:1046300004FB0C542705029D4FEA065847EA16373B
:10464000B5EB08056EEB070C870E920E47EA811753
:1046500042EA8312A7FB0201B6EB0B0164EB0004F4
:104660002B0D43EA0C335E1844EB1C50DA465146DE
:10467000E7FB0201C5F313044FEA0B3343EA14537B
:104680004FEA0432019C43EA0603A4F10C040294AD
:10469000009CCDE900B400F0CEF8A2E72DE9F04D82
:1046A00081EA030404F0004B21F0004514464FF06A
:1046B000000A23F0004150EA050220D054EA01022A
:1046C0001DD0C5F30A570246C5F31303C1F3130007
:1046D000C1F30A5640F4801543F48013A7EB060893
:1046E000101BD64608F2FD3873EB050002D308F123
:1046F000010801E092185B41B8F1000F03DA0020D5
:104700000146BDE8F08D00204FF480110646844636
:104710000EE0171B73EB050705D3121B63EB0503B4
:1047200006434CEA010C49084FEA300092185B41FD
:1047300050EA0107EDD152EA030012D082EA0400E8
:1047400083EA0501084303D100224FF0004308E04B
:10475000101BAB4102D20122002302E06FF00102E4
:1047600053101AEB06004CEB085110EB0A0041EB1A
:104770000B01BDE8F04D00F051B8C1F30A52C1F38E
:10478000130140F2FF3341F480119A4202DA002013
:104790000146704740F233439A42A2F2334202DCB0
:1047A0005242FFF752BEFFF741BE000030B500296C
:1047B00004DB4FF00044404264EB0101002B04DBBA
:1047C0004FF00044524264EB0303994208BF904209
:1047D00030BD0000064C074D06E0E06840F00103E4
:1047E00094E8070098471034AC42F6D3FFF768FC12
:1047F000F838020018390200202A06DBCB17203ACD
:1048000041FA02F043EAE07306E041FA02F3D040D5
:10481000C2F12002914008431946704710B5002BA1
:1048200008DA401C41F1000192185B411A4301D1A2
:1048300020F0010010BD2DE9F04D92469B4611B1CC
:10484000B1FA81F202E0B0FA80F220329046FFF72E
:10485000EDFD04460F4640EA0A0041EA0B015346CB
:104860005A46084303D120463946BDE8F08D11462B
:1048700053EA010015D0C8F140025046FFF7E5FDAC
:1048800005460E46504659464246FFF7CFFD0843BF
:1048900001D0012000E00020054346EAE0762C43E9
:1048A00037430A984FEA4453A0EB08004FEAD42458
:1048B0000A304FF0000244EA47544FEAD72502D5A8
:1048C00000200146D1E7010510196941DDE90845DD
:1048D00000196941BDE8F04DA0E770B501EB020495
:1048E00010F8015B15F0070301D110F8013B2A1104
:1048F00006D110F8012B03E010F8016B01F8016BF1
:104900005B1EF9D12B0705D40023521E0FD401F8EA
:10491000013BFAE710F8013B02F10202A1EB0303AD
:1049200003E013F8015B01F8015B521EF9D5A142C7
:10493000D6D3002070BD00001149D1E9000105F077
:104940002BFF002001F0E8FE0E4D0F4E0F4C2868A3
:10495000416A306888470028F9D12078000604D5DC
:104960000022114604201CF0EDFF01F0F3FE207838
:104970000006ECD50022114605201CF0E3FFE6E717
:10498000241F02000000002008000020200000205A
:1049900004480068C00503D103480068406B004725
:1049A0007047000004ED00E00000002004480068AB
:1049B000C00503D103480068806B004770470000C2
:1049C00004ED00E00000002010B5C368D9B28029D2
:1049D0000FD98468E06800B101204B2213A100F0D8
:1049E000C5FFE16819B12069BDE81040084772B6FB
:1049F000FEE70446008A616982B2D8B2124B1B6896
:104A0000984706F0D9FA00280FD1E068022806D0AE
:104A100004280AD1A069BDE8104006F0C7BAA08BEF
:104A2000A169BDE8104006F0BFBA10BD4863695FD8
:104A3000696E7465726E616C5F7472616E73706FB3
:104A400072742E6300000000300100201FB5416821
:104A500099B1052911D00A290ED10A4C1ECC8DE836
:104A60001E00C168019141690291008AADF80C00F5
:104A70001021684606F0E4F81FBD04B0BDE8104000
:104A8000FFF7A2BF742602002DE9FE4F044606F090
:104A9000BDFA08B1002000E00220494E00278346FD
:104AA000B8464FF00109A6F1EC0A7CBB5920BDE8DD
:104AB000FE8FE38F03B351B3431AA08E834200DC11
:104AC000184685B202EBC20000EB02120AEB82002C
:104AD0000144208E7080B4F84A0040B33580042031
:104AE0008DE82300284482B25946608D334606F093
:104AF00083FC47B2D7BB25E032496FF0050081F84F
:104B0000018081F8009081F80380D0E724E0FFE77E
:104B1000A18E8B1E984201DD891E00E001468DB2F8
:104B200002EBC20000EB02110AEB8101D1E7A81CE5
:104B3000308094F8430004EB4000B0F84600B080A9
:104B40000620CDE7B4F84A0001222844A4F84A0020
:104B50001146204600F054F894F84320B4F84A1067
:104B600004EB4200B0F846008142A2D394F843001F
:104B7000B4F84A1004EB4000B0F8462091421CD132
:104B80004334A4F80780A0F84680207800EBC001E9
:104B900001EB00110AEB81006421FFF712FC217880
:104BA0006078433C814204D1FF2043346070207020
:104BB00003E029EA010084F84300384677E7000063
:104BC000240F00206400002010B590F820200B2A4C
:104BD00011D090F84510012901D0002010BD0749DF
:104BE000002301244B700C70CB700A2A03D1C08DB6
:104BF000002107F005F9012010BD0000640000202D
:104C000000290ED022B1C28F8A420BD3511A0AE07A
:104C1000B0F840208A4201D3511A00E00021A0F8E8
:104C2000401070470021C187704730B500290FD070
:104C300000234FF6FF7462B1C28F1144B1FBF4F54B
:104C400004FB1514944213D8C387012180F8451042
:104C500030BDB0F840201144B1FBF4F504FB15144D
:104C6000944202D8A0F8403030BDA0F8401030BDCA
:104C7000C18730BD2DE9F0411E4613460D4602287E
:104C80004AD1B5F84000254C4FF00108002730B359
:104C900022462178224892F90120012910442DD082
:104CA00032461946FFF766FB607830446070B5F80D
:104CB0004000401EA5F8400094F90100E1788842C8
:104CC00027D183B26E68E98D154A0B20B047677013
:104CD00084F80080E7702846FFF776FF0BE06770E6
:104CE00084F80080E77095F820000A2803D1E88D49
:104CF000002107F085F80120BDE8F0811978E17006
:104D00002770B21E991CFFF735FB60783044801E77
:104D1000CCE72846FFF758FF0020EDE764000020AD
:104D20001F100020074A131D5980116860F3070106
:104D30001160106840F40070106010688005FCD4A9
:104D4000704700000804094000F01F020121914053
:104D500040094FF0E02202EB8000C0F8801270475B
:104D600000F01F020121914040094FF0E02202EBC8
:104D70008000C0F88011704700F01F0201219140AF
:104D800040094FF0E02202EB8000C0F800117047AC
:104D900000F01F020121914040094FF0E02202EB98
:104DA0008000C0F8001170474907090E002803DA97
:104DB00000F00F00024A00E0024A815470470000F0
:104DC00014ED00E000E400E0024A11400143024813
:104DD0000160704780FFFF1F08ED00E000B589B05B
:104DE000816803910021CDE90110044869460068FB
:104DF000826903480068904709B000BD00000020A8
:104E00000C00002001480068806C00470000002072
:104E1000014800F003B8000068010440014608683A
:104E20000A688242FBD10A688242F8D170470000CA
:104E30000149087270470000C8000020014800685E
:104E4000406C00470000002001480068006C0047EB
:104E5000000000200FB4054B10B503A9044A0298C6
:104E600000F0EAF810BC5DF814FB00004576000085
:104E7000100700200FB4084B10B504A902AA03982C
:104E800000F0DAF8044602A9002000F078FC204681
:104E900010BC5DF814FB00007F570000014B024A74
:104EA00000F0CAB845760000100700207047704730
:104EB00070477047704770477047704702E008C8F6
:104EC000121F08C1002AFAD170477047002001E084
:104ED00001C1121F002AFBD1704700002DE9FF5FBE
:104EE000DDE90220010DDDF838B0024310D10F9842
:104EF00001244CA2012808D0002100980F9BC0E992
:104F00000021C0E90243BDE8FF9F6FEA0B01F4E70F
:104F1000A1F2FF3144F6105041430D140F980128BF
:104F20000ED0A5EB0B00401C4FF000043E4EDFF806
:104F3000FC90B0F1000AA04605DACAF1000717E0BC
:104F4000CBF10000F0E7074612E0F80707D0224651
:104F5000334640464946FFF72FFB804689462246A6
:104F6000334610461946FFF727FB04460E467F10CE
:104F7000002FEAD1DDE90201BAF1000F42464B46AB
:104F800002DAFFF719FB01E0FFF788FB04460E4643
:104F90000022274BFFF70AFC03D84FF0FF300146F1
:104FA00007E00022234B20463146FFF75EFAFFF769
:104FB000E4FB102409E0002C0ADB0A220023FFF79F
:104FC00095F9019B30321A55641E50EA0102F2D164
:104FD000641C019AC4F1110314440F9A012A09D0E8
:104FE0000122084301D15B450FDD4FF0000205F1BE
:104FF00001050DE0084303D1A3EB0B056D1E09E08D
:1050000000204FF0110B0F9088E701DA00226D1E8F
:10501000002A83D000980F99C0E90231C0E9004509
:1050200071E7000030000000000024400000F03F65
:105030000000F0430000E03F2DE9FF4F95B09B4694
:1050400089460646002512E2252878D10024761CE0
:10505000F94A2746012105943378203B01FA03F0F1
:10506000104202D00443761CF6E730782A2811D08B
:105070006FF02F033078A0F13002092A16D8059A74
:1050800044F0020402EB820203EB42021044761C5D
:105090000590EFE759F8042B0592002A03DA5042F5
:1050A00044F40054059044F00204761C30782E2815
:1050B00016D116F8010F44F004042A280DD06FF021
:1050C0002F023078A0F13003092B09D807EB8703B2
:1050D00002EB4303C718761CF3E759F8047B761CF0
:1050E00030786C280FD006DC4C2817D068280DD0FB
:1050F0006A2814D104E0742810D07A280FD10DE06A
:1051000044F400140AE044F4801401E044F4401430
:105110007278824202D1761C04F58014761C3078B5
:1051200066280BD013DC582877D009DC002875D00E
:105130004528F6D04628F4D047281AD19FE118E038
:10514000632835D0642879D0652812D197E170287A
:1051500073D008DC6728F1D069286FD06E280DD095
:105160006F2806D1B5E073282CD0752875D0782823
:1051700074D05A46179990476D1C76E1C4F30250DB
:10518000022809D003280DD0D9F8001004280DD02A
:105190000D6009F1040968E1D9F80010EA17C1E9C6
:1051A0000052F6E7D9F800100D80F2E70D70F0E735
:1051B00019F8041B8DF8001000208DF80100EA4654
:1051C000012003E059F804AB4FF0FF3061074FF0C6
:1051D000000102D40DE008F101018846B9420FDA5E
:1051E0008045F8DB1AF808100029F4D108E008F12E
:1051F000010188468142FADB1AF808100029F6D12D
:1052000005985B46A0EB080721463846179A00F040
:105210009EFA284400EB080507E04DE02BE10DE085
:105220001AF8010B5A4617999047B8F10108F7D2BE
:105230005B4621463846179A14E142E00A22009262
:10524000C4F302524FF0000A022A08D059F804CBE6
:10525000032A4FEAEC710AD00DE029E02AE009F1B7
:10526000070121F00702F2E802C1914609E00FFAB6
:105270008CFC4FEAEC71042A03D14FFA8CFC4FEA04
:10528000EC71002907DA0A460021DCF1000C61EB21
:1052900002012D2202E0220504D52B228DF80420E4
:1052A000012203E0E20701D02022F7E7904653E015
:1052B0000A2102E010220DE010214FF0000A0091B7
:1052C0000BE010224FF0000A44F00404082700927B
:1052D00003E008224FF0000A0092C4F30252022AAF
:1052E00005D059F804CB0021032A08D009E009F1C0
:1052F000070121F00702F2E802C1914605E01FFA1A
:105300008CFC042A01D10CF0FF0C4FF0000822079E
:1053100022D5702827D0009B83F0100353EA0A039C
:1053200009D15CEA010206D030228DF804208DF804
:10533000050002229046009B83F0080353EA0A030B
:105340000AD15CEA010201D1620705D530228DF84D
:1053500004204FF001087F1E582809D037A0039081
:105360000EA8029013E040228DF804200122E1E70C
:1053700037A0F4E753466046009AFEF7B7FF84462D
:105380000398825C0298A0F10100029002705CEA2E
:105390000100EFD1029806A9A1EB000000F1200A5C
:1053A000600702D524F4803400E00127574502DD70
:1053B000A7EB0A0000E0002000EB0A01009005982E
:1053C0004144A0EB01000590E00306D45B46214672
:1053D000179A059800F0BBF90544002706E001A8DC
:1053E0005A46C05D179990476D1C7F1C4745F6DBF8
:1053F000E0030CD55B462146179A059800F0A7F903
:10540000054404E030205A46179990476D1C0099D6
:10541000481E00900029F5DC08E0029802995A46DF
:105420000078491C0291179990476D1CBAF1000150
:10543000AAF1010AF1DC6BE10928010030313233B5
:1054400034353637383961626364656600000000C0
:1054500030313233343536373839414243444546AA
:105460000000000000F060F9054406F10106307804
:1054700000287FF4E9AD19B02846BDE8F08F620737
:1054800000D4062709F1070222F0070CFCE80223EA
:10549000E14603F000485FEA080C02D00FF27C2CD2
:1054A0000DE05FEA045C02D50FF2742C07E05FEABE
:1054B000C47C02D00FF26C2C01E0AFF2700C4FF004
:1054C000FF3823F00043CDF850C065280CD006DC2F
:1054D000452809D046281DD047283ED13EE0662801
:1054E00018D0672839D139E00021112F01DB1120B4
:1054F00000E0781CCDE9000106A90EA8FFF7EEFC3C
:10550000DDE90F010E9A03910021009207F1010AD3
:1055100004914EE04FF000400097CDE9011006A93C
:105520000EA8FFF7DBFCDDE90F0203920E9B119939
:105530000022DDF80CA00093049219B907F10101D3
:1055400000EB010AB7EB0A0004D4C0F1FF3007F109
:10555000010A0490AAEB0700019046E0012F00DA4F
:1055600001270021112F01DD112000E03846CDE98F
:10557000000106A90EA8FFF7B1FCDDE90F010E9AA4
:105580000391002104910092BA4621070CD403999B
:10559000514500DA8A46BAF1010F05DD009AAAF1F9
:1055A0000101515C302908D0B84202DA10F1040F31
:1055B00006DA0121CDE9011017E0AAF10101E9E7BE
:1055C000002805DC049901440491AAEB000102E0E3
:1055D000411C514500DD8A460499A0EB010000F111
:1055E000010001904FF000400290200704D4019880
:1055F000504501DBCDF8048000208DF84F00029863
:105600000DF14F07B0F1004F25D02B200E900298DE
:105610004FF0020800280CDA404202902D200E9034
:1056200007E00A210298FEF7EBFE3031029007F8FE
:10563000011DB8F10001A8F10108F2DC0298002870
:10564000EFD1791E0E980870307800F0200040F0FD
:10565000450007F8020D12A8A0EB070000F10708AB
:105660001498007800B1012000EB0A01019801EBC9
:10567000E07105984144A0EB0100A0F10100059004
:10568000E00306D45B462146179A059800F05FF8C0
:1056900005441498007820B15A461799904705F1AF
:1056A0000105E00323D55B462146179A059800F0D3
:1056B0004EF805441BE00498002807DBDDE90301F0
:1056C000884203DD0098405C179901E0179930206B
:1056D0005A46904704986D1C401C04900198401E47
:1056E000019004D12E205A46179990476D1CBAF1AB
:1056F0000001AAF1010ADEDC05E017F8010B5A46A9
:10570000179990476D1CB8F10001A8F10108F4DC6D
:105710005B462146179A0598A4E600002D0000007C
:105720002B000000200000002DE9F0410446002578
:105730001E461746880405D406E039462020B047A7
:1057400005F10105641EF8D52846BDE8F0812DE974
:10575000F041044600251E469046C80301D5302777
:1057600000E02027880405D506E041463846B047CA
:1057700005F10105641EF8D52846BDE8F0810A68E8
:10578000531C0B60107070472DE9F05F06460088CF
:105790000B46C0F30B00834605F0B6F904007078A1
:1057A00075884FEA10170AD005F10408984509D00A
:1057B0002A1DBDE8F05F19463548FFF77BBB594607
:1057C00034A01EE001F036F907F00301002740F293
:1057D000031A6063012903D002292CD03CA010E0F9
:1057E000A08F60B14119B1F5827F0ED328485B4686
:1057F00052465C30FFF75EFBA787BDE8F09F594635
:1058000043A0BDE8F05FFFF755BBA16B2A460844F3
:105810000E30311DFEF7AEFDA08F284481B2A18766
:10582000E08F083081422FD3A06B0E3005F0E2F9F3
:10583000E787A78728E0A08F28B115485946B030E0
:10584000FFF738FBA787B788381D8146854205D307
:105850001FFA88F1304605F0CDF915E0FF2D07D984
:105860005B465246291DBDE8F05F3848FFF722BB72
:10587000A06B2A1D0E303146FEF77CFDA4F83C805B
:10588000E787A16BA1F81090BDE8F05F05F0E2BCDE
:10589000D42202006863692E633A2061636C5F68FA
:1058A000616E646C65722063616C6C6564207769FD
:1058B0007468206E6F6E2D726567697374657265AA
:1058C000642068616E646C6520257521000000000D
:1058D0006863692E633A2061636C5F68616E646C13
:1058E00065722063616C6C656420776974682069F7
:1058F0006E76616C6964207061636B657420626FA1
:10590000756E6461727920666C616773202575001D
:1059100041434C20436F6E7420467261676D656E23
:105920007420627574206E6F2066697273742066CD
:105930007261676D656E7420666F722068616E6457
:105940006C6520307825303278000000D8230200C2
:1059500010B505494FF6FF7302E084788C54C01CE3
:1059600002889A42F9D110BD00000A4010B50B46DA
:10597000002803D11146184607F002FD10BD7047FC
:105980001CB506498C68002C07D0002100910191BC
:10599000B0F806010B460322A0471CBD28000020DA
:1059A00070B50D46002821D1182D1FD2104C4FF490
:1059B000947654F8250020B9304600F08BFF44F867
:1059C0002500040012D031462046FEF7FAFCA4F868
:1059D000065104F58071284603F045F806F0F0FE04
:1059E000A4F802014FF0FF30A4F8080170BD0000D8
:1059F00000080020F8B51646028A069FA2EB0102B5
:105A000094B2C288D2050AD50A4A55683DB10093BE
:105A100000890A46014633463846A847F8BD9C42ED
:105A200000D91C464069224601443046FEF7A2FCDC
:105A30002046F8BD28000020042106F067B80421A4
:105A400006F09EBF024908600421024806F010BF1C
:105A500034000020995F0000024948600421024898
:105A600006F006BF34000020995F0000042106F014
:105A70004DB8042106F084BF00B58BB0D0F82401E6
:105A8000009023E0684600F023FABDF808100029D2
:105A90001ED0BDF806200FA0FFF708FABDF80600DB
:105AA0008005039808D506A918F07AFF06A81CF00F
:105AB000A1F9014611A001E0018811A0FFF7F6F954
:105AC000BDF8101010A0FFF7F1F900980028D9D107
:105AD0000BB000BD48616E646C653A2030782530AB
:105AE00034782C20666C6167733A20307825303426
:105AF000782C20757569643A200000002573000039
:105B000025303478000000002C2076616C75655FCC
:105B10006C656E3A2025752C2076616C75653A208F
:105B200000000000064A30B41468002C06D00B4672
:105B3000A4460246002130BC0420604730BC7047B8
:105B40003C0000207CB51446042819D120783E285A
:105B50003FD016DC052846D0082801D030280FD1C8
:105B6000B2F80350284600F0BDF8040008D02846DB
:105B700019F0EDFD04F8FD0F284619F0D5FA607014
:105B80007CBDD7284CD0D8283BD0DA28F8D1608803
:105B900000F0A8F80500F3D0B5F8060104F0B4FF52
:105BA0000600EDD02079317A8842E9D16946601D3E
:105BB00018F005FF062231466846FEF714FC00285F
:105BC000DED1E07A85F8FF00B5F80601FFF751FF56
:105BD0007CBDA078012801D00A28F9D19188D0781D
:105BE000FFF7DEFE7CBDB2F80340204600F07AF8F5
:105BF0000028F7D000F074FE0F49002041F824007F
:105C00007CBD608800F06EF80500F9D0B4F80B0098
:105C100001B2A5F8081109A0FFF749F9284608E0E4
:105C2000508800F05FF80028EAD04FF0FF31A0F86C
:105C3000081100F091FA7CBD00080020534D5F452B
:105C400056454E545F4944454E544954595F524558
:105C5000534F4C56494E475F535543434545444582
:105C600044206964202575003EB50C468DF8080077
:105C700000208DF8092000900190022302AA04213F
:105C8000204607F0BBF83EBD7FB50DF1200C144651
:105C9000BCE864008DF80800ADF80930ADF80B20C1
:105CA000ADF80D10CDE90056072302AA04212046C5
:105CB00007F0A4F87FBD70B515000C4603D0D0F8EE
:105CC0002401206008E0002070BD204600F000F9AB
:105CD0002089A84203D020680028F6D170BD012099
:105CE00070BD0000182803D2024951F82000704707
:105CF00000207047000800202DE9FF41164691F86A
:105D000000C00024B0F800214F1D1D46BCF10E0F4D
:105D100072D00CDCACF1020EBEF10B0F1BD2DFE82F
:105D20000EF0221A341A3C1A4C1A5C1A6200BCF1AA
:105D3000180F70D009DCBCF1100F66D0BCF1120F47
:105D400076D0BCF1160F06D177E0BCF1520F7ED0B1
:105D5000BCF1D20F7BD061463FA0FFF7A7F804B09B
:105D60002046BDE8F081B1F80110B0F802218A4266
:105D700002D9A0F8001101E0A0F8002103242C7042
:105D8000B0F80001A5F80100E9E7491C4B88009331
:105D90000B88294603F000FC0DE0CB1D491CF61FC3
:105DA000B4B28F884E88CDE90243CDE900670B88F5
:105DB000294603F05DFB0446D1E70C462946072E31
:105DC00001D8022300E01023641C6588CDE900534C
:105DD0000297238803F0C0FDEDE7B1F801302946B2
:105DE00003F0D4FEE7E7491C4B8800930B88294653
:105DF00003F0A8FCDFE7FFE7491C761E0091C6F31D
:105E00004F03294603F050FED5E70C461946072EEE
:105E100003D8022302E015E00AE01023641C658821
:105E2000CDE900530297238803F0FCFCC3E70EE0A2
:105E30000092324603F036FFBDE70092324603F08F
:105E400023FCB8E70092324603F0E0FAB3E7009291
:105E5000324603F0F7FE82E7556E68616E646C654A
:105E6000642041545420436F6D6D616E643A202567
:105E70003032582C20444154413A20001CB50B4B81
:105E80001C68002C10D0B6238DF8003005238DF847
:105E900001308DF80200ADF80310ADF8052007239E
:105EA00000216A460420A0471CBD00003C000020E1
:105EB00010B580B2FFF716FF002808D0B0F80A210D
:105EC000B0F80611BDE810409120FFF7D7BF10BD14
:105ED00010B501680A88828072B14B88C3808C88B3
:105EE000048101F10604C4609B050CD5A2F11603E0
:105EF000038201F116030BE00021C1800181C16022
:105F00000182416106E0A2F10803038201F1080366
:105F100011444361016010BD70B5044600890D460F
:105F200000281BD0022A08D0E08880050BD510225B
:105F3000E068FEF758FA80B111E009882046BDE814
:105F4000704000F00EB8084605F060FC002805D04F
:105F5000E168A8890988884201D1012070BD00202C
:105F600070BD70B5044600890D46002810D0E08849
:105F70008005E06808D505F049FC002808D0E068F5
:105F80008089A84203D004E00088884201D1012022
:105F900070BD002070BD00002DE9F041194C06468F
:105FA0001F4615468846042809D0082E28D128788F
:105FB000C00720D0D4F800C01FE03046E047287862
:105FC00078281DD1D4F804C0BCF1000F08D03B469E
:105FD0002A4641463046E04704F08EFC00280FD0A8
:105FE0002468002C0CD03B462A4641463046A44645
:105FF000BDE8F0416047D4F804C0BCF1000FDCD12B
:10600000BDE8F081340000202DE9F0410F4615462F
:10601000044601461E46127828A0FEF748FF042CCD
:106020000CD0082C48D13846FFF75CFE040043D062
:1060300029781E2909D0522918D01EE028787828FE
:106040003AD1BDE8F04100F00FB9B4F80A01A0B1AF
:1060500004F5867000F0F0FC04F583740020A2883B
:10606000A0802188BDE8F041FFF708BF32462946ED
:10607000BDE8F0410023FFF73FBEFB2E06D93246B4
:10608000BDE8F041FB231A48FEF711BF22782AB180
:10609000BDE8F04116485030FEF709BF01202070DE
:1060A000A4F8046132462946A01CFEF763F9204695
:1060B000BDE8F04100F050B8BDE8F0816174745F54
:1060C0007061636B65745F68616E646C65723A20C1
:1060D00074797065203078253032782C20706163B7
:1060E0006B65745B305D20307825303278000000BD
:1060F000BC20020010B5B0F80001029CC01E80B2A6
:106100001970A3F80120844200D8204610BD1FB5A5
:1061100014468DF80800069AADF80930ADF80B204A
:10612000ADF80D10002000900190072302AA042171
:10613000204606F063FE1FBD3EB50C468DF80800F4
:10614000ADF80920002000900190032302AA042149
:10615000204606F053FE3EBD2DE9FF41044601787E
:1061600024A0FEF7A4FE207801282DD1A078D22803
:1061700008D003202070B4F8060104B0BDE8F04157
:10618000FFF777BC19F0A2F90027E0B1B4F80401D9
:106190000F2818D3B4F8060119F05AFD002813D1BE
:1061A000B4F9080106F0CEFF05000CD0B4F80411D4
:1061B000A4F10A000E58696C324611A0FEF777FE72
:1061C000686CB04202D92770BDE8FF8102202070C0
:1061D000B4F803201749601DCDE90006CDE902148B
:1061E000B4F80401A1780F3883B205F1340019F036
:1061F00077F9E9E76174745F72756E3A202564007F
:10620000415454205369676E656420577269746500
:106210002C20444220636F756E7465722025752CA6
:10622000207061636B657420636F756E7465722096
:1062300025750000F9640000FFF718BC0EB50B21AE
:10624000CDE900238DF80810012302AA042106F0ED
:10625000D5FD0EBD00B5FFF745FD10B1B0F800014A
:1062600000BD172000BD00002DE9F8430025144FA4
:10627000144EA84657F82540E4B1207803280BD1E6
:10628000204600F0A7F838B1607898B1B4F806015C
:10629000BDE8F843FFF7EDBB607858B10AA084F879
:1062A000018000680090346824B1022300216A460E
:1062B0000420A0476D1C182DDCD3BDE8F883000036
:1062C000000800203C000020B70000002DE9FE433C
:1062D0001F4616460D468046FFF704FD040005D014
:1062E000B4F80A0120B19020BDE8FE835920FBE7F5
:1062F0004046FFF7BBFB88B102AB2A461D21204672
:106300000097FFF7F7FECDE90060032302AA0421FE
:10631000404606F073FD060002D014E05720E3E784
:10632000A4F80A5104F5867042460849044600F074
:10633000B5FB47F2305240F28241204600F09AFB12
:10634000204600F06FFB3046CEE70000B15E000053
:1063500070B505460B480A4C0E46446004F0A0FA9E
:1063600008480830446018F08DFC0748FFF774FBBC
:10637000284600F0B5F83046BDE8704000F0B6B8E9
:10638000455B000040000020096000002DE9FE434D
:106390001E4615460F468046FFF7A4FC040014D0A5
:1063A0004046FFF763FB90B102AB3A461B21204603
:1063B0000096FFF79FFECDE90050032302AA0421B7
:1063C000404606F01BFDBDE8FE835920FBE7572041
:1063D000F9E700002DE9FC412F4E00270770044625
:1063E000B0F804213346811CFFF786FC0546A0F572
:1063F0007F40FF3823D0042D0FD3307801280CD1F3
:106400003079082809D194F8FE0030B1B4F80601BB
:1064100018F0B1FE78B1012811D085B1009701972D
:10642000B4F806012B463246042106F0E7FC30782A
:10643000032807D02DE0B4F806011AF09DF80020DB
:10644000BDE8FC81154AB4F80611B4F800011568DE
:1064500075B1B5228DF8002004228DF80120ADF829
:106460000210ADF80400062300216A460420A84764
:10647000B4F8060100F084F809480078C00708D095
:10648000B4F800010022001D81B2B4F8060101F049
:10649000FDFC0120D4E70000240F00203C00002078
:1064A0005000002001490860704700003C000020B7
:1064B00010B50246FFF716FC002806D001214170F6
:1064C000BDE810401046FFF7D4BA10BD10B50C4619
:1064D000FFF708FC002801D0C0F8244110BD0000DF
:1064E0000149486070470000280000200149886089
:1064F00070470000280000207CB5044600780A465A
:1065000002280ED16946104618F056FAB4F8041164
:10651000A01F014408226846FDF765FF10B1002066
:1065200020707CBDB4F80411A4F10A000E58B4F92F
:10653000080106F007FE050001D0012000E0002060
:10654000E52207A1FFF712FA45B1761C6E6403201D
:106550002070B4F80601FFF78CFA7CBD72B6FEE736
:106560006174745F7365727665722E63000000005B
:106570000A6882654968C1653521017002F0F6BB81
:1065800070B5054602F032FF04000BD02846FFF735
:10659000A9FB002806D0E28AB0F800118A4202D98D
:1065A000A0F8002170BDE18270BD0000F8B504467E
:1065B000C0880E46C0050BD506484568002D07D09B
:1065C000002000900346024621893046A8472082D9
:1065D000F8BD0000280000207CB50E46C98804469E
:1065E0000D0B00D06D1C14F8FD2F6078CDE9000272
:1065F000A378FD3C2A461048FEF758FCF088410578
:1066000002D594F8FE1079B1000502D594F8FF0088
:1066100060B1002D02DD94F8FD0048B194F8FD0052
:10662000A84207DA0C207CBD05207CBD08207CBD7B
:106630000F207CBD00207CBDB81F02003EB50C467B
:106640008DF808000699ADF80920CDE90013032361
:1066500002AA0421204606F0D1FB3EBD0622FDF72A
:10666000C2BE0A68026089888180704710B50C49F3
:10667000002203463A24985C000900F005FB0870EC
:10668000985C00F00F0000F0FFFA48708C70C91C95
:10669000521C062AEFDB002001F8010C004810BD57
:1066A000850800200844008840BA70474218405CC2
:1066B0005378528852BA63F31F4242EA006070472F
:1066C000130A4354491C89B242547047130E435471
:1066D000491C89B2C2F307434354491C89B2C2F32F
:1066E00007234354491C89B24254704710B50446ED
:1066F000FEF74EF903480188A1430180BDE8104030
:10670000FEF754B9AC06002010B503F06CFCBDE8F0
:106710001040012000F010B810B506490A68C2F315
:106720000312022AFAD1012100F0C2FBBDE8104099
:1067300004F0C4BF0400044010B50446FEF728F975
:106740000348018821430180BDE81040FEF72EB9BF
:10675000AC06002003480078C00701D117F07AB9D1
:1067600070470000AC06002002480068816A0248B9
:1067700000680847000000200800002010B504460B
:106780000E480078C00718D0FEF702F94CB103217B
:106790000B4816F0B5FE03F028FC0FF075FD0BF06A
:1067A000E5FE0120FFF7A2FF10F094FD032017F093
:1067B0007FFABDE81040FEF7F9B810BDAC06002026
:1067C0005000030070B50D480088A0B910F096FC89
:1067D00040F2E2450446A8420DD30948406D50B945
:1067E00017F03AFB38B117F03FFBA84203D3A042A1
:1067F00000D3204670BD002070BD0000AC06002014
:106800000000094001490860704700005000002066
:106810000268134602E08A4204D01268002AFAD1C4
:106820000B600160704702E08A4205D010460268A2
:10683000002AF9D10A6001607047006808B10020A1
:1068400070470120704704E0884201D10120704761
:1068500000680028F8D170470268816832B140684A
:106860000068884200D1086808B9704709B1012062
:106870007047002070470022C0E90021096881604C
:106880007047016851B141680A6881688A4203D142
:1068900041600968816003E0826001E001210160DC
:1068A00080687047816809688160426811600021D2
:1068B000016070474FF0FF3351B107E002688A4230
:1068C00003D1096801600020704710460028F5D107
:1068D0001846704701490968C96A08470000002046
:1068E00001490968096B084700000020FFF7F8BF5D
:1068F0007820FFF7EFBF10B50446806B06F057FC19
:106900002046BDE81040FFF7EBBF70B59820FFF7B9
:10691000E1FF04000CD040F2111006F071FC0500FC
:1069200008D098212046FDF74CFD2046A56370BD98
:10693000002070BD2046FFF7D3FFF9E77047FFF74F
:10694000CFBF4C20FFF7C6BFFFF7CABF1420FFF729
:10695000C1BF2DE9F04106460020984617460C4677
:106960000546306005E02146304600F007F8444413
:106970006D1CBD42F7DBBDE8F081000030B4026859
:10698000134607E08B4204D1024630BC04A0FEF758
:106990008FBA1B68002BF5D10A60016030BC7047CC
:1069A0006274737461636B5F6D656D6F72795F7034
:1069B0006F6F6C5F667265653A20626C6F636B2007
:1069C000257020667265656420747769636520664A
:1069D0006F7220706F6F6C2025700000016819B114
:1069E0000A6802600846704700207047FFF778BFCA
:1069F0000C20FFF76FBF000000B589B003460A20E6
:106A0000019006480068CDE904210549CDE902035B
:106A100009688A696946904709B000BD0C000020EA
:106A200000000020024940690968496808470000E1
:106A3000000000200020704710B50446406928B1CE
:106A400003490968C968884700206061002010BDBB
:106A50000000002070B5064D044640692968896829
:106A60008847296860694968BDE8704008470000A8
:106A70000000002070B50446816005481546054AAF
:106A800000682146036828469847606170BD000091
:106A900000000020DD4D000001617047C0E90312D5
:106AA000704700000249406909688968084700008A
:106AB000000000202DE9F0410746114815460E461A
:106AC0000468984604F58A7438886288218800F042
:106AD0001FF9388062882188308800F019F93080E9
:106AE000E288A188288800F013F92880628921892A
:106AF000B8F8000000F00CF9A8F80000BDE8F0813B
:106B0000FC21020070B50C00054601D0012000E018
:106B100000206A2206A1FEF729FF284600F034F87B
:106B200010B100206C602060286820602C6070BD6F
:106B30006C6973745F62617369632E6300000000A7
:106B400070B50C00054601D0012000E00020532262
:106B500007A1FEF70BFF284600F016F808B12C60DD
:106B600001E06868046000206C60206070BD000077
:106B70006C6973745F62617369632E630000000067
:106B80000021016041607047006808B10020704733
:106B900001207047006808B100207047012070474D
:106BA000016819B10A68026012B103E00022FAE735
:106BB000002242600846704770B5054600680C46E2
:106BC00000B10120C32209A1FEF7D0FE206800B168
:106BD0000120C42205A1FEF7C9FE6968206808608B
:106BE0006068686000202060606070BD6C697374CC
:106BF0005F62617369632E630000000070B5034635
:106C000000200246012513F80240002105FA01F692
:106C1000344201D0401C80B2491CC9B20829F5D3C6
:106C2000521CD2B2052AEED370BD70B5044600895D
:106C300042F6554290472521B0FBF1F201FB1201CB
:106C4000CA0801F00705A25C0123AB401A4201D03B
:106C5000084670BDE18841432046BDE87040C1F35D
:106C6000074102F09BBB30B50446106820601079E4
:106C70000D4600F01F0020712046FFF7BFFFE080A7
:106C800085EA1540208130BD0A2801DA303003E062
:106C90000A38062802DA4130C0B270473F207047F8
:106CA00070B50446C08E88B0002822D0258F94F895
:106CB0003430A2268DF800601A268DF80160A6896E
:106CC0000A46ADF80400ADF8082004F11C01ADF847
:106CD0000260ADF80650ADF80A30102203A8FDF7A7
:106CE00049FBA1891C236A46A06800F021F9002015
:106CF000E08608B070BD000004481144814203D909
:106D00000120186003207047002070471F0E0020EC
:106D100019B1884201D208467047002AFCD090423F
:106D2000FAD91046704700000249CA6D82430243F7
:106D3000CA6570470000094043688B4204D18068EF
:106D4000904201D10120704700207047F8B5114CE6
:106D500020212068426940209047E0602068006A56
:106D60008047A0600120009020684FF40066334601
:106D700005690022084909A0A84720610020009069
:106D80002068334600220569064907A0A8476061CC
:106D9000F8BD000000000020394900006374726CE7
:106DA0000000000055E60100686F737400000000E9
:106DB00010B504F004FD0022BDE810401146022089
:106DC00004F0C4BC70B50646401E1D460C4618288B
:106DD00009D220782968884205D10622211D6868D9
:106DE000FDF701FB08B1002070BDC5E90264032076
:106DF00070BD00000248017A491C01727047000012
:106E0000C800002010B5044603F0C6F900200FF0BA
:106E100027FA10F083F80FF06BF808F059F90BF02F
:106E200045FF11F053FD15F0ADFC002C03D0BDE87B
:106E3000104010F00ABE10BD70B50446B0F1A53F79
:106E400019D0B4F1C33F16D00123DA0205211C206A
:106E500016F06EFD0546B4F1F23F09D0922206A16C
:106E60000020FEF783FD2846BDE8704016F0CEBE38
:106E700007202870F7E770BD6474626C652E6300AC
:106E800070B50A4C4FF42020074DE0641AF06EFAFA
:106E9000800602D54FF4803001E04FF400402844D2
:106EA000C0F31300A06470BD00000A400000094058
:106EB000F8B506461B480F46002101800FF0BAFACC
:106EC0001AF062FA16F0DCFC68460FF0F5FA044698
:106ED000009845F6C43142F2D035884201D30120F2
:106EE00000E00020852210A1FEF740FD2A46214641
:106EF000002016F031FD00986119A0F50C50D03833
:106F000082B2012016F028FD1AF0DAF93846FFF7B0
:106F100079FF002E04D03046BDE8F840FFF78CBF63
:106F2000F8BD0000AC060020647469702E63000098
:106F300030B4040003D0A44630BC0420604730BC09
:106F40007047FEB51E4617460C46054602F04EFA3F
:106F5000002816D0011D6846FFF78DFC0CE068463E
:106F6000FFF78FFC0189A14206D1D0F804C0334657
:106F70003A4629460420E0476846FFF76DFC0028A2
:106F8000EDD1FEBD1CB5A0228DF8002003228DF8A6
:106F900001208289ADF802208DF804108189806873
:106FA00005236A46FFF7C4FF1CBD30B587B0044611
:106FB000A3250A988DF8005018258DF80150A58951
:106FC000ADF80410ADF806200146ADF80250ADF85A
:106FD000083010220DF10A00FDF7CCF9A1891A231F
:106FE0006A46A068FFF7A4FF07B030BD10B586B0B1
:106FF0000446A1208DF8000016208DF80100A0891C
:10700000ADF80410ADF80200ADF8062010221946C4
:1070100002A8FDF7AFF9A18918236A46A068FFF717
:1070200087FF06B010BD00002DE9F05F00249246F6
:10703000894605462746264624E000BF05EB840026
:10704000B0F9021035F9240017F0F0FC834605EB87
:107050008800B0F9021035F9280017F0E7FCABEB17
:10706000000043F6FF71884203DBA0F5FE40FF38C5
:1070700004E00849884201DC490C0844074404EB59
:107080004904761C04EB0908D045D7DB97FBF6F0E2
:10709000BDE8F09F01C0FFFF2DE9F04704464278AC
:1070A00088460846911C88B0884507D008B001463C
:1070B000BDE8F047921CF648FDF7FCBE2178F5A02C
:1070C000FDF7F8FEF74E2078012235684FF00009F1
:1070D00080354FF0070A102874D00BDCA0F10500B2
:1070E0000B284AD2DFE800F0CEAB499749496F49F7
:1070F000491142003E287DD004DC12287BD01328A1
:107100003BD140E0572838D1BAE13068A27890F8F6
:107110009A10E5A0FDF7CEFE6179ECA0FDF7CAFE5E
:107120003168A07881F89A00ED49B4F80300098825
:1071300088421FD0EB49098888421BD0EA49098858
:10714000884217D0E9490988884213D0E84909885C
:10715000884201D1294605E0E6490988884209D1DB
:1071600031688431601D03F0B7FB03E03168E078DB
:1071700081F89A003168A1F8CE90306890F8B0009C
:1071800001286ED019E20325002717E0635BAD1CD0
:10719000625BAD1C184603F0B7FC38B190F84010A4
:1071A000914208D3891A80F8401006E01946D2A00F
:1071B000FDF780FE01E080F840907F1CA078B84287
:1071C000E4DCDAE767E0B4F8030003F09DFC0500B7
:1071D000D3D0A07860B9E17A04F10500090703D59E
:1071E000698A41F004016982C078000600D5EA7519
:1071F000688A01E060E053E040F00201A44869823F
:10720000EA7D6030FDF756FE688A0106B5D540F08C
:1072100020006882B1E7B4F80350284603F074FCFC
:107220000028AAD0A17831BB61790029816902D0F8
:1072300041F4004101E021F4004181611BE0B4F818
:107240000350284603F060FC002896D0418A0A06C5
:1072500008D521F0800141F010014182A17801752B
:107260008BE7A5E1A27832B9427D022A03D841F02A
:107270004001418281E700F0EDFC0146284603F021
:1072800031FD7AE7B4F8030003F03EFC002898D003
:1072900080F811A071E703F059FF03F06BFF6CE772
:1072A000A07800288DD1B4F8030003F02DFC00284D
:1072B00087D0617A017460E7A07806287ED010DC60
:1072C00001281CD00428A5D1E078002877D1A08817
:1072D00003F01AFC002872D08830A1794170027046
:1072E0004BE70A280BD0122894D12079082891D294
:1072F000E17800297DD08EA0FDF7DCFD3DE7E07848
:10730000002887D1A788182F26D2306800EB870580
:10731000686910B9FFF7F9FA686105001CD0EF80C1
:107320000220C5F8189068752A468A4905F11C00A4
:10733000FFF7B4FBFFF77EFB6863E079287229460C
:1073400004F1080017F03BFB05206874A07928744D
:10735000A0780A2804D012E0A08800F0FBF90CE71E
:10736000D4F80E10C5F88A10618AA5F88E106169EC
:10737000C5F89010218B05F18000A5F89410E089E4
:10738000A5F85200287C50B9306805F1090190F841
:107390009800E873306890F8980000F0CBFA28461F
:1073A000FFF764F90246E9886BA0FDF783FD03F05F
:1073B0006FFC306890F8A600C00601E008E064E0C9
:1073C0008ED5E98840F6B8326B4803F0DDFCD4E690
:1073D00034F8037F384603F097FB05006088ADF86A
:1073E0001400A088ADF81000E088ADF818002089DE
:1073F00000E01CE0A4F10304ADF81C00AFD007AB23
:1074000006AA04A905A8FFF755FB5435BDF81800D6
:107410006B882A88BDF81C108DE80F00BDF810306D
:10742000BDF814203946554803F0AEFCA5E6B4F883
:107430000520104603F068FB0546217950A0FDF7B2
:1074400039FD20793168C0EBC000084490F8DB10AA
:10745000E97369B120793168C0EBC000014401F1E2
:107460008000D1F8DC1045F8091FB0F8600005E095
:10747000306850F88C1F45F8091F8088A8807CE68A
:10748000608803F041FB0028A1D108B0BDE8F08777
:10749000442402004843493A4556454E543A253063
:1074A00032780000FC210200434D445F434F4D50B1
:1074B0004C45544520636D6473206F6C64202575C2
:1074C000202D206E6577202575000000636D645FB8
:1074D000636F6D702073746174757320257500007F
:1074E000FC25020004260200E4250200F425020027
:1074F000842502008C2502006863695F6E756D62E9
:1075000065725F636F6D706C657465645F706163F5
:107510006B6574206C6973747320756E7573656424
:1075200020636F6E2068616E646C652025750000B5
:1075300061647620736574207465726D696E617420
:107540002064756520746F206361757365203078E1
:1075500025780A0021AB00004E657720636F6E6EC0
:10756000656374696F6E3A2068616E646C6520258E
:10757000752C20257300000024250200AC25020094
:107580006164762068616E646C657220307825785D
:1075900020636F6E6E656374656420746F20636F23
:1075A0006E2068616E646C6520307825780A000072
:1075B0001FFA88F1204603F083FC1FFA88F1204669
:1075C00003F03EFB2078052823D1B4F8030003F034
:1075D0009BFAF0B1D0E90012047D458ACDE903128F
:1075E00003F09AFFE80514D503AD21460BA0FDF783
:1075F00061FCE1208DF800008DF801A08DF80240BB
:107600000DF10301284617F0DAF90921684603F065
:1076100017FB08B0BDE8F04703F01CBE6863695F64
:10762000656D69745F6465646963617465645F62F4
:107630006F6E64696E675F726573756C7420257513
:107640002000000010B5044604F0B2F8204610BD3A
:1076500070B5064615460C460C20FFF73BF901466F
:107660003046C1E90145BDE87040FFF7DCB80000D5
:1076700013460A4610B50146024803F085FBC0B226
:1076800010BD00005426020010B50246024803F067
:107690007BFBC0B210BD00005425020070B588B05D
:1076A0000C461D461646694617F07AF904A920468D
:1076B00017F076F904AA6946074803F065FB10F055
:1076C000FF0406D105482A46314600688030FFF79E
:1076D000BFFF08B0204670BD84250200FC210200D7
:1076E00010B5024803F050FBC0B210BD4C2502009B
:1076F00010B5024803F048FBC0B210BD04260200DA
:1077000010B5024803F040FBC0B210BD6426020071
:1077100000B1012004490A6892F8D120824202D0C7
:10772000096881F8D1007047FC21020010B50248B9
:1077300003F02AFBC0B210BD4425020008B5009337
:1077400013460A460146024803F01EFBC0B208BDBC
:107750006022020010B5034603F0D6F940B10621BD
:10776000417413221946054803F00EFB002010BD9A
:107770000021184603F050FAF8E70000F424020054
:1077800038B54FF0FF30ADF80200ADF80000062527
:107790000DE0684603F008FA0446407C062806D04F
:1077A000E1881322054803F0EFFA00B965746846D2
:1077B00003F0DAF90028ECD138BD0000F42402000F
:1077C00038B500B101200D490A6892F8D0408442D2
:1077D00010D121460AA0FDF76DFB66208DF8000050
:1077E00001208DF801008DF802400321684603F066
:1077F00027FA38BD82F8D00038BD0000FC21020015
:107800004254535441434B5F4556454E545F44499F
:1078100053434F56455241424C455F454E41424CC1
:1078200045442025750000002DE9FF4FDFF8A8A092
:1078300085B00024DAF80020DDE912691268DFF86B
:1078400094808B460A2000EB061153692746B8F84E
:10785000000003AA9847050001D001210FE056203F
:1078600009B0BDE8F08F00BF04EBC40219F8122084
:10787000521E01FA02F03843641CC7B2E4B2B442AB
:10788000F2D3DDE907018DE883005B46D8F80410E8
:107890002846059A03F02EF9C7B200240DE000BF78
:1078A00004EBC40109EB4101891CE8191022FCF723
:1078B00061FD1037641CFFB2E4B2B442F0D3DAF8D1
:1078C0000010404681F898B02946039A03F0ECFD79
:1078D0000020C5E734260200FC21020070B50646F0
:1078E0000D46074803F050FA10F0FF0406D1054892
:1078F0002A46314600688430FFF7AAFE204670BD54
:107900008C250200FC2102000248006890F8D20099
:1079100070470000FC2102000549096801F58A71E1
:107920000A6802604A6842608968816070470000A6
:10793000FC210200054A0028106801D0923000E0C6
:107940008C3002680A60808888807047FC210200C1
:1079500010B50146024803F017FAC0B210BD00008E
:10796000742502000349096851F88C2F0260898848
:1079700081807047FC21020010B50446014604A036
:10798000FDF798FA022C01D9012010BD002010BD8E
:107990006761705F6D69746D5F70726F7465637439
:1079A000696F6E5F72657175697265645F666F722B
:1079B0005F73656375726974795F6C6576656C2059
:1079C000257500007FB50DF1200CBCE870008DE836
:1079D000780013460A460146024803F0D5F904B080
:1079E000C0B270BD3C26020010B5024803F0CCF9CD
:1079F000C0B210BD4426020013460A4610B5014627
:107A0000024803F0C1F9C0B210BD000050220200CC
:107A100013460A4610B50146024803F0B5F9C0B254
:107A200010BD0000482202001CB5049CCDE90034C2
:107A300013460A460146024803F0A6F9C0B21CBD2F
:107A40005822020010B50146024803F09DF9C0B269
:107A500010BD00004C2602000448417A012903D1E0
:107A60000221417218F0ECBD70470000C8000020F0
:107A7000074810B5026C40F282210648FEF7FAFF73
:107A80000448FEF7CFFFBDE81040FFF7E5BF000058
:107A9000C80000209013002010B5002207490848B4
:107AA000FEF7FCFF074840F28221026C0448FEF713
:107AB000E1FFBDE810400248FEF7B4BF717A000054
:107AC00090130020C800002010B5024803F05CF9B4
:107AD000C0B210BD3C25020010B5024803F054F9B5
:107AE000C0B210BD3822020010B5024803F04CF9B4
:107AF000C0B210BD6C26020010B50146024803F06A
:107B000043F9C0B210BD0000BC25020010B501460B
:107B1000024803F039F9C0B210BD0000142502007C
:107B200010B50146024803F02FF9C0B210BD0000A5
:107B30007C25020010B50146024803F025F9C0B2C9
:107B400010BD00002C25020010B50246024803F0CB
:107B50001BF9C0B210BD00005C2502002DE9F04108
:107B60000E46074602F0D0FF040010D0384600F061
:107B700067F80546024631460AA0FDF79BF9B54273
:107B800007D329463846BDE8F04103F0ABB80121E0
:107B9000F8E76675608A40F020006082BDE8F04139
:107BA00003F058BB6761705F726571756573745FD0
:107BB00073656375726974795F6C6576656C202591
:107BC000752C2063757272656E74206C6576656CB9
:107BD0002025750010B50146024803F0D5F8C0B263
:107BE00010BD0000FC25020013460A4610B50146F0
:107BF000024803F0C9F8C0B210BD00005C260200C4
:107C000013460A4610B50146024803F0BDF8C0B25B
:107C100010BD000070220200F0B585B00DF1280CF7
:107C2000BCE8F0008DE8F80013460A460146034818
:107C300003F0AAF805B0C0B2F0BD00008022020037
:107C400010B502F061FF18B1BDE8104000F002B8B5
:107C5000012010BD10B1008B000401D40120704739
:107C60000220704702207047084B10B51B68C0EB1C
:107C7000C0021A440B6842F8DC3F8B8893800A46A6
:107C80000146034803F080F8C0B210BDFC21020099
:107C9000D425020000B101200249096881F8D20010
:107CA00070470000FC21020002490968C1F8880001
:107CB00070470000FC2102001CB5049CCDE9003493
:107CC00013460A460146024803F05EF8C0B21CBDE6
:107CD000282202000A4610B50146024803F054F873
:107CE000C0B210BD302202002DE9FE4F144E88466E
:107CF000A6F11C011D4609681746814609683088AF
:107D0000DDF830A04B6902AA691D9847040014D021
:107D1000CDE9007543464A46716802F0EBFEC0B2F9
:107D200020442A465146FCF725FB21463046029A5C
:107D300003F0BAFB0020BDE8FE8F5620FBE70000F1
:107D4000182202002DE9FC47124D0F46A5F124012F
:107D500099460968164680460968288801AA4B6931
:107D6000311D9847040013D000963B46424669688F
:107D700002F0C0FEC0B2204432464946FCF7FAFA8F
:107D800021462846019A03F08FFB0020BDE8FC87BE
:107D90005620FBE72022020005490268096801F528
:107DA0008A710A6042684A60806888607047000093
:107DB000FC2102000A4610B50146024802F0E4FF29
:107DC000C0B210BD082202002DE9FF5F154D8946A3
:107DD000291FDDE90E6B09681F4690460968824637
:107DE00028884B6903AA711D9847040018D0CDF864
:107DF0000080CDE901764B4652462046696802F084
:107E000079FEC0B2204432465946FCF7B3FA214607
:107E10002846039A03F048FB002004B0BDE8F09F19
:107E20005620FAE7002202002DE9FF5F164D894631
:107E3000A5F11401DDE90E6B09681F46904609683B
:107E4000824628884B6903AAB11D9847040018D0C0
:107E5000CDF80080CDE901764B4652462046696850
:107E600002F048FEC0B2204432465946FCF782FA7E
:107E700021462846039A03F017FB002004B0BDE812
:107E8000F09F5620FAE700001022020010B50AB950
:107E900044F2902213460A460146024802F074FF5B
:107EA000C0B210BDB425020013460A4610B5014603
:107EB000024802F069FFC0B210BD0000C4250200F4
:107EC00008B50B46009202460021024800F074F803
:107ED00008BD0000E42502002DE9FC4791461B4A3D
:107EE000194F8846126804460221126801EB880186
:107EF0003888536901AA9847060007D043462246AE
:107F0000796802F0F7FDC5B2002414E05620BDE800
:107F1000FC8700BF04EB440009EB40010A790092A2
:107F20004B8819F81020701909A102F0E3FD2D1DEE
:107F3000641CEDB2E4B24445ECD331463846019AB4
:107F400003F0B2FA0020E2E7F4250200FC2102006F
:107F5000313231002DE9F04F8DB0DFF854C0DDE94A
:107F60001F89DDE91BBADCF800C0DDE91D56C0EB56
:107F7000C0076744DDF868E0179C87F8DB4008AF6E
:107F8000A7E86003DDF864C0CDE906BACDE904CE08
:107F9000169E189DCDE9003613460A46014605484F
:107FA000CDE9024502F0F0FE0DB0C0B2BDE8F08FA1
:107FB000FC210200DC2502002DE9FC471C460A9D3D
:107FC000174688468146F72B28D9F720CDE90005CA
:107FD0000B4601223946484602F0D6FE10F0FF005B
:107FE00025D1F73CA4B2F73516E0F72C01D3F726DC
:107FF00000E02646A01BCDE900650404240C01D056
:10800000002200E0022243463946484602F0BCFE08
:1080100010F0FF000BD13544002CE6D1434603227B
:1080200039464846CDE9004502F0AEFEC0B2BDE893
:10803000FC87000008B5009313460A460146024833
:1080400002F0A2FEC0B208BD2C2602002DE9FC47BA
:1080500016460F4602EB8601244ADFF88C809946CB
:108060001268824600241268C91CB8F800005369DF
:1080700001AA9847050002D0002001220DE05620F9
:10808000BDE8FC8700EB400319F813305B1E02FAD1
:1080900003F12143401CCCB2C0B2B042F2D30094F1
:1080A0003B4652462846D8F8041002F023FDC7B2DA
:1080B00000240FE004EB440109EB410081880091AA
:1080C00043884278E8190AA102F014FD7F1D641C60
:1080D000FFB2E4B2B442EDD329464046019A03F020
:1080E000E3F90020CCE7000024260200FC21020076
:1080F0003132320008B50B46009202460021024898
:10810000FFF75AFF08BD0000EC2502000A4610B533
:108110000146024802F038FEC0B210BD6C250200D4
:108120002DE9F8431A4F15460C468046F82925D903
:108130000146F82301223846009502F025FE10F092
:10814000FF0023D1F83CA4B2F83515E0F82C01D398
:10815000F82600E02646A01B0404240C009501D05C
:10816000002200E0022233464146384602F00CFE6F
:1081700010F0FF000AD13544002CE7D1234603223A
:1081800041463846009502F0FFFDC0B2BDE8F883D5
:10819000142602000A4610B50146024802F0F4FD1A
:1081A000C0B210BD1C26020008B5009313460A4653
:1081B0000146024802F0E8FDC0B208BD0C260200EC
:1081C0000A4610B50146024802F0DEFDC0B210BDFD
:1081D000402202001CB5049CCDE9003413460A4637
:1081E0000146024802F0D0FDC0B21CBDCC25020001
:1081F00005490268096841F8922F82888A80014601
:10820000024802F0C1BD0000FC210200342502003A
:108210000249096881F8990070470000FC210200BA
:108220000B4900B50A6892F8A420C2F3C00262B1FB
:10823000096891F8991041B102F066FC28B1807C80
:10824000C0F3800008B1012000BD002000BD000087
:10825000FC210200F0B587B0DDE90C45DDE90E67D1
:10826000DDE910CE8DE81840CDE9057C13460A46BD
:10827000CDE903560146034802F086FD07B0C0B2BF
:10828000F0BD00006822020010B5024802F07CFD3B
:10829000C0B210BD9022020008B5009313460A46F2
:1082A0000146024802F070FDC0B208BD782202000B
:1082B000F0B587B00DF1300EBEE8F0108DE8F81083
:1082C00013460A460146034802F05EFD07B0C0B2FD
:1082D000F0BD0000882202007FB50DF1200CBCE843
:1082E00070008DE8780013460A460146024802F005
:1082F0004BFD04B070BD00006425020008B592007B
:10830000921C0B46009201460322024802F03CFDFB
:10831000C0B208BD982202002DE9F047DFF88CA416
:108320008AB01E461546884604280AD008287DD102
:1083300028781B280FD01D2808461FD001F056F8BA
:108340001EE02978782971D1DAF80040002C50D04D
:108350004146A0474DE0B5F801700C46D21CDE1E28
:108360003946A72016F076FCF61C02460AB0B3B2D6
:1083700039462046BDE8F047FEF7E3BD16F0A0F908
:10838000040053D02978771E4FF001090D2973D0CE
:1083900009DC0C2915D2DFE801F014EF143114EEDA
:1083A00014ED148614F0172967D006DC0F2978D055
:1083B000112952D0132904D167E1192972D01D293E
:1083C0005CD0FBA0FCF775FD28788DF808908DF83F
:1083D0000900002006218DF80A008DF80C108DF898
:1083E0000B0000900190A089052302AA042104F04B
:1083F00005FD0AB0BDE8F04700F0B8BCB5F8015083
:1084000004F0DEF9854200D22846E08284F8189014
:10841000DAF8005095B1AB208DF8000004208DF8FB
:108420000100A089ADF80200E08A00E0F7E1ADF8B4
:1084300004000623A1896A460420A8474046FEF7A7
:108440009FF8E64800788007D3D4E08A0022001D18
:1084500081B2A089FFF71AFDCBE720780228C8D1A6
:1084600032462946204616F05DFA69782046711A90
:10847000294401224988A7E00FE13CE14746B5F8CD
:108480000180EA1CF61E4146A82016F0E3FB0246D6
:10849000F61CB3B241463846FEF753FD84F85190BE
:1084A000A7E76AE15BE120780C281BD011DC0628E5
:1084B00001D008289DD132462946204616F0E5F91C
:1084C0003146284600F09CFF0146204619F014FB77
:1084D0008FE7142833D024288BD16888A4F84C0067
:1084E00025203AE195F80180B8F1070F07D2688896
:1084F000A085A8882086E88860860D202DE10227C7
:1085000016E000BFE91935F807904A8822868A8864
:108510006286C98801A819F099FC01A80090638EB1
:10852000228E49462046FEF740FD07EB080087B241
:10853000B742E7D369782046711A695A43E095F843
:10854000018000210227A8F1020A0DE035F807900A
:10855000EA191FFA8AF3921C4946204616F086F95A
:1085600007EB0800494687B2B742EFD320461322F3
:108570002AE002E035E04CE009E120780E2814D032
:10858000102824D028288BD1204600F07DFA218F96
:108590006A1CA92016F05EFB02460837BBB2A1890F
:1085A000A068FEF7C5FC002135E101A9681C16F0A2
:1085B000F7F9A18D01AA00922046638E228EFEF764
:1085C000F4FCA18D20460B2219F0B6FA11E72046E3
:1085D00000F05AFABBB2218F6A1C204616F046F909
:1085E000E1E74FF004094FF6FF78012704F11C0A78
:1085F00009E0E819E95B4088534680460246204678
:10860000FEF7F4FC4F44B742F3DB20464146032219
:10861000DAE768780427022800D11227F01B35F822
:1086200000A0AD1CB61E1FFA86F8002622E000BF8F
:1086300035F80690042F05EB060021D0801C06A912
:1086400016F0AEF9A4228DF8002014228DF8012036
:10865000A289ADF8022006A9ADF8049010220DF110
:108660000600FBF787FEA18916236A46A068FEF77D
:108670005FFC3E444645DBDB204651460922A3E72A
:10868000418806A819F0E2FBDCE72078182803D01F
:10869000262801D02C2899D1ACE0761E2078B6B2DD
:1086A000761DBFB2122815D02A288FD1218F628F54
:1086B0006B1CAA20009716F0DBFA020004D0B3B2BC
:1086C000A189A068FEF734FC3A462921204619F01A
:1086D000FBF98EE6218F628F6B1CA620009716F0A7
:1086E000C7FA020004D0B3B2A189A068FEF720FC4B
:1086F0003A461121EAE720781A2812D01C281CD00B
:108700002E2814D03228E4D1204600F0BDF932469C
:108710002946204603F09AF800287FF461AF7E21B5
:1087200079E0B5F803001D226087192110E0B5F843
:1087300003002F2260872D210AE032462946204679
:1087400003F084F840B1B5F803001D2260871B21B7
:10875000204619F0E0F94CE62120207049E6207807
:108760001E2847D0202845D0222802D03028B0D15A
:1087700040E0204600F088F9D1E720781628A8D1FB
:10878000BBB26A1C0021204616F070F832E029794D
:108790000A292BD12078082830D021DC022829D0C2
:1087A000042827D0062821D128E00000540000200A
:1087B0004154542048616E646C65722C20756E685B
:1087C000616E646C656420726573706F6E73652092
:1087D00074797065203078253032780050000020A0
:1087E0000A2807D00C2805D014280CD0204600F009
:1087F000ACFAFEE5204600F047F9D4E6E18D2046CC
:10880000FEF74EFAF6E7204600F03EF9A08D218EE5
:108810008842F2D10A212046FEF7B4FBE9E50AB00E
:10882000BDE8F08710B50446084615F083FF18B17F
:10883000017819B1952010BD562010BD1F2184600C
:10884000017000F093FA002010BD70B50546144683
:10885000084615F06FFF18B1017819B1952070BD69
:10886000562070BD85606188A288914203D10021A5
:10887000FEF788FB07E0491C8185A188C185092195
:10888000017000F073FA002070BD2DE9F041074639
:108890001D4616460846DDF8188015F04BFF04000B
:1088A00004D0207820B19520BDE8F0815620FBE768
:1088B000A760A685E585012084F850000025658322
:1088C0001022414604F11C00FBF754FDE586072009
:1088D000207000F04BFA0020E6E72DE9F041074652
:1088E0001D4616460846DDF8188015F023FF0400E3
:1088F00004D0207820B19520BDE8F0815620FBE718
:10890000A760A685E585012084F85000A4F81A80A8
:10891000414604F11C0019F099FA0020E086072076
:10892000207000F023FA0020E6E770B506461C46EA
:108930001546084615F0FEFE18B1017819B19520CC
:1089400070BD562070BD86608585C485002180F885
:108950005010C1860521017000F008FA002070BD9A
:1089600010B50446084615F0E5FE18B1017819B1B6
:10897000952010BD562010BD0121846081854FF6E1
:10898000FF72C28501700021418300F0EFF90020E1
:1089900010BD70B505461646084615F0CBFE04001E
:1089A00003D0207818B1952070BD562070BD0120ED
:1089B000A560A0854FF6FF70E0850020608310223F
:1089C000314604F11C00FBF7D5FC0320207000F0B9
:1089D000CDF9002070BD70B505461446084615F067
:1089E000A9FE18B1017819B1952070BD562070BD4F
:1089F0000121856081854FF6FF71C18503210170DA
:108A0000448321461C3019F021FA00F0AFF9002010
:108A100070BD10B50446084615F08CFE18B10178FB
:108A200019B1952010BD562010BD1D218460017024
:108A300000F09CF9002010BD70B506461C46154696
:108A4000084615F077FE18B1017819B1952070BD70
:108A5000562070BD86608585C4850B21017000F0AD
:108A600085F9002070BD00B50A4600F0BFFC10B1CA
:108A7000017E012903D017201080952000BDC08AF7
:108A80001080002000BD000010B5002101700446D8
:108A900081890448FCF70DFA04F16000BDE810403C
:108AA000FDF7CABFD421020070B5042817D1107891
:108AB000052810D1B2F80350284600F097FC0400B6
:108AC00009D01F2100F041F90549002041F8250097
:108AD0002046FDF70BFFBDE8704000F047B970BDC0
:108AE00098080020064910B504484860084601F07F
:108AF000D7FEBDE810400348FCF7A4BFA98A0000D8
:108B0000580000201983000010B515F0D9FD002889
:108B100002D0007808B1002010BD012010BD70B552
:108B200004460D46104600F061FC002807D0656041
:108B300023812146BDE87040001DFDF769BE70BD70
:108B40002DE9F0410646DDE906781C461546084643
:108B500015F0F0FD20B1017821B19520BDE8F0813C
:108B60005620FBE786600587878744873121C0F858
:108B70004080017000F0FAF80020EFE770B505467C
:108B80001446084615F0D6FD18B1017819B19520A4
:108B900070BD562070BD856004872721017000F0EC
:108BA000E5F8002070BD0023AFF3008070B50646E5
:108BB0001C461546084615F0BDFD18B1017819B1DF
:108BC000952070BD562070BD866005874487292199
:108BD000017000F0CBF8002070BD0023AFF30080DF
:108BE00070B506461C461546084615F0A3FD18B19B
:108BF000017819B1952070BD562070BD866005873B
:108C000044871121017000F0B1F8002070BD70B5EB
:108C100006461D461446084615F08CFD18B101782D
:108C200019B1952070BD562070BD8660A0F84440F3
:108C300015218564017000F099F8002070BD70B5B1
:108C400005461446084615F075FD18B1017819B1AE
:108C5000952070BD562070BD856004870021418736
:108C60000F21017000F082F8002070BD2DE9F04165
:108C700007461D4616460846DDF8188015F05AFDD1
:108C8000040004D0207820B19520BDE8F081562062
:108C9000FBE7A760A685E5852686658600206083BC
:108CA0001022414604F11C00FBF764FB13202070E6
:108CB00000F05CF80020E8E72DE9F04107461D468A
:108CC00016460846DDF8188015F034FD040004D07F
:108CD000207820B19520BDE8F0815620FBE7A76001
:108CE000A685E58526866586A4F81A80414604F1A6
:108CF0001C0019F0ABF81320207000F037F80020AA
:108D0000E9E70000014908607047000054000020B6
:108D10002DE9F04106461C4615460846069F15F00B
:108D200009FD20B1017821B19520BDE8F0815620E0
:108D3000FBE7866005878487002141871B21076444
:108D4000017000F013F80020EFE770B504460078DA
:108D50000D46002808D02046FFF796FE29462046FB
:108D6000BDE87040FEF70EB970BD00002DE9F04F70
:108D7000002689B04FF01E094FF0040A4FF0020B95
:108D800037464FF00808CD4850F82640002C6ED0EA
:108D9000A089FCF751FE40B12278217EC8A0FCF7E3
:108DA00088F8207E012862D105E0A08909B0BDE8DD
:108DB000F04FFCF744BE94F8510040B184F8517074
:108DC000A0898DF8089000970123019789E0207809
:108DD000172801D02B2818D1204615F0A1FAA18F11
:108DE000C01E884211DA204615F09AFA0246A18F79
:108DF000C1A0FCF75EF82046FFF746FE09B020460A
:108E0000BDE8F04F0D21FEF7BDB8606D04F09AF992
:108E100005462178C3A0FCF74CF82078362826D2E6
:108E2000DFE800F09E1B9E269E469E499E519E6452
:108E30009E709E749E769E789EA39EB69EB89EBCA3
:108E40009EBE9EC19EC39ECB9EED9ED39EDD9EE5A3
:108E50009EFE9EFC9EBA9EFB9EFA84F800B0E08DBA
:108E60000090A38DA2894FF42051102047E077E0B5
:108E700084F800A0608B4FF4205530B1ADF81C0091
:108E8000E18D07AA8DE8060809E003A904F11C009A
:108E900015F086FDE08D102203A98DE80700A38D53
:108EA000A28929460620FCF7EFFE09B0BDE8F08F45
:108EB0000620207001E084F8008009B02046BDE85B
:108EC000F04F15F04ABE84F80080A089A18DE28D94
:108ED0008DF808A0ADF80910ADF80B200097052318
:108EE000019702AA042103F089FFDEE70C2020701D
:108EF000E08D0090A38DA28942F602010820FDF7C3
:108F000006F9D2E70E202070228E61E010205DE08D
:108F1000122065E014202070618B204639B1C28D8B
:108F20000092838DA2890820FDF7F1F818E000F186
:108F30001C028589818DE08D8DF80880ADF80910BF
:108F4000ADF80B000DF10D01104615F029FD00974D
:108F5000152302AA04212846CDF8047003F04EFF21
:108F6000761C182EFFF40FAF9FE716202070A08903
:108F7000B4F844100E23A26C8DF808304FF6FF733E
:108F800003EA4101CDE90021012302AA0421E5E71A
:108F900018202DE01A2044E0322042E01C2040E05E
:108FA00084F8009046E0202000E02220207009B0E4
:108FB0002046BDE8F04F15F0CBBD2420207009B04D
:108FC0002046BDE8F04F15F008BE28202070228F03
:108FD000A18909B00A20BDE8F04FFDF7ADB82A20FD
:108FE000207009B02046BDE8F04F15F0E1BD2C20FF
:108FF000207009B02046BDE8F04F15F0F9BD2620DD
:10900000207004F14E000090B4F84C20A189022396
:109010001220FDF713FB48E726E011E008E0FFE728
:109020002E20207009B02046BDE8F04F15F0A5BDF8
:109030003020207009B02046BDE8F04F15F098BDF3
:1090400016F044FA00288FD034202070A86D216CCF
:1090500001AB0091394A15C3A38F228FD22105F1AC
:10906000480016F03DFA20E736202070A96DB4F8CC
:109070000C90228FB4F83C80D223266C8DF81030EF
:10908000ADF81120059104F158000DF1140A06A95C
:1090900015F092FC0C20CDE902A0CDE90068032375
:1090A00004AA0421484603F0F1FE27702046FFF78A
:1090B000EBFCA86D401CA865F7E6000098080020AE
:1090C0002D2068616E646C655F706572697068659B
:1090D00072616C5F6C6973742C206D74752073748D
:1090E0006174652025752C20636C69656E7420732E
:1090F0007461746520257500676174745F636C69C1
:10910000656E745F72756E3A2076616C7565206C61
:10911000656E202575203E204D5455202575202D47
:1091200020330A00676174745F636C69656E745FF5
:10913000737461746520257500000000716500007E
:109140002DE9F04707461D46164689460846DDF8D4
:10915000208015F0B5FA0446007850B9484616F05C
:109160002BFF014660650AA0FBF7A3FE606D002897
:1091700002DA9520BDE8F087A7602687A58733200F
:10918000C4F840802070FFF7F1FD0020F2E70000F6
:109190006C655F6465766963655F6B65792069738B
:1091A000203A307825780A0070B50A4E054600242A
:1091B00056F82400A84207D1A98907A0FBF779FE39
:1091C0007F212846FFF7C1FD641CA4B2182CEFD301
:1091D00070BD0000980800204741545420636C691A
:1091E000656E742074696D656F75742068616E6456
:1091F0006C652C2068616E646C6520307825303297
:10920000780000002DE9F04106461C461546084648
:10921000069F15F08FFA20B1017821B19520BDE8A5
:10922000F0815620FBE7866005878487002141870F
:109230002B2107640170FFF799FD0020EFE770B55F
:1092400006461D461446084615F074FA18B1017812
:1092500019B1952070BD562070BDE90704D0A179E1
:10926000C90601D4982070BDA90704D5A179890643
:1092700001D4992070BD866061888185A188C185EF
:10928000A0F84E5023210170FFF770FD002070BD43
:109290001CB5049CCDE90034002300F001F81CBD8E
:1092A0002DE9F0410646DDE906781C4615460846DC
:1092B00015F040FA20B1017821B19520BDE8F08188
:1092C0005620FBE786600587878744872D21C0F8F5
:1092D00040800170FFF74AFD0020EFE71CB5049CB9
:1092E000CDE90034002300F001F81CBD2DE9F04168
:1092F0000646DDE906781C461546084615F01AFABA
:1093000020B1017821B19520BDE8F0815620FBE71E
:1093100086600587878744871921C0F840800170DF
:10932000FFF724FD0020EFE72DE9F04106461C463B
:1093300015460846069F15F0FDF920B1017821B1C8
:109340009520BDE8F0815620FBE78660058784877D
:10935000172107640170FFF709FD0020F1E7F8B558
:109360001E4615460F4615F0ABF9040003D02078D1
:1093700018B19520F8BD5620F8BD204614F0D0FF56
:10938000C01EA84201DA9720F8BD0096A1892B469D
:109390003A465220FDF752F9C0B2F8BDF0B50024AC
:1093A00023460125C65C002205FA02F73E4207D09B
:1093B0008C4203D102EBC300C0B2F0BD641CA4B266
:1093C000521CD2B2082AEFD35B1CDBB2052BE9D3C7
:1093D000FF20F0BD10B580B214F0EEFF18F092F946
:1093E0000028FBD1BDE8104018F07EB9182803D240
:1093F000024951F82000704700207047980800206B
:109400004278891A0844B0F8030070472DE9FC41FE
:10941000164C18271E46D4F808C0BCF1000F11D016
:109420004978D9B12178002579B1FCF7A9FA2378D8
:1094300062882570658002B039463046BDE8F0414B
:1094400015F00EBC03230022F5E7002300950195DB
:10945000B0F8060102221946E04701E0FCF790FA55
:10946000192030700120BDE8FC8100002800002098
:109470002DE9FF4F87B01D46DDE91473894682460A
:1094800000264FF0060B0124B0463A4629463248E2
:10949000FBF70CFDBD4204D81DB1DAF824010090A1
:1094A00046E0012351E06846FCF712FDBDF80800D4
:1094B00008B1A8423CD3B8423DD8CEB158B14FF420
:1094C00020516846FCF74DFD28B942F60101684677
:1094D000FCF747FD60B1414620A0FBF7E7FC29F807
:1094E0000480A41CA4B209990026201D884222D819
:1094F000BDF808005FEA00081AD068461599FCF725
:1095000030FDA8B1BDF810201698824210D10599FF
:109510001798FAF768FF58B9BDF8081016A0FBF7BE
:10952000C5FCBDF8081029F80410A41CA4B201263B
:1095300000980028B7D1012C06D0072189F8001027
:1095400020460BB0BDE8F08F0A232A46594648460C
:1095500015F086FBF5E7000028200200456E642028
:109560006F662067726F75702C2068616E646C6521
:109570002030782530347800426567696E206F6648
:109580002067726F75702C2068616E646C65203086
:1095900078253034780000002DE9F04F87B09346ED
:1095A000109F884681461E464FF0040A012400257C
:1095B0003A46194628A0FBF779FCBE4204D81EB1F2
:1095C000D9F82401009033E001233EE06846FCF71F
:1095D0007FFCBDF8080070B3B8422CD8B04227D346
:1095E000BDF80610880501D5102000E00220012CEE
:1095F00002D9A84221D109E008D10546880501D544
:10960000022100E0012188F8011002246019801C69
:10961000584510D8BDF8081028F80410A41CA4B2AE
:1096200008EB04002A460399FAF7A4FE601984B2F5
:1096300000980028CAD1012C06D0052088F8000027
:10964000204607B0BDE8F08F0A2332465146404617
:1096500015F006FBF5E700004154545F46494E44BF
:109660005F494E464F524D4154494F4E5F5245510E
:10967000554553543A2066726F6D2025303458207A
:10968000746F2025303458002DE9F04F2C4C834660
:10969000B1F80150B1F803A0A06889B0984691468E
:1096A0000E46162758B12A4602A95846FCF703FB76
:1096B00038B1BDF80E00010701D5C00503D403235E
:1096C0001DE001231BE002A95846FCF785FF08B105
:1096D000034614E0A9F10500711D80B2CDE9001028
:1096E000D4F808C0BBF80601534601222946E047DA
:1096F00010F0FF0319D0072B09D00D2B07D02A46F5
:109700003946404615F0ACFA09B0BDE8F08F0D2B94
:1097100002D0072B06D008E020780D2805D0237052
:10972000658002E020780028F9D04A46314640465C
:10973000FAF720FE172188F800104846E4E70000F9
:10974000280000202DE9F04387B016460E9D0C46F8
:10975000074699464FF00C082A46194625A0FBF704
:10976000A5FB4A4601A93846FCF7A5FA28B1BDF881
:109770000A00800703D4022307E0012305E001A9C2
:109780003846FCF729FF030007D04A4641462046E9
:1097900015F066FA07B0BDE8F083B7F8061101A826
:1097A000FCF704FFBDF81400A0F57F41FF3902D19A
:1097B0000020ADF8140080B2A84201D20723E4E7EC
:1097C000401C401BB04203DD7019401EADF8140070
:1097D000B7F806010090BDF81400621C401B83B26C
:1097E000294601A8FCF706F9401C0D2180B2217022
:1097F000D0E700004154545F524541445F424C4F12
:10980000425F524551554553543A2068616E646C2D
:109810006520253034782C206F66667365742025AA
:10982000750000002DE9FF4F89B00024DDF8589045
:109830001020CDE906041E468A460125A04608945C
:10984000A3464A46314643480B9BFBF72FFB4E4548
:1098500013D896B1DDE91707022810D0384601F079
:10986000D5FF40B1B7F80C004FF42057B84208D0EC
:10987000791C884205D0102366E0012364E0388813
:10988000F2E70998D0F82401009050E06846FCF710
:109890001FFBBDF8080008B1B04248D3484549D87D
:1098A000B8F1000F23D050B139466846FCF759FB98
:1098B00028B942F601016846FCF753FBB8B1089994
:1098C0002AF80510AD1CA8B22AF800B0801C85B299
:1098D0000AEB0500221F0799FAF74CFD2819001F13
:1098E00085B20B9829194FF00008814222D8BDF8A3
:1098F00008005FEA000B1AD0DDE917216846FCF783
:109900000BFBA0B1BDF81000001D80B2012D02D9E3
:10991000A04211D104E003D104468AF801000225D7
:10992000BDF80800089005984FF0010807900098CE
:109930000028ABD1012D06D011208AF8000028465E
:109940000DB0BDE8F08F0A2332465046069915F057
:1099500087F9F5E7702002002DE9FF4F87B08846B0
:10996000149F81464FF0000A1D464FF0080B01245A
:1099700056463A4619463FA0FBF798FABD4204D82E
:109980001DB1D9F8240101905CE0012366E001A833
:10999000FCF79EFABDF80C00E8B3A84252D3B842D7
:1099A00053D8DDE9152101A8FCF7B6FAA0B3BDF83C
:1099B0000A00800703D47EBBBDF80C6042E001A919
:1099C0004846FCF709FE030002D0012C3FD845E0D1
:1099D000B9F8061101A8FCF7E9FDBDF81400A0F5DF
:1099E0007F41FF392ED0801C80B2012C02D98245E4
:1099F0002DD104E003D1824688F8010002240998A1
:109A000004EB0A0181420AD9022C20D8001FADF8CC
:109A10001400801C01E018E014E088F80100BDF893
:109A20000C1028F80410B9F80601A41C0090A4B288
:109A3000BDF8143008EB0402002101A8FBF7DAFF9F
:109A4000204484B201980028A1D1012C08D9092111
:109A500088F8001020460BB0BDE8F08F2A4602E0DF
:109A600036B1022332465946404615F0F9F8F2E77E
:109A70000A23F3E74154545F524541445F42595F22
:109A8000545950455F524551554553543A206672DA
:109A90006F6D202530345820746F20253034582CB9
:109AA00020747970653A20002DE9FF4F87B0884611
:109AB00083461F464FF00E090124194628A0DDF801
:109AC00050A0FBF7F3F9002543E000BF3AF815601A
:109AD0005EB1324601A95846FCF7EDF828B1BDF851
